:020000040800F2
:10000000A80C00202D0200087D240008071D000810
:100010004D2400082916000885390008000000005A
:10002000000000000000000000000000A9290008F6
:100030002D160008000000000D280008BD2A000849
:10004000470200084702000847020008470200086C
:10005000470200084702000847020008470200085C
:10006000470200084702000847020008470200084C
:10007000470200084702000847020008470200083C
:10008000470200084702000847020008470200082C
:10009000470200084702000847020008451600080A
:1000A000470200084702000847020008470200080C
:1000B000612D000847020008E12D000847020008F2
:1000C00047020008470200084702000847020008EC
:1000D000470200082D35000847020008B535000822
:1000E00047020008470200084702000847020008CC
:1000F00047020008470200084702000847020008BC
:1001000047020008470200084702000847020008AB
:10011000470200084702000847020008470200089B
:10012000470200084702000847020008470200088B
:1001300000F002F800F06AF80AA090E8000C82448F
:100140008344AAF10107DA4501D100F05FF8AFF26C
:10015000090EBAE80F0013F0010F18BFFB1A43F0A5
:1001600001031847288D0000488D00000A444FF015
:10017000000C10F8013B13F0070408BF10F8014B06
:100180001D1108BF10F8015B641E05D010F8016B4B
:10019000641E01F8016BF9D113F0080F1EBF10F8AF
:1001A000014BAD1C0C1B09D16D1E58BF01F801CBD2
:1001B000FAD505E014F8016B01F8016B6D1EF9D555
:1001C0009142D6D37047000000230024002500266A
:1001D000103A28BF78C1FBD8520728BF30C148BFAA
:1001E0000B607047662907F0C086642900F07080B4
:1001F000002070471FB500F099FC0400002000218A
:1002000006F098FDE0601FBD10B510BD00F0D6FDF2
:100210001146FFF7EFFF05F07FFA00F0F4FD03B49D
:10022000FFF7F2FF03BC03F02EFD000009488047F2
:1002300009480047FEE7FEE7FEE7FEE7FEE7FEE7C8
:10024000FEE7FEE7FEE7FEE704480549054A064BE0
:1002500070470000C12A000831010008A8060020EC
:10026000A80C0020A8080020A8080020704710B59E
:100270004C1084EA530404D54042C1F1000138BF58
:10028000491E1B4204D55242C3F1000338BF5B1E16
:1002900000F02EF914F0804F04D04042C1F100016B
:1002A00038BF491E14F0004F04D05242C3F100037E
:1002B00038BF5B1E10BD00000FB4044910B503AA7F
:1002C000029800F0FFFB10BC5DF814FB4C0000200E
:1002D0002DE9F0410646002410687529314616A51F
:1002E00010D0AFF30080002802DA404213A507E0E7
:1002F00031688A0701D512A502E0490704D511A586
:10030000012401E0AFF3008000210A2206F1240756
:1003100009E0B0FBF2FCB0FBF2F302FB1C00303052
:1003200078541846491C0028F3D123462A46304603
:10033000BDE8F04100F05EB9000000002D000000B3
:100340002B000000200000002DE9F05F89460446E4
:100350004FF0000ADFF824B1FB44C0F820A020468B
:10036000E168884700287DD0252806D0D4E90121FE
:100370009047206A401C2062F1E700255F46204636
:10038000E16888472028064607DB312E05D2B819D8
:1003900010F8200C08B10543F1E7A80701D525F0B6
:1003A0000405C4F81CA00027C4F818A02A2E09D000
:1003B000304603F061FC38B304EB8708303EC8F8E0
:1003C000186019E059F8041B204604EB870291617C
:1003D000E1688847012F064618D1E069002820DA35
:1003E00025F020051DE0D8F8180000EB800006EB92
:1003F00040003038C8F818002046E16888470646B3
:1004000003F03AFC0028EED1012F0AD02E2E08D19D
:100410002046E16888477F1C0646022F45F02005EC
:10042000C4DBA069002803DA404245F00105A06161
:10043000E80701D025F01005A6B1A6F14100192862
:1004400002D8203645F400654A46314620462560EC
:100450004D46FFF7C7FE60B1012807D0ED1D25F01E
:10046000070000E007E000F1080978E705F104095A
:1004700075E730467AE7206ABDE8F09F4A890000B8
:1004800040EA010310B59B070FD1042A0DD310C811
:1004900008C9121F9C42F8D020BA19BA884201D963
:1004A000012010BD4FF0FF3010BD1AB1D30703D0AB
:1004B000521C07E0002010BD10F8013B11F8014B61
:1004C0001B1B07D110F8013B11F8014B1B1B01D17D
:1004D000921EF1D1184610BD02F0FF0343EA032239
:1004E00042EA024200F002BB704770477047704713
:1004F00053EA020C00F069802DE9F04B4FF0000642
:10050000002B1FBFB3FA83F503FA05F424FA05F6AE
:100510005E4012BF1643B2FA82F502FA05F4C5F145
:1005200020051EBF22FA05FC44EA0C04203556EAD9
:10053000044C4FEA144418BF641C4FF000084FF0FD
:100540000009904271EB030C39D3002919BFB1FAAD
:1005500081F701FA07F6B0FA80F700FA07F6C7F15B
:1005600020071EBF20FA07FC46EA0C062037B6FB20
:10057000F4FCA7EB0507103F07F01F0BCBF120069B
:100580000CFA0BFB2CFA06F644BFB3460026202FCC
:10059000A4BF5E464FF0000B5BEA060C08BF4FF0AD
:1005A000010B19EB0B09ABFB027C48EB0608C01BE7
:1005B00006FB02CC0BFB03CC71EB0C01C1E70B4635
:1005C000024641464846BDE8F08B13B54FF00000A7
:1005D0004FF00001AFF30080BDE81C40704710B53C
:1005E00000F0A8FA006810BD10B5044600F0A2FAA9
:1005F000046010BD2DE9F0470D4699469246044629
:1006000000F124080168880604D5E06921F0100192
:10061000216000E00120A84201DD471B00E0002727
:10062000A1697A1902EB0900081AA0612078C006B6
:1006300002D42046AFF30080002608E0D4E901216F
:100640001AF806009047206A401C761C20624E452E
:10065000F4DB2078C0060AD52046AFF3008006E020
:10066000D4E9012130209047206A401C2062381EC6
:10067000A7F10107F4DC07E0D4E9012118F805002F
:100680009047206A401C2062281EA5F10105F3DC7A
:100690002046AFF300802078000602D50220BDE896
:1006A000F0870120FBE770472DE9FF4F0C461E46FF
:1006B0004FF0FF378BB0D2E90001DDF860800A907F
:1006C0008A46C1F30A5505B93D46002108464FF058
:1006D0000000BAF1000F00F4400005DA00EB8000E2
:1006E0004FF4400101EA50004FEA9059B9F1010F6F
:1006F00000DDB9460A9850EA4A000ED044F6105080
:10070000A5F2FF3545432F14B8F1000F1ED07542F6
:10071000291E1EDDC9F100021CE0B8F1010F4FF0E7
:10072000000001D0302103E0F24305E02154401CD9
:10073000B042FBDB30460022002121540B99C1F866
:100740000880C1E900200FB0BDE8F08FBD1B6D1C13
:10075000DEE74A4600DA694206A800F08DFA06ABE9
:1007600093E8070003AB83E8070050460A9900F0BE
:1007700093FB8DE80700A0F500501F380090039808
:10078000002D0ADD42F21F014A460844002303A956
:100790000390684600F0FCFD09E0A0F500504A46D1
:1007A0001F38002303A90390684600F006FE8DE879
:1007B00007000004000C03D04FF0FF30410800E0B8
:1007C0001046B8F1000F03D00022009215461EE03B
:1007D000751E05D400F0B2F9303262556D1EF9D5A0
:1007E000B3460122084302D000227F1C04E0207897
:1007F000302801D100227F1E002A099784D01DE0F5
:10080000112D07DA00F09AF9303262556D1C50EA6A
:100810000102F5D1084302D00098C8B10EE00021D2
:10082000681E05E0235C625C63542254401E491C30
:100830008142F7DBAB46A81B401E0990002004F85C
:100840000B000B98099AC0F80880C0E9002B7AE7E2
:1008500011264FF0000857E72DE9F04F884604466F
:10086000D21D22F0070191B0D1E90001CDE90A01C2
:1008700003F086F902460B98C00F01D02D2007E047
:100880002068810701D52B2002E0202101EAC00069
:10089000032A099001D0072A05DB0346414620467A
:1008A00000F0AAF90BE12078800601D5E06900E0AC
:1008B0000620B8F1650F814606D0B8F1660F18D052
:1008C000B8F1670F70D131E00020B9F1110F00903D
:1008D00001DB112301E009F101030AAA01A90CA817
:1008E000FFF7E2FEDDE90C70002609F10105834601
:1008F00047E001204B4600904FF000470AAA01A9AB
:100900000CA8FFF7D1FEDDE90DB00C995D4600267D
:1009100010B909F101000D18B9EB050003D4C0F1BD
:10092000FF3609F10105A5EB09002BE0B9F1010F34
:1009300001DA4FF001090020B9F1110F009048468B
:1009400001DD112300E003460AAA01A90CA8FFF764
:10095000ABFEDDE90C704D4600268346207800078B
:100960000AD4AB4500DA5D4601A8012D04DD41192A
:1009700011F8011C302907D04F4502DA17F1040F96
:1009800004DA012082460FE06D1EEEE7002F02DC44
:10099000ED1B3E4403E0781CA84200DD7D1CB81B23
:1009A00000F1010A4FF000472078000703D4AA4560
:1009B00001DB4FF0FF3A0021B7F1004F0DF1430882
:1009C0008DF8431024D002202B23002F01DA7F4220
:1009D0002D230A21021EA0F1010000DC5FB197FB6C
:1009E000F1FC97FBF1F201FB1C7C17460CF1300C7B
:1009F00008F801CDEEE7A8F1010003702188090590
:100A000001D5452100E06521A0F1010800F8011C95
:100A100009980FA9A1EB0807FF1D00B1012041199A
:100A200001EBEA70A1693844081A401EA0612078E1
:100A3000C00602D42046AFF30080099828B1D4E95B
:100A400001219047206A401C20622078C00622D5F0
:100A50002046AFF300801EE0002E04DBB34502DD2C
:100A600001A8805D00E03020D4E901219047206A90
:100A7000401C2062761CAAF101005FEA000A0AD13C
:100A800000F054F8C0680168405CD4E90121904747
:100A9000206A401C2062281EA5F10105DCDC07E06D
:100AA000D4E9012118F8010B9047206A401C20620C
:100AB000381EA7F10107F3DC2046AFF300800320C6
:100AC00011B041E6074B70B50D467B4400F081F84C
:100AD0000446284600F042F910B14FF0FF3070BDD7
:100AE000204670BD874500004FF000020429C0F089
:100AF000128010F0030C00F03781CCF1040CBCF133
:100B0000020F18BF00F8012BA8BF20F8022BA1EBA1
:100B10000C0100F029B95FEAC17C24BF00F8012B69
:100B200000F8012B48BF00F8012B704700487047C0
:100B300064060020004870474406002030B5B0F13C
:100B40000A024FEA900E71F100034EEA817EB0EB8B
:100B50000E0061EB91014FEA101E4EEA017E10EB90
:100B60000E0041EB11114FEA102E4EEA016E10EB10
:100B70000E0041EB11214FEA104E4EEA014E10EBF0
:100B80000E0041EB1141401841F100014FEAD00045
:100B900040EA41704FEAD10110EB80054FEA810431
:100BA00044EA907444EB01046D1944EB0404521BB5
:100BB000A3414FF0000348BF0A3200D530BD401CAE
:100BC00041F1000130BD000001694A1C0261087852
:100BD000704700B58FB0CDE901310021059105497D
:100BE0007944CDE9031011466846FFF7ADFB0FB01D
:100BF00000BD0000E5FFFFFF2DE9F0411F46044660
:100C000003260168072A01F4006004DB08B116A579
:100C100005E016A503E008B115A500E015A521F033
:100C200010002060A069C01EA0610FB1401EA0612D
:100C30002046AFF300804FB1D4E9012138469047F8
:100C4000206A401C2062C01C206206E0206AFAE78D
:100C5000D4E9012115F8010B9047761EF8D2204601
:100C6000AFF30080BDE8F0814E414E006E616E0032
:100C7000494E4600696E66002DE9F04781461646EA
:100C80008AB0354878440DC88DE80D003248784464
:100C9000801C03AC0DC884E80D0041F69B3008446D
:100CA000372190FBF1F290FBF1F5A5F1800501FBF6
:100CB00012041B3C02D56442012000E00020DFF852
:100CC00098A080460027FA44AAF1BE0A0EE0E00789
:100CD0000AD03246684607EB470101230AEB81013F
:100CE00000F06BFB8DE8070064107F1C002CEED138
:100CF000194F7F44AE3F19E0E80715D007EB041009
:100D00000DF1180A90E80E008AE80E00C068F04263
:100D100001D1981908903246012306A903A800F0D2
:100D20004CFB03AB83E807006D10641C002DE3D17E
:100D30004FF0010332466946B8F1000F03A802D014
:100D400000F026FB01E000F038FBC9E90001C9F81A
:100D500008200AB0BDE8F0879C810000007B00F00D
:100D6000800070474FF0000200B513469446964647
:100D7000203922BFA0E80C50A0E80C50B1F12001AE
:100D8000BFF4F7AF090728BFA0E80C5048BF0CC05C
:100D90005DF804EB890028BF40F8042B08BF7047BA
:100DA00048BF20F8022B11F0804F18BF00F8012B2C
:100DB0007047000000487047440600207546FFF762
:100DC000F9FFAE4605006946534620F00700854608
:100DD00018B020B5FFF738FABDE820404FF0000604
:100DE0004FF000074FF000084FF0000B21F0070113
:100DF000AC46ACE8C009ACE8C009ACE8C009ACE856
:100E0000C0098D46704710B50446AFF300802046F8
:100E1000BDE81040FFF703BA4FF0013C50F8042B37
:100E200051F8043B9A4221D1A2EB0C03934313EAFD
:100E3000CC1317D150F8042B51F8043B9A4215D12A
:100E4000A2EB0C03934313EACC130BD150F8042B01
:100E500051F8043B9A4209D1A2EB0C03934313EAE5
:100E6000CC13DBD04FF00000704700BFD01A01BA9E
:100E7000B1FA81F101F0180122FA01F0CB40C1F181
:100E80002001DBB2C0B2C01A2CFA01F3D11A91438F
:100E900011EAC311E6D170475FEA400C08BF91F038
:100EA000000F4FEA8C234FEAC12243EA51514FEA27
:100EB0001C5018BF00F5F0404FEA300018BF41F059
:100EC00000415FEA6C5C00F02980BCF1FF3F08BF85
:100ED00040F080407047130C06BF12044FF0100C16
:100EE0004FF0000C130E04BF12020CF1080C130F8C
:100EF00004BF12010CF1040C930F04BF92000CF11B
:100F0000020CD30F04BF52000CF1010C11464FF03C
:100F10000002A0F11F00A0EB0C00704711F0004F81
:100F200008BF704731F000413FF4D5AF0B0C06BF4E
:100F300009044FF0100C4FF0000C0B0E04BF090217
:100F40000CF1080C0B0F04BF09010CF1040C8B0F02
:100F500004BF89000CF1020CCB0F04BF49000CF157
:100F6000010CCCF12003A0EB0C0022FA03F302FAEF
:100F70000CF241EA030100F10100704720F07F4CC0
:100F800080EA030023F07F47ACEB070303F57C53B3
:100F900000F0004003F1FF032DE980494FEA154BB3
:100FA00009B44FEA144325EA0B4E24EA03480FF232
:100FB000042606EB132749083E785FEA320203FB5A
:100FC0000667C7F5000707FB06F64FEA54374FEAF6
:100FD000D64606F1020607FB066CCCF1005C4FEA30
:100FE0001C472CEA074C07FB06F40CFB06F504EB48
:100FF00015464FEA961634BF00204FF000404FEAE6
:10100000D13706FB07FC4FEA1C4C0CFB0BF7D21B3D
:1010100003FB0CF761EB07010CFB0EF7B0EB07408D
:1010200072EB17420CFB08F734BFA2EB0742B2EB9E
:10103000074261EB17414FEA0C444FEA910706FB68
:1010400007FC4FEA1C4C0CFB0BF7B0EBC74072EBF4
:10105000573203FB0CF734BFA2EBC742B2EBC742D7
:1010600061EB57310CFB0EF7B0EBC70072EB577218
:101070000CFB08F734BFA2EBC702B2EBC70261EB6F
:101080005771039F4FEA816141EA921104EBCC044E
:101090004FEAD1374FEA826206FB07FC42EA901220
:1010A0004FEA80604FEA1C4C0CFB0BF7D21B03FB92
:1010B0000CF761EB07010CFB0EF7B0EB074072EB8E
:1010C00017420CFB08F734BFA2EB0742B2EB074212
:1010D00061EB17414FEA8C554FEA910704EB9C24D2
:1010E00006FB07FC4FEA1C4C0CFB0BF7B0EBC740B0
:1010F00072EB573203FB0CF734BFA2EBC742B2EBE3
:10110000C74261EB57310CFB0EF7B0EBC70072EB37
:1011100057720CFB08F734BFA2EBC702B2EBC70251
:1011200061EB577115EB4C254FEA816141EA921151
:101130004FEA82624FEAD13742EA901206FB07FC7F
:1011400044F100044FEA80604FEA1C4C0CFB0BF7A3
:10115000D21B03FB0CF761EB07010CFB0EF7B0EBA6
:10116000074072EB17420CFB08F734BFA2EB0742B3
:10117000B2EB074261EB174115EB1C154FEA8131C9
:1011800041EA92414FEA823242EA90424FEA80308D
:101190004FEA0C7644F1000448EA03434EEA0B4858
:1011A0004FF0000EB2EB080C71EB030724BF624650
:1011B00039464EEB0E0E4FF0000B001852414941DC
:1011C0004BEB0B0BB2EB080C71EB03077BF1000B45
:1011D00024BF624639464EEB0E0E4FF0000B00184E
:1011E000524149414BEB0B0BB2EB080C71EB03077F
:1011F0007BF1000B24BF624639464EEB0E0E51EADE
:10120000020718BF46F0010616EB0E7655F10002F4
:1012100054F1000103D5BDE88901BDE80088BDE8AF
:101220008901BDE80048B619524141EB0101A3F123
:101230000103704780807F7E7D7C7B7A797877762A
:1012400076757473727171706F6E6E6D6C6C6B6AA3
:101250006A69686867666665646463636261616041
:10126000605F5F5E5E5D5D5C5C5B5B5A5A595958BE
:101270005857575656555555545453535252525128
:10128000515050504F4F4F4E4E4D4D4D4C4C4C4B7E
:101290004B4B4A4A4A4949494848484747474746C5
:1012A0004646454545444444444343434342424201
:1012B00042414141002B9C4630D477002BD01CB5D5
:1012C0004FEA370703B44FF010004FF01001BAF1A6
:1012D000000F06D0BCF1000FDCBF40F0080040F06A
:1012E00008014FF000000FBCBDE810400BF1010BEE
:1012F000BBF1010F08BF5FEA170722BF12F101021D
:1013000011F101014FF0004143F1000300F00040F2
:1013100043EA00007047F9D35708D0E746EA06468B
:1013200013F1400F4FEA16461FDD13F1200FDFBF08
:1013300016430A46002120335B42BED0C3F120078A
:1013400046EA064602FA07F74FEA164646EA070655
:10135000C3F1200722FA03F201FA07F721FA03F199
:101360004FF0000342EA0702A7E746EA020646EA10
:1013700006464FEA164646EA0106BCBF46EA06465E
:10138000360C4FF000034FF000024FF0000194E7DD
:101390002DE9804C9A46934670B491E8380007C80E
:1013A00031EA400C48BF34EA430C03D5FFF7E6FDB1
:1013B000FFF780FFF0BCBDE8008C2DE9804C9A4619
:1013C000934670B491E8380007C810F0804F08BF0A
:1013D00013F0804F03D100F005F8FFF76BFFF0BC6E
:1013E000BDE8008C20F07F4780EA030023F07F4CAB
:1013F00007EB0C03A3F57C5300F00040A3F1FE03C0
:1014000092F0000F00F0B38095F0000F00F07780AD
:101410002DE901494FEA11404FEA144621EA0048FC
:1014200000FB06FC24EA064708FB06F607FB08F863
:1014300000FB07F718EB06484CEB164C4FEA124B33
:1014400018EB07484FEA15464CEB174022EA0B4EC3
:101450000BFB06FC25EA06470EFB06F607FB0EFE15
:101460000BFB07F71EEB064E4CEB164C4FF000063D
:101470001EEB074E4CEB174B18EB0B0840F100002E
:1014800018EB0E0B58EB000840F100008F1A4FF0DC
:1014900000013CBFC943661B14BFB5EB040C00211F
:1014A0003CBFC943F61B4FEA17444EEA8E0E27EAAB
:1014B00004454FEA1C4704FB07622CEA074C05FB76
:1014C00007F70CFB05F604FB0CFC16EB074642EB9A
:1014D000174216EB0C4642EB1C421BEB060658EB80
:1014E0000202414146EA9E0601D5BDE80189B619CE
:1014F000524141EB0101A3F10103BDE801894FEA2B
:1015000014454FEA114724EA054621EA074C05FB3A
:1015100007F406FB07F70CFB06F105FB0CFC11EBCF
:10152000074144EB17444FEA124711EB0C4144EBDF
:101530001C4422EA074C05FB07F206FB07F70CFBED
:1015400006F605FB0CFC16EB074642EB174216EBC2
:101550000C4642EB1C456A1854F1000148BF704725
:10156000B619524141EB0101A3F10103704795F017
:10157000000F37D04FEA11424FEA144721EA0246E2
:1015800024EA074C02FB07F106FB07F70CFB06F405
:1015900002FB0CFC14EB074441EB17414FEA1547E3
:1015A00014EB0C4441EB1C4125EA074C02FB07F508
:1015B00006FB07F70CFB06F602FB0CFC16EB0746D6
:1015C00045EB174516EB0C4645EB1C42121951F141
:1015D000000148BF7047B619524141EB0101A3F128
:1015E000010370474FEA14454FEA114724EA0546C4
:1015F00021EA074C05FB07F106FB07F70CFB06F297
:101600004FF0000605FB0CFC12EB074241EB1741C3
:1016100012EB0C4251EB1C4148BF7047921841EB52
:101620000101A3F10103704700BFFEE7704706E028
:10163000002101E04A1CD1B24829FBDB401E0028F2
:10164000F6DC70472DE9F041202000F05BF900281E
:101650006FD08448006800286BD1202000F04CF93E
:10166000022001F07FF940427F490860042001F028
:1016700079F97E4908607E4A7E497F4804F0E8F89F
:101680007E4A7F497F4800F03DFC7F4A7F49804881
:1016900000F010FC7F480078032818D102F034F9DC
:1016A0007D480088462803DC7C487D4908600EE0C0
:1016B00079480088642807DD77480088C82803DC5B
:1016C00078487749086002E0002075490860714851
:1016D0000078022802D101F0A1FE77E06D48007881
:1016E000012873D17048007828B97048007810B983
:1016F00000206B4908606C480078012802D16C48D2
:101700006749086069480078012802D1694864493E
:10171000086069496248006806F076FB01D26648B5
:101720000AE066495E48006806F06EFA02D2634835
:1017300002E094E05A48006859490860604800781F
:1017400028B96048007810B900205F4908605C48FB
:101750000078012806D15D495B48006806F090FBDF
:101760005949086057480078012806D1574956481A
:10177000006806F07DF854490860554952480068F1
:1017800006F042FB01D2524809E052494E48006837
:1017900006F03AFA01D24F4801E04B4800684A4946
:1017A00008604748007830B94648007818B94A4878
:1017B0004A4908600AE042480078012803D04148BD
:1017C0000078012802D100204449086034480068AC
:1017D00006F0B2F905462548026823480168284604
:1017E00002F0D2F83E4908602648B0F9000006F041
:1017F000DFF906463A48006806F0DAF90746394844
:101800000168384606F034F8054632461948016842
:10181000284602F035F9344908602B48006806F084
:101820008BF9054629461548B0F9000001F058FE2D
:101830002E4908602C48046808460068201A2C4984
:1018400008602A48006820442A490860284800F0B7
:10185000A5FA284801682648006800F0C5FABDE8E6
:10186000F081000014812142180000201C0000209B
:1018700008000020040000200000002010000020CC
:101880000E0000200C000020160000201400002094
:1018900012000020690000206A050020000020419D
:1018A00070000020000020C16505002066050020B2
:1018B0000000C8C10000C8410000F0410000F0C1B4
:1018C00067050020680500207400002000004842E1
:1018D0000000C8420000C8C2333333BF8800002074
:1018E000940000206C000020900000209800002050
:1018F000280000202C0000200149086070470000EB
:1019000014040140014600200022074B1B6803EA33
:101910000102054B14331B680B4013B10AB10120BF
:1019200000E000207047000000040140002123492E
:101930008279002A3AD00A46126803689A430B4615
:101940001A600A1D126803689A430B1D1A60027917
:1019500011440A6803681A430A60184A0832126878
:1019600003689A43154B08331A601A1D12680368FE
:101970009A43124B0C331A604279102A0ED11A1F67
:10198000126803681A430D4B08331A601A1D126857
:1019900003681A43094B0C331A600DE0074942797A
:1019A00011440A6803681A430A6005E00279114489
:1019B0000A6803689A430A60704700000004014007
:1019C00000B587B00121042000F042FF0121084644
:1019D00000F01EFF04208DF81B000320ADF8180056
:1019E00006A91C4800F0AEF803A801F0EDFC0020A9
:1019F000ADF81200ADF80E004FF6FF70ADF8100014
:101A00000020ADF80C0003A94FF0804001F08AFCE3
:101A100000231A4603214FF0804001F011FB684675
:101A200001F09AFB0A20ADF808006946400701F072
:101A30003DFB01221146900701F097FB00214FF07A
:101A4000804001F041FC0121880701F0E9F907B06D
:101A500000BD00000008014000B587B0012108204A
:101A600000F0F6FE0121042000F0D2FE04208DF8E3
:101A70001B00C020ADF8180006A91C4800F062F851
:101A800003A801F0A1FC0020ADF81200ADF80E0093
:101A90004FF6FF70ADF810000020ADF80C0003A960
:101AA000134801F03FFC00231A460321104801F0BF
:101AB000C7FA684601F050FB0A20ADF808006946F5
:101AC0000B4801F0F3FA0121094801F0A3F90122C2
:101AD0001146074801F049FB0021054801F0F4FBDD
:101AE0000121034801F09CF907B000BD000C014042
:101AF000000800400146002901DD0A4600E04A4294
:101B00001046704730B500228B071C0F0F2303FAD5
:101B100004F20B4B8C1053F824309343084C8D1077
:101B200044F8253023468C1053F824308C07240FBA
:101B300000FA04F42343024C8D1044F8253030BDE4
:101B4000080001402DE9F041024600250026002052
:101B500000230024002791F803C00CF00F0591F832
:101B600003C00CF0100CBCF1000F03D091F802C0C0
:101B70004CEA050591F800C0BCF1000F31D01468A3
:101B800000202BE04FF0010C0CFA00F3B1F800C07C
:101B90000CEA03069E4220D183004FF00F0C0CFA92
:101BA00003F7BC4305FA03FC4CEA040491F803C0B4
:101BB000BCF1280F06D14FF0010C0CFA00FCC2F862
:101BC00014C00AE091F803C0BCF1480F05D14FF0F2
:101BD000010C0CFA00FCC2F810C0401C0828D1D33C
:101BE0001460B1F800C0BCF1FF0F34DD5468002070
:101BF0002EE000F1080C4FF0010808FA0CF3B1F8E0
:101C000000C00CEA03069E4221D183004FF00F0C66
:101C10000CFA03F7BC4305FA03FC4CEA040491F800
:101C200003C0BCF1280F05D100F1080C08FA0CF82C
:101C3000C2F8148091F803C0BCF1480F07D100F13D
:101C4000080C4FF0010808FA0CF8C2F81080401C8C
:101C50000828CED35460BDE8F0810000F0B50A46F4
:101C6000002300240021002500F00046B6F1004FBB
:101C700002D11D4EF16901E01B4E7168C0F30345AE
:101C800083B200F44016B6F5401F08D121F0706110
:101C9000154E766826F07066134F7E6012E000F4F1
:101CA0008016B6F5801F06D1032606FA05F4A14377
:101CB00041F0706106E0460D360103FA06F6B143C5
:101CC00041F0706122B1460D360103FA06F6314348
:101CD00000F00046B6F1004F02D1034EF16101E081
:101CE000014E7160F0BD000000000140024600207E
:101CF00093680B400BB1012000E000207047416168
:101D000070470161704700BFFEE7000010B5202159
:101D10000748FFF7F6FF80210548FFF7F2FF802113
:101D20000348FFF7ECFF20210148FFF7E8FF10BD53
:101D30000008014010B520210548FFF7E2FF80218F
:101D40000348FFF7DCFF80210148FFF7DAFF10BDF1
:101D50000008014010B520210348FFF7D2FF2021E1
:101D60000148FFF7CCFF10BD0008014008B5012174
:101D7000042000F06DFD01210648FFF76FFF5C2095
:101D8000ADF8000048208DF8030069460248FFF7CF
:101D9000D9FE08BD0002300000080140104B026867
:101DA0001B689A4202DD0E4A126802600D4B0268FF
:101DB0001B689A4202DA0B4A12680260084B0A68F2
:101DC0001B689A4202DD064A12680A60054B0A68DF
:101DD0001B689A4202DA034A12680A6070470000E0
:101DE000200000202400002070B505460C46002D80
:101DF00007DD01201849086000201849C1F8BC011E
:101E000006E000201449086001201449C1F8BC0113
:101E10002846FFF76FFE86B23146114801F04FFAAF
:101E2000002C08DD01200C49091F086000200B4927
:101E3000C1F8B00107E000200749091F0860012030
:101E40000649C1F8B0012046FFF754FE86B231467C
:101E5000034801F036FA70BDB8812142008021426A
:101E6000002C01400EB50121092000F0F1FC4820B2
:101E70008DF803002020ADF8000003208DF802004B
:101E800069460B48FFF75EFE05210120FFF73AFE89
:101E90002020019001208DF80A0000208DF8080014
:101EA0000C208DF8090001A8FFF740FD0EBD0000D1
:101EB000000C01402DE9FC4104460D4616466B46D8
:101EC00006223B21682000F0EBF90746BFB99DF8D8
:101ED00001009DF8001040EA012000B220809DF82A
:101EE00003009DF8021040EA012000B228809DF80E
:101EF00005009DF8041040EA012000B23080384609
:101F0000BDE8FC812DE9FC4104460D4616466B46B2
:101F100006224321682000F0C3F90746BFB99DF8A7
:101F200001009DF8001040EA012000B220809DF8D9
:101F300003009DF8021040EA012000B228809DF8BD
:101F400005009DF8041040EA012000B230803846B8
:101F5000BDE8FC8110B500200E4908600E480068FD
:101F600020F470400C4908600846006840F4405076
:101F7000086000200949C1F88C0100F011F8012027
:101F80000449086000F00CF800200449C1F89001F1
:101F900010BD000090812142000C014000802142D0
:101FA00010B5022002F056FA10BD000008B501215C
:101FB000092000F04DFC01210848FFF74FFE1820D2
:101FC000ADF8000010208DF8030003208DF802000A
:101FD00069460348FFF7B6FD08BD00000002300067
:101FE000000C014010B500200E4908600E48006842
:101FF00020F470400C4908600846006840F44050E6
:10200000086001200949C1F88C01FFF7C9FF0120D0
:1020100004490860FFF7C4FF00200449C1F890019B
:1020200010BD000090812142000C0140008021423F
:1020300070B5054600241648006820F47040144925
:1020400008600846006840F400400860002614E07C
:10205000002010490860FFF7A3FF01200E49C1F8D6
:1020600090016006040E0B488438006808B1601CBB
:10207000C4B2FFF795FF701CC6B2082EE8DB15B995
:10208000FFF7B0FF01E0FFF765FF204670BD0000DD
:10209000000C0140908121420080214270B504462D
:1020A0001248006820F47040104908600846006833
:1020B00040F44050086000200D490860002512E0FF
:1020C000E0090B49091F08606006040E0120094958
:1020D000C1F89001FFF764FF002005490860FFF791
:1020E0005FFF681CC5B2082DEADB70BD000C014023
:1020F000908121420080214210B50E48006820F4F2
:1021000070400C4908600846006840F44050086080
:102110000120094908600949C1F89001FFF740FF13
:10212000002005490860FFF73BFF00200349C1F884
:10213000900110BD000C01408C81214200802142A1
:1021400010B50E48006820F470400C49086008463D
:10215000006840F4405008600020094908600949BF
:10216000C1F88C01FFF71CFF0120054908600549F3
:10217000C1F88C01FFF714FF10BD0000000C0140F6
:10218000908121420080214210B50024144800684B
:1021900020F47040124908600846006840F400408E
:1021A000086001200F490860FFF7FAFE01200E4980
:1021B000C1F89001FFF7F4FE07E0601CC4B2FA2CEE
:1021C00003DDFFF7BDFF012010BD06488038006821
:1021D0000028F2D10349091D086000BFF4E70000A0
:1021E000000C01408C8121420080214210B5FFF794
:1021F000DDFE80216B2000F0D7F8642002F004F9A6
:1022000000216B2000F0D0F8032000F08BF80020B4
:1022100000F080F8C82000F0AAF80021382000F073
:10222000C3F800216A2000F0BFF80021232000F04D
:10223000BBF88021372000F0B7F8752000F013F8C4
:102240000446682C0BD101216B2000F0ADF8002171
:102250006C2000F0A9F8642000F089F801E001206A
:1022600010BD0020FCE770B50446FFF745FFD02005
:10227000FFF714FFFFF788FF2046FFF70FFFFFF778
:1022800083FFFFF739FFD120FFF708FFFFF77CFF3F
:102290000020FFF7CDFE0546FFF752FF284670BD30
:1022A0002DE9F04106460F4614461D46FFF724FF70
:1022B000002141EA4601C8B2FFF7F0FEFFF764FFD4
:1022C00020B1FFF73DFF0120BDE8F0813846FFF760
:1022D000E5FEFFF759FFFFF70FFF012101EB460174
:1022E000C8B2FFF7DBFEFFF74FFF0DE0012C04D172
:1022F0000020FFF79DFE287003E00120FFF798FE05
:102300002870601EC4B26D1C002CEFD1FFF718FFBF
:102310000020D9E710B50446E006010E1C2000F0AD
:1023200043F810BD10B50446E006010E1B2000F076
:102330003BF810BD70B504460025BC2C01DB01251F
:1023400010E0622C01DB02250CE02A2C01DB0325C6
:1023500008E0142C01DB042504E00A2C01DB052530
:1023600000E0062529461A2000F01EF870BD70B561
:102370000446B4F57A7F01DD4FF47A74042C00DA58
:1023800004244FF47A7090FBF4F0401EC5B2294645
:10239000192000F009F80546264604EBD671C1F372
:1023A0004F00FFF7C7FF70BD70B505460C46FFF73D
:1023B000A3FED020FFF772FEFFF7E6FE18B1FFF78D
:1023C000BFFE012070BD2846FFF768FEFFF7DCFE68
:1023D0002046FFF763FEFFF7D7FE18B1FFF7B0FE08
:1023E0000120EFE7FFF7ACFE0020EBE72DE9F0411D
:1023F00005460E4617469846FFF77EFE002141EA45
:102400004501C8B2FFF74AFEFFF7BEFE20B1FFF755
:1024100097FE0120BDE8F0813046FFF73FFEFFF751
:10242000B3FE00240CE018F80400FFF737FEFFF7B6
:10243000ABFE18B1FFF784FE0120EBE7601CC4B2CD
:10244000BC42F0DBFFF77CFE0020E3E700BFFEE7C5
:1024500008B50121082000F0FBF910208DF80300D9
:102460004FF47040ADF8000003208DF8020069467B
:102470000148FFF767FB08BD000C0140704708B535
:102480004FF4A06000F064F817208DF800000120E0
:102490008DF8030000208DF801008DF802006846D9
:1024A00000F01EF825208DF8000001208DF80300B3
:1024B00002208DF801008DF80200684600F010F847
:1024C00027208DF8000001208DF8030002208DF8F0
:1024D00001008DF80200684600F002F808BD000017
:1024E00070B5002100230F22C47804B3154C246872
:1024F00004F4E064C4F5E064210AC1F10403CA40B5
:10250000447804FA03F184781440214309010E4C05
:102510000678A155047804F01F050124AC40057825
:102520006D11AD0005F1E025C5F8004109E0047822
:1025300004F01F050124AC40044D0678761145F8DF
:10254000264070BD0CED00E000E400E080E100E01A
:1025500002490143024A1160704700000000FA0579
:102560000CED00E070B5002418E004F1B00000218B
:1025700000F0EAF80021084600F0E6F800211020FB
:1025800000F0E2F8002505E00121002000F0DCF871
:10259000681CC5B2802DF7DB601CC4B2082CE4DBDC
:1025A00070BD000008B50121042000F051F9A02001
:1025B000ADF8000010208DF8030003208DF8020014
:1025C00069463C48FFF7BEFAA0213A48FFF799FB5D
:1025D0004FF4487001F018FF0021AE2000F0B4F86D
:1025E0000021084600F0B0F80021102000F0ACF8FF
:1025F0000021402000F0A8F80021B02000F0A4F84D
:102600000021812000F0A0F80021FF2000F09CF8BC
:102610000021A12000F098F80021A62000F094F8F5
:102620000021A82000F090F800213F2000F08CF855
:102630000021C82000F088F80021D32000F084F8A1
:102640000021084600F080F80021D52000F07CF839
:102650000021802000F078F80021D82000F074F8E4
:102660000021052000F070F80021D92000F06CF85E
:102670000021F12000F068F80021DA2000F064F871
:102680000021122000F060F80021DB2000F05CF84F
:102690000021302000F058F800218D2000F054F87F
:1026A0000021142000F050F80021AF2000F04CF879
:1026B00008BD00000008014070B504460D4605F154
:1026C000B000002100F040F8102141EA1410002170
:1026D00000F03AF804F00F00002100F035F870BD6A
:1026E0002DE9F04180460E4615460027314640460A
:1026F000FFF7E2FF00240AE0124A02EB8511085DB1
:10270000012100F021F8781CC7B2601CC4B2102C63
:10271000F2DB701CC1B24046FFF7CEFF00240CE094
:102720006900491C074A02EB4111085D012100F0D4
:102730000BF8781CC7B2601CC4B2102CF0DBBDE8EB
:10274000F0810000E500002070B504460D461DB183
:10275000E0B201F0FFF902E0E0B201F0E5F970BD8E
:1027600030B589B004460D46012140F6050000F061
:102770006FF818208DF823004FF41060ADF820009A
:1027800003208DF8220008A91E48FFF7DBF905A8F1
:1027900000F01AFE0020ADF81A00ADF81600ADF8F2
:1027A0001850ADF8144005A9174800F0BBFD602093
:1027B000ADF804000020ADF80C000120ADF80600D3
:1027C0000020ADF80A0001A90F4800F0D7FC01A9CC
:1027D0000D4800F029FD01210B4800F02DFB0821D8
:1027E000094800F017FD0821074800F05BFD0121B2
:1027F000054800F003FB0121034800F011FB09B07C
:1028000030BD000000080140002C0140704700006E
:1028100029B1064AD2690243044BDA6104E0034A53
:10282000D2698243014BDA61704700000010024018
:1028300029B1064A12690243044B1A6104E0034AB3
:1028400012698243014B1A61704700000010024078
:1028500029B1064A92690243044B9A6104E0034A93
:1028600092698243014B9A61704700000010024058
:1028700029B1064AD2680243044BDA6004E0034AF5
:10288000D2688243014BDA607047000000100240BA
:1028900030B500210022002400232D4D6D6805F085
:1028A0000C0121B1042905D0082923D105E0294DC7
:1028B000056022E0274D05601FE0254D6D6805F499
:1028C0007012234D6D6805F48034022505EB9242A9
:1028D0001CB9214D554305600BE01D4D6D6805F495
:1028E00000351DB11C4D5543056002E0194D55439F
:1028F000056002E0174D056000BF00BF144D6D6814
:1029000005F0F0010909154D6B5C0568DD40456077
:102910000F4D6D6805F4E061090A104D6B5C456868
:10292000DD4085600A4D6D6805F46051C90A0B4DA4
:102930006B5C4568DD40C560054D6D6805F4404140
:10294000890B074D6B5CC568B5FBF3F5056130BDC0
:102950000010024000127A0000093D0052000020E1
:102960006200002070B50546022D02D0042D14D15E
:102970000AE04FF0804000F084FB04B200214FF0E9
:10298000804000F0A1FC0AE0064800F07AFB04B2A7
:102990000021044800F098FC01E0002400BF00BFC3
:1029A000204670BD00080040704710B500F002F8E6
:1029B00010BD00000CB50020019000903348006865
:1029C00040F480303149086000BF3048006800F4AE
:1029D000003000900198401C0190009818B90198AF
:1029E000B0F5A06FF1D12948006800F4003010B1B3
:1029F0000120009001E0002000900098012843D1C0
:102A00002348006840F0100021490860084600682B
:102A100020F0030008600846006840F002000860EB
:102A20001A484068194948600846406848600846A6
:102A3000406840F4806048600846406820F47C109C
:102A400048600846406840F4E8104860084600685E
:102A500040F08070086000BF0C48006800F0007013
:102A60000028F9D00948406820F003000749486071
:102A70000846406840F00200486000BF03484068D4
:102A800000F00C000828F9D10CBD00000010024035
:102A900000200240042808D14FF0E021096941F0EC
:102AA00004014FF0E022116107E04FF0E0210969D5
:102AB00021F004014FF0E0221161704770470000DF
:102AC00010B51348006840F001001149086008463D
:102AD0004068104908400E494860084600680E49A1
:102AE00008400B4908600846006820F48020086010
:102AF0000846406820F4FE0048604FF41F008860DC
:102B0000FFF753FF4FF000600449086010BD00005C
:102B1000001002400000FFF8FFFFF6FE08ED00E0A5
:102B2000F0B50C46154600220021068C4FF6FE77C4
:102B30003E400684028B018C4FF60C7632407E1CA0
:102B400006EA03162E433243104EB0420ED0104E0A
:102B5000B0420BD0B0F1804F08D00E4EB04205D03D
:102B60000D4EB04202D00D4EB04206D14FF6FD766A
:102B7000314044F00106314305E04FF6F57631402F
:102B800044F00106314302830184F0BD002C014072
:102B9000003401400004004000080040000C0040E8
:102BA000F0B50C461546002200210026078C4FF692
:102BB000EF7C07EA0C070784028B018C4FF6FF7746
:102BC00007EA041640F6FF473A404FF6FF7707EA58
:102BD00003373A434FF6FF7707EA05273A43114F89
:102BE000B8420ED0104FB8420BD0B0F1804F08D091
:102BF0000E4FB84205D00E4FB84202D00D4FB8422A
:102C000006D14FF6DF77394046F01007394305E02B
:102C10004FF65F77394044F010073943028301844F
:102C2000F0BD0000002C01400034014000040040D1
:102C300000080040000C0040F0B50C46154600228C
:102C400000210026078C4FF6FF6C07EA0C0707846B
:102C5000828B018C4FF6FF7707EA04264FF60C773C
:102C60003A404FF6FF7707EA03172F433A43114FD5
:102C7000B8420ED0104FB8420BD0B0F1804F08D000
:102C80000E4FB84205D00E4FB84202D00D4FB84299
:102C900006D14FF6FF57394046F48077394305E0B7
:102CA0004FF2FF57394044F48077394382830184DF
:102CB000F0BD0000002C0140003401400004004041
:102CC00000080040000C0040F0B50C4615460022FC
:102CD00000210026078C4EF6FF7C07EA0C070784CC
:102CE000828B018C4FF6FF7707EA043640F6FF47E8
:102CF0003A404FF6FF7707EA05273A434FF6FF774A
:102D000007EA03373A43114FB8420ED0104FB8428A
:102D10000BD0B0F1804F08D00E4FB84205D00E4F07
:102D2000B84202D00D4FB84206D14DF6FF77394078
:102D300046F48057394305E047F6FF57394044F4DD
:102D40008057394382830184F0BD0000002C01408C
:102D5000003401400004004000080040000C004026
:102D600010B50121880700F08FF918B101218807FB
:102D700000F053F810BD00000EB501210220FFF74E
:102D800047FD0C4800F068F84FF6FF70ADF80400FE
:102D900040F26710ADF800000020ADF80600ADF875
:102DA00002006946034800F0BDFA0121014800F025
:102DB00031F80EBD0004004008B54FF48060FFF705
:102DC000C7FB1D208DF8000000208DF801008DF854
:102DD000020001208DF803006846FFF781FB08BD63
:102DE00010B50121044800F04FF918B10121024843
:102DF00000F013F810BD00000008004021B1028867
:102E000042F08002028004E002884FF67F731A408D
:102E100002807047CA4302827047CA4302827047E9
:102E200021B1028842F00102028004E002884FF6DC
:102E3000FE731A400280704731B1B0F8442042F46A
:102E40000042A0F8442005E0B0F84420C2F30E028E
:102E5000A0F844207047000010B50446684884423A
:102E600008D10121C014FFF703FD0021E014FFF792
:102E7000FFFCC4E0B4F1804F08D101210846FFF700
:102E8000D7FC00210120FFF7D3FCB8E05D48844265
:102E900008D101210220FFF7CBFC00210220FFF71F
:102EA000C7FCACE05848844208D101210420FFF758
:102EB000BFFC00210420FFF7BBFCA0E05348844284
:102EC00008D101210820FFF7B3FC00210820FFF7FB
:102ED000AFFC94E04E48844208D101211020FFF756
:102EE000A7FC00211020FFF7A3FC88E0494884429A
:102EF00008D101212020FFF79BFC00212020FFF7B3
:102F000097FC7CE04448844208D101214014FFF73B
:102F1000AFFC00216014FFF7ABFC70E03F48844237
:102F200009D10121C804FFF7A3FC00214FF40020C0
:102F3000FFF79EFC63E03A48844209D1012108056D
:102F4000FFF796FC00214FF48010FFF791FC56E04C
:102F50003448844209D101214805FFF789FC00214A
:102F60004FF40010FFF784FC49E02F48844208D159
:102F700001214020FFF75CFC00214020FFF758FCB6
:102F80003DE02A48844208D101218020FFF750FC0F
:102F900000218020FFF74CFC31E02548844208D115
:102FA00001218015FFF744FC0021A015FFF740FC2C
:102FB00025E02048844209D101210804FFF758FC8C
:102FC00000214FF48030FFF753FC18E01A48844288
:102FD00009D101214804FFF74BFC00214FF40030D8
:102FE000FFF746FC0BE01548844208D10121880414
:102FF000FFF73EFC00214FF48020FFF739FC10BDA5
:10300000002C01400004004000080040000C00407B
:10301000001000400014004000340140004C01400A
:10302000005001400054014000180040001C0040C6
:1030300000200040004001400044014000480140A1
:10304000F0B50C4615461E460021002200230189DA
:10305000028B038C4FF6F877394021434FF6FC473B
:103060003A4040F201173A434FF6DD773B404FF6C6
:10307000FF7707EA06172F433B430181028303844E
:10308000F0BD0146888C704730B502460020002311
:103090000024158A05EA0103958905EA010413B1A4
:1030A0000CB1012000E0002030BD000070B50546E5
:1030B0000C46244885420ED0234885420BD0B5F1FA
:1030C000804F08D02148854205D02148854202D052
:1030D0002048854200D100E000BF208850B92389F4
:1030E000A28861882846FFF71BFDE188284600F08A
:1030F000EDF825E0208804280AD12389A288618878
:103100002846FFF74DFDE188284600F0E8F817E073
:10311000208808280AD12389A28861882846FFF7D9
:103120008BFDE188284600F0E7F809E02389A288B2
:1031300061882846FFF7C8FDE188284600F0E5F8D9
:1031400070BD0000002C014000340140000400402C
:1031500000080040000C0040002101804180012156
:1031600081800021C180018170471AB183890B439E
:10317000838102E083898B438381704770B500248B
:1031800000220023058C4FF6FE7635400584028C24
:103190008388048B4FF68F752C40B51E2C400D880C
:1031A0002C43751E2A400D892A434D882A43144D0D
:1031B000A8420BD0134DA84208D0134DA84205D009
:1031C000124DA84202D0124DA84213D14FF6F77506
:1031D0002A404D892A434FF6FB752A408D882A43A1
:1031E0004FF6FF652B404FF6FF552B408D892B4343
:1031F000CD892B4383800483CD888586028470BD6E
:10320000002C0140003401400040014000440140D6
:10321000004801400A460021018B4FF6F773194020
:10322000114301837047000070B500220023002481
:10323000058C4EF6FF7635400584038C8488828B9E
:1032400048F6FF752A404FF6FF452A400D884FF695
:10325000FF7606EA05252A434DF6FF752B400D89BA
:1032600006EA05352B434D8806EA05352B430B4D01
:10327000A84202D00A4DA84208D14BF6FF752C4057
:103280008D894FF6FF7606EA85152C43848082836C
:10329000CD88A0F84050038470BD0000002C014090
:1032A000003401400A460021818B4FF2FF73194020
:1032B0004FF6FF7303EA0223194381837047818627
:1032C0007047A0F84010704781847047028B4FF61A
:1032D000F3731A400283028B0A4302837047028B06
:1032E0004FF2FF331A400283028B4FF6FF7303EA5B
:1032F00001231A4302837047828B4FF6F3731A40FF
:103300008283828B0A4382837047828B4FF2FF3322
:103310001A408283828B4FF6FF7303EA01231A431C
:1033200082837047002202881D4B98420ED01D4BAD
:1033300098420BD0B0F1804F08D01B4B984205D07B
:103340001A4B984202D01A4B984204D14FF68F7311
:103350001A404B881A43174B984207D0164B984295
:1033600004D04FF6FF431A40CB881A4302808B8863
:1033700083850B8803850A4B98420BD0094B9842F2
:1033800008D00E4B984205D00D4B984202D00D4B01
:10339000984201D10B7A0386012383827047000093
:1033A000002C0140003401400004004000080040AF
:1033B000000C00400010004000140040004001409C
:1033C00000440140004801404FF6FF718180002118
:1033D0000180C180418001727047000008B5012161
:1033E0000820FFF735FA01210420FFF731FA022007
:1033F000ADF8000028208DF8030069460548FEF767
:10340000A1FB4020ADF8000069460348FEF79AFB97
:1034100008BD0000000C01400008014010B540212B
:103420002648FEF763FC58B902212548FEF75EFCEA
:1034300030B92448244908602448254908603BE005
:1034400040211E48FEF752FC78B902211C48FEF7C5
:103450004DFC012809D100201B4908601D481E4968
:1034600008601A481A49086026E040211348FEF710
:103470003DFC01280ED102211148FEF737FC48B966
:103480000020114908601548134908600F48104989
:10349000086011E040210948FEF728FC01280BD103
:1034A00002210748FEF722FC012805D105480649FC
:1034B000086006480649086010BD00000008014089
:1034C000000C0140333333BF88000020000070C17E
:1034D000700000200000F0C1740000200000F041E6
:1034E0002DE9F04705460C46204604F061FB824674
:1034F0000C480168504604F0BBFB8046284604F0A7
:1035000057FB824608480168504604F0B1FB8146EB
:10351000414604F0ADF9074604F00EFB064630467E
:10352000BDE8F0878C0000208800002010B540F234
:1035300025511D4800F004F910B31B4800F0BCF9F8
:10354000C4B21A48008800F40040C8B9174800887F
:1035500000F4804060B10A2C03D000201349088099
:1035600020E01248008840F400401049088019E02B
:103570000D2C06D10D48008840F480400B4908808E
:1035800010E00A480088C0F30D0009490C540748B0
:103590000088401C0549088008460088C72801DDCE
:1035A0000020088010BD00000038014050000020BD
:1035B0006C05002010B540F22551554800F0C0F8C8
:1035C00000280ED0524800F077F904465A2C09D151
:1035D00000205049087050490870504908705049FF
:1035E000087094E0412C0AD101204A49087000205B
:1035F00049490870494908704949087087E0452CD5
:103600000BD1002043490870012043490870002075
:10361000424908704249087079E0432C0BD10020E0
:103620003C4908703C49087001203C490870002062
:103630003B4908706BE0472C0AD1002035490870DF
:1036400035490870354908700120354908705EE039
:103650004C2C19D1012033490870FEF783FF00225A
:1036600003210F20FFF73CF8012203212A20FFF756
:1036700037F8062203214520FFF732F807220321FD
:103680006020FFF72DF842E04D2C19D1022025498A
:103690000870FEF767FF022203210F20FFF720F8D2
:1036A000032211462A20FFF71BF80622032145209A
:1036B000FFF716F8072203216020FFF711F826E034
:1036C0004E2C19D1032017490870FEF74BFF042236
:1036D00003210F20FFF704F8052203212A20FEF71B
:1036E000FFFF062203214520FEF7FAFF07220321F0
:1036F0006020FEF7F5FF0AE0002006490870064941
:10370000087006490870064908700649087010BD1F
:103710000048004065050020660500206705002080
:10372000680500206900002021B1828942F400521E
:10373000828104E082894DF6FF731A4082817047CE
:1037400070B50246002400230025002040F66A16CA
:10375000B14200D100BFC1F3421501F01F030126A1
:1037600006FA03F3012D02D19689334006E0022DBB
:1037700002D1168A334001E0968A33400C120126AA
:1037800006FA04F41688344013B10CB1012000E0AD
:10379000002070BDF0B5034600240026002500205F
:1037A00040F66A17B94200D100BF1846C1F342146F
:1037B00001F01F06012707FA06F5012C01D10C3094
:1037C00004E0022C01D1103000E014301AB1076877
:1037D0002F43076002E00768AF430760F0BD0000B9
:1037E0002DE9F04786B005460E460024A24600BFEC
:1037F000A1460027B08900B100BF2F462C8A4CF6A5
:10380000FF700440F08804432C82AC894EF6F3101C
:103810000440B08831890843718908430443AC816E
:10382000AC8A4FF6FF400440B0890443AC8201A843
:10383000FFF72EF81F48874202D1DDF810A001E003
:10384000DDF80CA0A88900F4004040B10AEBCA00E2
:1038500000EB0A1031684900B0FBF1F807E00AEB11
:10386000CA0000EB0A1031688900B0FBF1F864204F
:10387000B8FBF0F004012009642101FB1089A8893C
:1038800000F4004040B1322000EBC900B0FBF1F081
:1038900000F00700044308E0322000EB0910642127
:1038A000B0FBF1F000F00F0004432C8106B0BDE83E
:1038B000F08700000038014001468888C0F3080006
:1038C0007047000008B501210820FEF7C1FF4FF442
:1038D0008070ADF8000010208DF8030003208DF8F3
:1038E000020069460748FEF72DF94FF40070ADF865
:1038F000000048208DF8030069460248FEF722F9CF
:1039000008BD0000000C014010B54FF480711A484A
:10391000FEF7F7F91420FDF78AFE4FF48071164880
:10392000FEF7EDF900BF4FF400711348FEF7DEF922
:103930000028F8D001211148FFF772FA00BF4FF4B8
:1039400000710D48FEF7D2F90028F8D100210B488C
:10395000FFF766FA0948FFF794FB00EB800000EBE5
:1039600000104000C82190FBF1F0054908800021BB
:103970000248FFF7A9FC10BD000C01400004004004
:103980006A05002000BFFEE72DE9F84F04460D460A
:103990001646324FA819001B3149086031480068AB
:1039A00004F006F98346394604F062F981462C4852
:1039B000006804F0FDF8834639464FF07E5004F06D
:1039C0005FFA5946009004F053F98246494603F0E5
:1039D0004FFF804604F0B0F82349086008460068AD
:1039E00020490860214800681F49096808441F49A8
:1039F00008600846006842F21071884201DD0846FE
:103A000008E01A4800681A49884201DA084601E0CD
:103A100016480068154908600846006804F0C8F8B0
:103A2000834614480168584604F022F981460E483E
:103A3000006804F0BDF883460F480168584604F05A
:103A400017F98246494603F013FF804604F074F8E4
:103A50000A49086008460068BDE8F88F3333333FF1
:103A6000A8000020A0000020AC0000209C00002046
:103A7000F0D8FFFF8400002080000020A400002078
:103A80002DE9F05F05460E4614460021204604F05D
:103A9000F7F983460D480168584604F0E9F8814675
:103AA0003146284604F0E1F9834609480168584642
:103AB00004F0DEF88246494603F0DAFE804604F060
:103AC0003BF807463846BDE8F09F00007C00002028
:103AD000780000202DE9F04105462C4620211148B0
:103AE000FEF70DF9002619E0274607F08007802F22
:103AF00004D180210B48FEF704F903E08021094836
:103B0000FEF7FDF86006040E20210648FEF7F9F8DE
:103B100020210448FEF7F3F8701CC6B2082EE3DB40
:103B2000BDE8F0810008014010B50446FEF7EEF84C
:103B30007820FFF7CFFFFEF70DF90020FFF7CAFF4F
:103B4000FEF708F92046FFF7C5FFFEF703F9FEF779
:103B5000F1F810BD10B50446FEF7D8F87820FFF74D
:103B6000B9FFFEF7F7F84020FFF7B4FFFEF7F2F8D1
:103B70002046FFF7AFFFFEF7EDF8FEF7DBF810BDCC
:103B8000490050EAC12018BF04204A0D18BF40F078
:103B9000010040F2FF72B2EB515F08BF40F002003B
:103BA000012808BF052070472DE9F0414F1E00EBAA
:103BB000C7010446D1E9000115461E4637F006024A
:103BC0000DD02A46334603F04DFB7F1E04EBC7039E
:103BD000D3E9002303F0F6F837F00602F1D1022F03
:103BE00025D0042F13D0062F18BFBDE8F0812A4638
:103BF000334603F037FBD4E90A2303F0E3F82A46FF
:103C0000334603F02FFBD4E9082303F0DBF82A4600
:103C1000334603F027FBD4E9062303F0D3F82A4602
:103C2000334603F01FFBD4E9042303F0CBF82A4604
:103C3000334603F017FBD4E9022303F0C3F82A4606
:103C4000334603F00FFBD4E90023BDE8F04103F055
:103C5000B9B8012204F0BDB903F0B4B8002213468C
:103C60001046114603F06AB9024A0020110704F019
:103C7000B0B9000001FDFFFF30380A2801D2012051
:103C8000704700207047014600BF70472DE9FE4F86
:103C900006460F460025684601F0EAF9002442E096
:103CA00056F8240057F82410A0EB010ABAF1000FCF
:103CB00001DB514601E0CAF10001084603F078FF3C
:103CC00083464FF08F4103F041FE80465DF82400AB
:103CD000002103F0FDFE16D05DF82410404603F0ED
:103CE00035FE82464FF07E5104F0CAF8814629F035
:103CF000004A0F48416A504604F086F812D201206B
:103D0000A04005430EE00A48C169404603F07CFF2D
:103D100005D30748016A404604F076F802D2012034
:103D2000A0400543641C032CBADB2846BDE8FE8F87
:103D3000888000082DE9F04D8D4F21F0004A86B0B3
:103D400005460C46BA452ADBAAEB070028430AD0F1
:103D50008848824501DC1AD1CDB106B02846BDE8BD
:103D6000F04DFFF776BF844A844B284603F07AFA79
:103D700007460E46824A834B2846214603F072FAD4
:103D800006B03A463346BDE8F04D03F01BB80120BB
:103D9000FCF72AFC06B0BDE8F04DFFF75FBF7A489C
:103DA000824542DABAF1795F0BDA2846FFF7E8FE7E
:103DB000042808BFFFF758FF284606B02146BDE893
:103DC000F08D2A460B46104603F04CFA8346024615
:103DD0006E480E460B4606217844FFF7E5FE5A462C
:103DE000334603F03FFA804669488A465A463346CE
:103DF00004217844FFF7D8FE5A46334603F032FADE
:103E000000223B4602F0DEFF02460B46404651468A
:103E100003F094F82A46234603F024FA06B02A4613
:103E20002346BDE8F04D02F0CDBF284624F0004106
:103E300000223D463B4603F013FB4FF0FF3204F0F7
:103E4000C8F80646024653480F460B4606217844FA
:103E5000FFF7AAFE32463B4603F004FACDE9000123
:103E60004D4832463B4604217844FFF79DFE3246DA
:103E70003B4603F0F7F900222B4602F0A3FF8346EE
:103E800002913046394602F099FE804643480D467D
:103E9000504517DCDDE900015A46029B03F04EF85D
:103EA00042462B4603F0DEF942462B4602F08AFFDB
:103EB000012204F08EF8304A304B03F0C3FB304A45
:103EC000304B4CE04FF0000A52460B46404602F0A1
:103ED00079FFCDE9031052462B461046194603F0F0
:103EE000C1F932463B4603F0BBFADDE9033203F089
:103EF00025F806460F46DDE900015A46029B03F00D
:103F00001DF88346009101223046394604F061F8DD
:103F1000194A1A4B03F0A4FA06460F4601224046FE
:103F2000294604F056F85A46009B03F09BF93246A6
:103F30003B4603F087FB06460F46012250462946C2
:103F400004F047F80E4DDFF858802A46434603F048
:103F500087FA32463B4603F083FA2A46434603F08B
:103F60007FFA002CD8BF81F0004106B0BDE8F08D8B
:103F70000000F03F0000F07F075C143326A6913C60
:103F8000182D4454FB21F93F0000E03FDC4E0000B7
:103F9000F24E0000664E00007C4E00003333EF3FCF
:103FA000FB21E93F2DE9F84F04460D4621F0004082
:103FB00000917349814211DC7249884201DC06D1CB
:103FC0002CB120462946BDE8F84FFFF742BE6E48A7
:103FD000002DCCBF6D496E49BDE8F88F6D49814217
:103FE00011DD6D498142D8BF4FF0FF366DDD2046AF
:103FF0002946FFF7C5FD042808BFFFF735FE204618
:104000002946BDE8F88F6549654F25F00045814296
:1040100033DD6449814219DD002632464FF080438A
:104020002046294602F0CEFE80468A4601222046DE
:10403000294603F0CEFF00223B4603F003FB424635
:10404000534602F07BFF04460D463EE00126002267
:10405000BA463B462046294602F0B4FE80460F464B
:10406000002253462046294603F0ECFA42463B46DE
:1040700002F064FF04460D4627E04B4981421BDDF8
:10408000DFF828A10226002253462046294603F0E5
:10409000E9F800223B4602F095FE80460F460022DA
:1040A00053462046294603F0CDFA42463B4602F0ED
:1040B00045FF04460D4608E0032622462B46002015
:1040C0003B4902F03BFF04460D4622462B46104674
:1040D000194603F0C7F88B46824602460B4603F0AA
:1040E000C1F807460246334888460B460621784405
:1040F000FFF75AFD52465B4603F0B4F882462E485D
:104100008B463A46434605217844FFF74DFD3A4633
:10411000434603F0A7F802460B46002E5046594688
:104120000CDA02F04FFE22462B4603F09BF801B05A
:1041300022462B46BDE8F04F03F092B902F042FE52
:1041400022462B4603F08EF81C4A7A4402EBC60343
:10415000D3E9002303F076FA22462B4603F072FAE5
:10416000174A7A4402EBC603D3E9002303F078F937
:10417000009A002AB8BF81F00041BDE8F88F000026
:10418000000010440000F07F182D4454FB21F93F3B
:10419000FB21F9BF0000DC3F0000203E0000F33FA0
:1041A0000000F03F0000E63F008003400000F83FC1
:1041B0000000F0BF7E4C00003C4C0000DA4B0000D9
:1041C000A24B00002DE9F04D9446CCF1000423F001
:1041D00000464CEA0404594F46EAD4749A4688468D
:1041E00021F00042BC4206D8454240EA050442EABA
:1041F000D474BC4204D9BDE8F04D6246FFF72CBD33
:10420000AAF14055A5F17F6555EA0C040BD00224B4
:1042100004EAAA744A4DDFF82CE144EAD87452EA61
:10422000000B04D00CE0BDE8F04DFFF7BBBE002C46
:1042300014BF012CBDE8F08D022C30D0032C32D0FD
:1042400056EA0C0B0AD0BE4220D1BA4209D126F060
:10425000804622F080423346114617E000291ADBDF
:1042600025E0DFF8E4B0FB44002C04BFDBE90001EB
:10427000BDE8F08D012C02BFDBE9000181F00041B7
:10428000BDE8F08D022C0AD0032C0CD0BA4212D11A
:10429000B8F1000F0BDA2A482C49BDE8F08D28460A
:1042A0002B49BDE8F08D28467146BDE8F08D2448C5
:1042B0002849BDE8F08D921B12153C2AC4BF204F3F
:1042C000244E10DCBAF1000FBEBF12F13C0F0027E4
:1042D0003E4608DB624602F031FE21F00041FFF766
:1042E00061FE07460E4694B1012C08BF86F00046D9
:1042F0000DD0194A194B022C3846314615D003F01F
:10430000A1F92A46BDE8F04D114B03F09BB90022FC
:1043100013463846314602F069FF04BF0220FCF71D
:1043200063F938463146BDE8F08D03F08BF92A4633
:10433000BDE8F04D064B03F093B800000000F07F9D
:10434000182D4454FB2109C0364B0000FB21F9BF56
:10435000FB210940FB21F93F075C143326A6A13C51
:104360002DE9F0410446E07800F0C006E07800F066
:104370003F05607800F0010098B1EF102846E9177A
:1043800005EB5171C910A5EBC101491C01F0FF08F3
:104390000B48006820B10A484146026838469047F9
:1043A00000BF607800F0080030B10548406818B1DF
:1043B000B011034A516888470020BDE8F081000031
:1043C0003406002010B56FF00400FEF763FB0A48C6
:1043D00000680A49B0FBF1F0094908700846007806
:1043E00000EB4001C1EBC0104FF6FF7101EAC000C5
:1043F0000449088010BD00003400002000127A003B
:10440000480000204A0000200146114A12884A4311
:104410004FF0E0235A6100229A611A46126942F075
:1044200001021A6100BF4FF0E022106900F00102A2
:104430001AB100F48032002AF5D04FF0E022126960
:1044400022F001024FF0E0231A6100229A617047C6
:104450004A0000200146114A12784A434FF0E023F7
:104460005A6100229A611A46126942F001021A61E9
:1044700000BF4FF0E022106900F001021AB100F411
:104480008032002AF5D04FF0E022126922F00102BA
:104490004FF0E0231A6100229A6170474800002023
:1044A00038B5044664B120208DF8000028208DF82E
:1044B000010030208DF8020038208DF8030004E060
:1044C000A32204216846FCF707F86A46042140F657
:1044D0009E2002F06DFA01F057FE38BD3EB504464D
:1044E00002208DF80000CA208DF80100E3208DF82D
:1044F000020009208DF803006A460421682002F0BA
:1045000057FAA3208DF8000004F0400048B1C02005
:104510008DF80100C8208DF80200C2208DF803003C
:1045200006E0A3208DF801008DF802008DF803004D
:1045300004F4C07048B1C4208DF80400CC208DF87C
:104540000500C6208DF8060006E0A3208DF80400C3
:104550008DF805008DF80600A3208DF807008DF872
:1045600008008DF809006A460A2140F6A72002F0EB
:104570001FFA04F0030018B120208DF8000002E0BB
:10458000D8208DF800006A46012140F6B62002F0DE
:104590000FFA04F0200018B1012000F0ADF802E09D
:1045A000002000F0A9F804F4C07008B304F480708F
:1045B00060B1B2208DF800008B208DF80100B6208C
:1045C0008DF802009B208DF803000BE0B0208DF8E1
:1045D000000080208DF80100B4208DF802009020AA
:1045E0008DF803006A46042140F6A22002F0E0F9AB
:1045F00004F0010020B3F8208DF800006A46012184
:104600004FF40B6002F0D4F9FA21072000F02CFCE3
:10461000072000F0F3FB012000F013FC642000F001
:10462000F3FC4FF4FA7000F002FDC821304800F0AE
:10463000A3FB282000F0BCFB0A2000F0CCFB08E024
:10464000D8208DF800006A4601214FF40B6002F07B
:10465000AFF904F0020018B1D9208DF8000002E093
:10466000D8208DF800006A46012140F23D7002F02A
:104670009FF904F0040018B1012000F069F802E08D
:10468000002000F065F804F0100018B10120FFF7D9
:1046900007FF02E00020FFF703FF44F00800154980
:1046A000488101F071FD00201249887304F0400038
:1046B00018B10846807B801D887304F4C07020B157
:1046C0000C48807B801D0B49887304F0140020B1D6
:1046D0000848807B10300749887304F0030020B13C
:1046E0000448807B001D0349887300203EBD000004
:1046F00009E3CA02340600203EB504466CB10EA19F
:10470000D1E900208968CDE9002002916A4609219B
:104710004FF4976002F04CF93EBD0AA2D2E90010B6
:104720009268CDE9010200916A4609214FF4976031
:1047300002F03EF9F0E70000B8AAB38DB4980D3549
:104740005D000000B8AAAAAAB088C3C5C7000000CF
:1047500038B5044664B1C0208DF80000C2208DF841
:104760000100C4208DF80200C6208DF8030004E08B
:104770008B2204216846FBF7AFFE6A46042140F60F
:10478000982002F015F901F0FFFC38BD10B5C823E0
:104790004FF48062024940F6F63001F089FB10BD0B
:1047A000B08000082DE9F04F8DB0074688461546C9
:1047B0009946DDE9166B0024002030806B49887B28
:1047C0005A4605A901F040FC18B1601E0DB0BDE8C5
:1047D000F08F6648807A00F01400002867D09DF8BA
:1047E000140000069DF8151040EA01409DF81610CF
:1047F00040EA01209DF81710084328609DF8180032
:1048000000069DF8191040EA01409DF81A1040EA90
:1048100001209DF81B10084368609DF81C000006ED
:104820009DF81D1040EA01409DF81E1040EA01204D
:104830009DF81F100843A8609DF8200000069DF811
:10484000211040EA01409DF8221040EA01209DF825
:1048500023100843E86004F11000C4B22868001473
:104860000190686800140290A86800140390E8683A
:104870000014049001984043029901FB0100039940
:1048800001FB0100049901FB010ABAF1706F02DB20
:10489000BAF1885F05DD01F077FC00203080401E12
:1048A00094E7B6F9000040F48070308000BF2F48D4
:1048B000807A00F0400020B305A9601C085C095D07
:1048C00040EA012000B2A8F8000005A9E01C095C3C
:1048D00005AAA01C105C41EA002000B2A8F8020062
:1048E00005A9601D095C201D105C41EA002000B292
:1048F000A8F80400A01DC4B2B6F9000040F00800FA
:1049000030801A48408900F4C07008B305A9601CC3
:10491000085C095D40EA012000B2388005A9E01C6E
:10492000095C05AAA01C105C41EA002000B2788056
:1049300005A9601D095C201D105C41EA002000B241
:10494000B880A01DC4B2B6F9000040F070003080FD
:104950000648807A00F0030018B105A90819FFF78E
:10496000FFFC484600F03AFF00202FE73406002005
:1049700070B588B0064601A801F0EEF8BDF8040055
:104980000021C90341EA5045C4034448007A00F0BD
:10499000030056F8200005904048007A00F004001B
:1049A00010B10598404205903C48007AC0F3C10020
:1049B00056F8200006903948007A00F0200010B127
:1049C0000698404206903548007AC0F3811056F8A8
:1049D000200007903148008900F4807010B10798DA
:1049E000404207900598C117A0FB042301FB043146
:1049F00000FB0510810041EA927005900698C117EE
:104A0000A0FB042301FB043100FB0510810041EAF7
:104A1000927006900798C117A0FB042301FB043194
:104A200000FB0510810041EA927007900598000E86
:104A30008DF808000598000C8DF809000598000A0B
:104A40008DF80A000598C0B28DF80B000698000E8C
:104A50008DF80C000698000C8DF80D000698000AE1
:104A60008DF80E000698C0B28DF80F000798000E62
:104A70008DF810000798000C8DF811000798000AB7
:104A80008DF812000798C0B28DF8130002AA0C210D
:104A90004FF4257001F08CFF08B070BD3406002083
:104AA00030B585B0044616A207CA02AB07C3C82CAE
:104AB00003DD4FF0FF3005B030BDC82090FBF4F0AF
:104AC000401E85B2280A8DF80000E8B28DF801007A
:104AD0006A46022140F2162001F06AFF10B14FF041
:104AE000FF30E8E702AA0C2140F6C12001F060FF88
:104AF00010B14FF0FF30DEE7044884810020DAE790
:104B0000FEF2ABC4AAF1DFDFBBAFDFDF340600206B
:104B10001FB504464848007A00F0030054F820000E
:104B200001904548007A00F0040010B1019840421D
:104B300001904148007AC0F3C10054F8200002906F
:104B40003D48007A00F0200010B1029840420290E7
:104B50003948007AC0F3811054F820000390364899
:104B6000008900F4807010B10398404203903349EB
:104B7000019880FB0101800F40EA810001902F49DC
:104B8000029880FB0110820042EA917002902B494A
:104B9000039880FB0110820042EA91700390019813
:104BA000000E8DF800000198000C8DF801000198AE
:104BB000000A8DF802000198C0B28DF803006A4621
:104BC00004214FF4747001F0F3FE18B14FF0FF3080
:104BD00004B010BD0298000E8DF800000298000C81
:104BE0008DF801000298000A8DF802000298C0B208
:104BF0008DF803006A4604214FF4757001F0D8FE69
:104C000010B14FF0FF30E3E70398000E8DF800007D
:104C10000398000C8DF801000398000A8DF802003B
:104C20000398C0B28DF803006A4604214FF47670F1
:104C300001F0BEFECCE700003406002009E3CA0202
:104C400010B586B0044647A00068039046A00068EF
:104C5000029046A00068019045A00068009004F012
:104C6000030003A9085C8DF8140003A8C4F3C10174
:104C7000405C8DF8150003A8C4F38111405C8DF8E9
:104C8000160004F0030002A9085C8DF8100002A8C9
:104C9000C4F3C101405C8DF8110002A8C4F3811176
:104CA000405C8DF8120005AA032140F2264001F075
:104CB0007FFE18B14FF0FF3006B010BD04AA0321EB
:104CC00040F22A4001F074FE10B14FF0FF30F3E7DC
:104CD000019805900098049004F0040058B19DF8E4
:104CE000140040F001008DF814009DF8100040F011
:104CF00001008DF8100004F0200058B19DF8150057
:104D000040F001008DF815009DF8110040F0010001
:104D10008DF8110004F4807058B19DF8160040F031
:104D200001008DF816009DF8120040F001008DF88A
:104D3000120005AA03214FF4886001F039FE10B17A
:104D40004FF0FF30B8E704AA032140F2314001F0F0
:104D50002FFE10B14FF0FF30AEE70648048100206F
:104D6000AAE700004CCD6C000CC92C00365676002A
:104D70002646660034060020F8B505460E464FF478
:104D80007A7095FBF0F000FB06F4200E8DF8000021
:104D9000200C8DF80100200A8DF80200E0B28DF899
:104DA00003006A4604214FF4AE7001F001FEF8BD25
:104DB00038B50446052094FBF0F084B220128DF83B
:104DC0000000E0B28DF801006A4602214FF4AD7098
:104DD00001F0EEFD38BD38B50446052094FBF0F037
:104DE00084B220128DF80000E0B28DF801006A460E
:104DF00002214FF4AC7001F0DBFD38BD38B504463C
:104E00000020009004F0010020B19DF8000040F067
:104E10003000009004F0020020B19DF8000040F046
:104E20000C00009004F0040020B19DF8000040F058
:104E3000030000906A4601214FF4A47001F0B8FD10
:104E400038BD38B50446012C01DA012402E0042CF7
:104E500000DD0424601EC0B200906A46012140F2C9
:104E60004F1001F0A5FD38BD2DE9FC4706460F4661
:104E700006F0070010B1B7F5C86F03DD4FF0FF3043
:104E8000BDE8FC87384602F0ABFE8146594902F086
:104E90005DFD8046684600F039FE9DF8000002285E
:104EA00006D0042816D0082826D0102848D135E08E
:104EB0004FF08D41404602F0DBFE814602F058FE85
:104EC00084B24D49404602F0D3FE814602F050FEC6
:104ED00085B238E04FF08C41404602F0C9FE814671
:104EE00002F046FE84B24549404602F0C1FE8146CA
:104EF00002F03EFE85B226E04FF08B41404602F0C4
:104F0000B7FE814602F034FE84B23D49404602F0CD
:104F1000AFFE814602F02CFE85B214E04FF08A41CC
:104F2000404602F0A5FE814602F022FE84B23549D9
:104F3000404602F09DFE814602F01AFE85B202E074
:104F40004FF0FF309CE700BF20128DF80400E0B264
:104F50008DF8050028128DF80600E8B28DF80700DC
:104F600006F00100A0B101AA02214FF4EA7001F09D
:104F70001FFD10B14FF0FF3082E70DF10602022154
:104F80004FF4927001F014FD10B14FF0FF3077E74D
:104F900006F00200A0B101AA02214FF4EC7001F06A
:104FA00007FD10B14FF0FF306AE70DF10602022154
:104FB0004FF4947001F0FCFC10B14FF0FF305FE74C
:104FC00006F00400A0B101AA02214FF4EE7001F036
:104FD000EFFC10B14FF0FF3052E70DF10602022155
:104FE0004FF4967001F0E4FC10B14FF0FF3047E74A
:104FF000002045E700004843000040460000C0454F
:10500000000040450000C04438B50446052094FB2C
:10501000F0F085B228128DF80000E8B28DF801009A
:105020006A4602214FF4EF7001F0C2FC38BD38B57A
:105030000446052094FBF0F085B228128DF800009C
:10504000E8B28DF801006A4602214FF4ED7001F0DC
:10505000AFFC38BD00BF054A128802F04002002AAA
:10506000F9D0C2B2014B1B1D1A80704700380140B5
:105070007CB5054628494968087801AB04220D2112
:10508000FDF70EF908B107207CBD9DF80700C0F3BD
:1050900001109DF8041001F0E00140EAE1008DF8F4
:1050A00000009DF80700C0F381009DF8051001F095
:1050B000E00140EAE1008DF801009DF8070000F0F2
:1050C00003009DF8061001F0E00140EAE1008DF8D0
:1050D000020000241CE01DF8040018B9002045F867
:1050E000240013E00D4845F8240006E055F824009C
:1050F0000B4902F0BDFD45F824001DF80400401ED8
:10510000C0B20DF804000028F0D100BF601CC4B28A
:10511000032CE0DB0020B7E7B00000207B14AE3E9C
:105120001D5A843F2DE9F04F87B005460C46914645
:1051300001208DF8100000208DF81100FE4A126841
:10514000917CFD4A5268107804AB0222FDF74EF9BB
:1051500020B14FF0FF3007B0BDE8F08FC820FFF757
:1051600053F900208DF81000F34A1268D17BF24AFF
:105170005268107804AB0122FDF738F910B14FF0F6
:10518000FF30E8E7EC4A12685179EB4A5268107830
:1051900004AB0122FDF72AF910B14FF0FF30DAE736
:1051A000E54A1268917CE44A5268107804AB012207
:1051B000FDF71CF910B14FF0FF30CCE7DE4A126862
:1051C000D17DDD4A5268107804AB0122FDF70EF95B
:1051D00010B14FF0FF30BEE7D74A12681179D64AB6
:1051E0005268107804AB0122FDF700F910B14FF0BE
:1051F000FF30B0E70C208DF81000CF4A126811790B
:10520000CD4A5268107804AB0122FDF7EFF810B1D7
:105210004FF0FF309FE70F20FFF7F6F8C648806A8F
:10522000407A8DF81000C44A12689178C24A5268D8
:10523000107804AB0122FDF7D9F810B14FF0FF3020
:1052400089E7BD48806A007A8DF81000BA4A126872
:105250005178B94A5268107804AB0122FDF7C6F8BC
:1052600010B14FF0FF3076E7B9F1000F07D0B24828
:10527000806A807A40F0E0008DF8100004E0AE48CB
:10528000806A807A8DF81000AB4A12689179AA4A38
:105290005268107804AB0122FDF7A8F810B14FF066
:1052A000FF3058E7B9F1000F07D0A348806AC07AF1
:1052B00040F0E0008DF8100003E0A048C07A8DF8BF
:1052C00010009D4A1268D1799B4A5268107804AB4D
:1052D0000122FDF78BF810B14FF0FF303BE7B9F139
:1052E000000F02D0C820FFF78FF840208DF8100083
:1052F000914A12681179904A5268107804AB0122E1
:10530000FDF774F810B14FF0FF3024E778208DF8E6
:105310001000894A12685179874A5268107804ABA4
:105320000122FDF763F810B14FF0FF3013E7834916
:105330008889FFF769F800208DF810007E4A12680E
:1053400051797D4A5268107804AB0122FDF74EF87E
:1053500010B14FF0FF30FEE6774A1268917A764A34
:105360005268107804AB0222FCF79AFF10B14FF09C
:10537000FF30F0E69DF811009DF8101040EA012B77
:105380000C209BFBF0F0C6B20020A860686028608B
:10539000A06060602060824665E0674A1268D17A4A
:1053A000654A5268107804AB0C22FCF779FF10B103
:1053B0004FF0FF30CFE69DF811009DF8101040EA45
:1053C000012000B2ADF808009DF813009DF81210FE
:1053D00040EA012000B2ADF80A009DF815009DF8E2
:1053E000141040EA012000B2ADF80C00BDF908101D
:1053F000206808442060BDF90A10606808446060B5
:10540000BDF90C10A0680844A0609DF817009DF835
:10541000161040EA012000B2ADF800009DF8190016
:105420009DF8181040EA012000B2ADF802009DF886
:105430001B009DF81A1040EA012000B2ADF80400EC
:10544000BDF90010286808442860BDF9021068689A
:1054500008446860BDF90410A8680844A8600AF10F
:10546000010000F0FF0AB24597DB3448D0F800C0D5
:105470002868C117090441EA104107046246002365
:105480003846FAF7F4FE32460023CDE90201FAF776
:10549000EEFE28602948D0F800C06868C1170904EA
:1054A00041EA10410704624600233846FAF7DFFE5E
:1054B00032460023CDE90201FAF7D9FE68601F48A1
:1054C000D0F800C0A868C117090441EA10410704D8
:1054D000624600233846FAF7CAFE32460023CDE979
:1054E0000201FAF7C4FEA8601448D0F804C020688E
:1054F000C117090441EA10410704624600233846F7
:10550000FAF7B5FE32460023CDE90201FAF7AFFE05
:1055100020600A48D0F804C06068C117090441EA55
:1055200010410704624600233846FAF7A0FE3246CF
:105530000023CDE9020103E0B000002088800008CC
:10554000FAF795FE60601148D0F804C0A068C11752
:10555000090441EA10410704624600233846FAF77D
:1055600086FE32460023CDE90201FAF780FEA060F4
:10557000A068002804DDA068A0F58030A06003E0EA
:10558000A06800F58030A0600020E4E58880000875
:105590002DE9FC5F06460F4600253D49496808781D
:1055A00001AB03220D21FCF77BFE10B10720BDE803
:1055B000FC9F9DF8040000F01F008DF804009DF88A
:1055C000050000F01F008DF805009DF8060000F0B2
:1055D0001F008DF80600002456E056F8240057F806
:1055E0002410A0EB010BBBF1000F01DB594601E0D9
:1055F000CBF10001084602F0DBFA4FF08F4100903A
:1056000002F0A4F9814601A8005D68B32149086849
:1056100002F0E6FA834659461F4802F097F98046A1
:1056200004E01E49404602F023FB804601A8005DCD
:10563000401EC0B201A908550028F2D14146484693
:1056400002F084F983464FF07E5102F019FC824645
:105650002AF0004B0F488169584602F0D5FB12D260
:105660000120A04005430EE00A480169484602F0C7
:10567000CBFA05D307484169484602F0C5FB02D280
:105680000120A0400543641C032CA6DB28468EE7BE
:10569000B00000208880000800B04C4554E3853FEE
:1056A00010B50446204600F00FF80346E01C00F059
:1056B0000BF843EAC00083B2A01D00F005F843EAEE
:1056C000801083B2184610BD014691F90020002ACF
:1056D00001DD00201EE091F90020002A01DA0420FB
:1056E00018E091F90120002A01DD012012E091F972
:1056F0000120002A01DA05200CE091F90220002A9D
:1057000001DD022006E091F90220002A01DA0620DC
:1057100000E00720704700001FB5FEF753FEFCF7BE
:10572000AEFE4FF4E13001F0B5FA4FF4E13001F094
:105730006BFAFCF737FFFCF715FFFCF717FBFCF7DC
:1057400055FD00F097F9FCF78DFBFCF739F9FCF7F4
:1057500083F9FCF77DFE41F61F410020FDF700F8BC
:10576000FDF73CFEFDF728FBFDF706FBFEF7AAF868
:1057700001F05EF919E00D48006802F04DF80446AA
:105780000D460B48006802F047F806460F460948E8
:10579000006802F041F8804642460B4606A0CDE97B
:1057A0000067CDE90245FAF787FDE4E7080000202D
:1057B00004000020000000200D0A70697463683A3C
:1057C000252E662020726F6C6C3A252E662020797B
:1057D00061773A252E660D0A000000007047000030
:1057E00070B50446002624F00104184890F82400FF
:1057F00008B1002070BD1548807A10B94FF0FF3015
:10580000F8E71248057C807A204010490874084661
:10581000007CA04202D04FF0FF3600E0002614B911
:105820000A48007D18B1012001F080F902E0002053
:1058300001F07CF93CB100F0A7FC20B103480574ED
:105840004FF0FF30D6E73046D4E70000B00000202C
:105850002DE9F04F99B004460D4616464FF07E579D
:105860004FF000084FF000094FF0000A12A813A9EA
:1058700018AB0EAACDE9001014A916A8FEF792FFE6
:1058800018B1012019B0BDE8F08FBDF84C0000F44C
:10589000807000287ED00E9802F08AF983464FF07F
:1058A0009D4102F053F807460F9802F081F98346B4
:1058B0004FF09D4102F04AF88046109802F078F9C6
:1058C00083464FF09D4102F041F88146119802F065
:1058D0006FF983464FF09D4102F038F88246394611
:1058E0004FF0804002F0C4F94946059002F0C0F93B
:1058F000414607904FF0404002F0BAF951460590FA
:1059000002F0B6F90690079901F0B2FF834601F064
:1059100083FFCDE90801FEF70DFA4FF06632544BD4
:10592000CDE90A0101F09EFCCDE90C0101F018FA65
:10593000206049464FF0804002F09AF949460290B3
:1059400002F096F9414604904FF0404002F090F981
:105950004146029002F08CF90390049902F090FA0B
:1059600083464FF07E5101F083FF059001F054FF14
:10597000CDE9080139464FF0804002F079F94146FF
:10598000039002F075F9494604904FF0804002F010
:105990006FF900E068E05146039002F069F9834630
:1059A000049901F065FF059001F036FFCDE906018D
:1059B000DDE90823FEF706FC4FF066322C4BCDE9FB
:1059C0000A0101F04FFCCDE90C0101F0C9F9286092
:1059D0005146504602F04CF949460490484602F0C0
:1059E00047F941460390404602F042F9394601909A
:1059F000384602F03DF90090019901F039FF02901C
:105A0000039902F03DFA8346049902F039FA0590B1
:105A100001F002FFCDE908015146384602F028F9AD
:105A200049460490404602F023F90390049901F09E
:105A30001FFF4FF08041059002F01AF9834601F0F4
:105A4000EBFECDE90601DDE90823FEF7BBFB4FF0D5
:105A50006632074BCDE90A0101F004FCCDE90C01E7
:105A600001F07EF9306001E002200BE7002009E739
:105A700066A64C4070B50024FCF798FA00F020F9B7
:105A800000283DD1782000F02BFFC4B20CB10120DA
:105A900070BD7820FFF7A4FEC4B20CB10220F7E776
:105AA000642000F0CFFEC4B20CB10320F0E7FEF793
:105AB0006DFEC4B20CB10420EAE71348FFF7F0FD15
:105AC0000546FFF7BDF8C4B20CB10520E0E740F28F
:105AD0007310FEF703FDC4B20CB10620D8E76420B2
