:020000040800F2
:1000000038080020A10100088522000867210008A7
:1000100081220008050C0008A1240008000000004F
:10002000000000000000000000000000B5220008F1
:10003000090C00080000000089220008B72200080F
:10004000BB010008BB010008BB010008BB010008A0
:10005000BB010008BB010008BB010008BB01000890
:10006000BB010008BB010008BB010008BB01000880
:10007000BB010008BB010008BB010008BB01000870
:10008000BB010008BB010008BB010008BB01000860
:1000900091240008BB010008BB010008BB01000857
:1000A000BB010008BB010008BB010008BB01000840
:1000B000BB010008BB010008BB010008BB01000830
:1000C000BB010008BB010008BB010008BB01000820
:1000D000BB010008BB010008BB010008BB01000810
:1000E000BB010008BB010008BB01000800F002F8DA
:1000F00000F047F80AA090E8000C82448344AAF17B
:100100000107DA4501D100F03CF8AFF2090EBAE878
:100110000F0013F0010F18BFFB1A43F0010318473B
:10012000A0240000C0240000103A24BF78C878C181
:10013000FAD8520724BF30C830C144BF04680C60ED
:10014000704700000023002400250026103A28BF35
:1001500078C1FBD8520728BF30C148BF0B60704739
:10016000732900F0E280002070471FB59DE803006E
:1001700000F01AFB00F00CF91FBD10B500F071F98A
:1001800010BD00F0D4F91146FFF7EFFF02F0B6F909
:1001900000F0D8FA03B4FFF7F0FF03BC00F096FCC0
:1001A0000948804709480047FEE7FEE7FEE7FEE70B
:1001B000FEE7FEE7FEE7FEE7FEE7FEE70448054947
:1001C000054A064B7047000025230008ED00000893
:1001D00038020020380800203804002038040020AD
:1001E0000FB4044910B503AA029800F0A3F810BC9C
:1001F0005DF814FB300100202DE9F0410E46044665
:10020000002020622046E168884730B3252805D0C9
:10021000D4E901219047206A401CF2E7E1682046BA
:1002200000278847050018D0A5F14100192802D8F9
:1002300020354FF400673246294620462760FFF7F5
:100240008FFF40B1012804D0F61D26F007060836BE
:10025000D8E7361DD6E72846DAE7206ABDE8F08100
:1002600070B50C460546012A05D02878800600D5D1
:10027000EA69002302E0012305E05B1C934202D2FD
:10028000E05C0028F9D1A869E618C01AA861286ABC
:10029000184428622846AFF3008004E0D5E9012124
:1002A00014F8010B9047B442F8D32846AFF300800E
:1002B00070BD4FF0000200B51346944696462039B3
:1002C00022BFA0E80C50A0E80C50B1F12001BFF40F
:1002D000F7AF090728BFA0E80C5048BF0CC05DF875
:1002E00004EB890028BF40F8042B08BF704748BFC3
:1002F00020F8022B11F0804F18BF00F8012B704737
:1003000070477047704710B5436913B1AFF3008071
:1003100001E0FFF7A5FF012010BD127800F12401D4
:100320000A7000224A700122EDE711684FF0FF3297
:10033000E9E70000074B70B50D467B4400F011F86B
:100340000446284600F020F810B14FF0FF3070BD91
:10035000204670BD9F21000001694A1C0261087897
:10036000704700B58FB0CDE90131002105910549F5
:100370007944CDE9031011466846FFF73DFF0FB001
:1003800000BD0000E5FFFFFF007B00F0800070472C
:1003900010B542485421FFF78CFF41485421FFF724
:1003A00088FF40485421FFF784FF3F493B483C4ABF
:1003B0003F4B08603D490A603A491960531C036588
:1003C000481C1065012008653B48344A39A178442F
:1003D00000F01CF920B9384878440A3800F0BBF91D
:1003E00037482F4A35A1784400F010F920B9344835
:1003F00078440A3800F0AFF932482A4A2FA17844ED
:1004000000F004F920B92F4878440A3800F0A3F925
:1004100040232248DC000021224600F0D4F820B11D
:1004200025487844543800F096F91D482246402368
:10043000002100F0C8F820B121487844543800F079
:100440008AF9184822461023002100F0BCF8002841
:1004500006D01C487844BDE81040563800F07BB9FF
:1004600010BD104870B5006D20F001040B4800F07D
:1004700043F90B4800F040F90A4800F03DF909E063
:10048000206D20F00105204600F036F9204600F0EE
:1004900073F82C46002CF3D170BD0000DC00002066
:1004A00030010020840100202400002028000020CA
:1004B0002C00002072000000E22100007700000004
:1004C000CE210000BA2100000EB5CDE9000100F0F8
:1004D000DDFA029069460120ABBE0EBD08B5694643
:1004E00000900220ABBE08BD1FB58DE8070069462D
:1004F0000520ABBE04B010BD1FB58DE80F006946E6
:100500000620ABBEF6E708B5694600900920ABBEF1
:1005100008BD1CB5CDE9000169460A20ABBE1CBD73
:10052000704708B5694600900C20ABBE08BD754603
:1005300000F018F9AE4605006946534620F0070062
:10054000854618B020B5FFF739FEBDE820404FF0D2
:1005500000064FF000074FF000084FF0000B21F0AD
:100560000701AC46ACE8C009ACE8C009ACE8C0097A
:10057000ACE8C0098D46704770B50446051F00F011
:10058000F7F80068002C14BF446870BD002C18BF39
:10059000AC423CBF20466468F8D301680A18AA42FE
:1005A00018BF456003D12A680546114401602868D8
:1005B0004119A1421CBF6C6070BD6168696021680F
:1005C0000844286070BD70B5C468A50713D06502E3
:1005D00011D4B2F5807F09D0B2F5007F06D0B2F514
:1005E000806F08D1012300F1240106E05D1E6FF049
:1005F0007F46B54201D3012070BD0161C3614160F6
:1006000024F470611143C160002070BD2DE9F041F8
:100610000C4607461646104600F06EF82078611C1E
:1006200061280AD0722802D077283CD102E0012547
:10063000002405E00225042402E0082448F2020513
:1006400011F8010B2B2806D0622809D011F8010CF3
:1006500074280AD00BE045F0030544F00204EFE7EC
:1006600045F0040544F00104EAE744F0100438467C
:100670002146FFF729FF411C15D00021316171602F
:100680004FF40071F560F1617061200704D53046C8
:100690000222002100F0E6F8306D40F001003065E4
:1006A0003046BDE8F0810020FBE72DE9F0410D4622
:1006B0000646104C206DC10704D0410804D020F03C
:1006C0000104F7E722460EE0542000F09CF80700F2
:1006D0000ED0206D47F001010843542120653846B3
:1006E000FFF7E7FD3A4629463046BDE8F0418DE781
:1006F0000020D6E7DC0000202DE9F04704464FF04B
:1007000000094FF0FF37C568D4E90486A80707D071
:10071000204600F057F93046FFF7E0FE002802DAE5
:100720003846BDE8F087280502D54046FFF724FF8C
:100730004C212046FFF7BDFD206D20F00100206513
:100740004846EEE710B50446AFF300802046BDE80A
:100750001040FFF71FBD10B500F07EF9BDE8104056
:1007600000F074B900487047D801002070470000BD
:1007700000487047E001002070477047704770479D
:1007800038B504460A4600206946AFF300800028C9
:1007900008BF38BD02460099204600F0A4F90120A8
:1007A00038BD012000F0F3B9F8B5AFF3008005467D
:1007B00000200C46102000BF0646A819A0420DD903
:1007C000324669460020AFF30080070008BF00F002
:1007D000DEF90098A04218BF0546C419FFF7C8FF0C
:1007E00005600746F01D20F007004619284600F076
:1007F00073F9B44208BFF8BDA21B31463868BDE8A2
:10080000F84000F070B970B50646FFF7B1FF056813
:1008100006F10B0020F00704B4429CBF002070BD1D
:100820002B466A68BAB11068A04210D304F10801DF
:1008300088423CBF5068586007D351681019416026
:100840001168091B016058601460101D70BD1346CB
:100850005268002AE7D121462846FFF791FF002879
:10086000DED170BD2DE9F041044616460D464769BC
:10087000007B80072ED03846FFF745FE50BB3EB3C5
:10088000012E02D0022E25D104E0204600F045F9C9
:1008900005441DE03846FFF744FEE168002841F0BA
:1008A0001001E16005DA204600F058F80120BDE8AB
:1008B000F081C9030BD56268E16A914200D8114604
:1008C000A26911442269891A814200DD0846054463
:1008D000002D01DA0220EAE7E16A6068E2688142FD
:1008E00006D29103E06203D522F4003141F01002F8
:1008F000A6690027AE4213DCE16A814201D90B46AA
:1009000000E0034603EB060C2369ACEB030CAC459B
:1009100006DD814201D98C4600E084469C4505D124
:10092000A760276042F02000A5620DE0AD1BE669DC
:10093000AE1B8142A66000D90846C01A281A206062
:100940005819606022F0200003490840E060002050
:1009500084F84870ABE70000BFCFD7FFC16821F42F
:10096000001141F08001C160002181600160704789
:100970002DE9F047814614460E464FF0FF383248C5
:10098000D5685769054209D03846A169FFF7C1FD0E
:10099000002811DB2C48C0430540E5602B46324659
:1009A00049463846FFF7A0FDA16920F00042B21A7F
:1009B00011440028A16103D02046FFF7CFFF404635
:1009C000BDE8F08770B504460569C06A6168884271
:1009D00000D80846E16821F42011E160C90312D56E
:1009E000A84208D02246411B2846FFF7C1FF10B19C
:1009F0004FF0FF3070BD0020E562C4E90150E068AF
:100A000020F48030E060002070BD10B50446C0685E
:100A100020F02000E060A16AA06988420DD0204645
:100A2000FFF7D0FFE06820F4405040F01000E06095
:100A3000A06AA0612069E062606044F24001E06861
:100A40008843E06010BD000010000200002801D0C3
:100A500000F03CB87047000010B5014602A000F05D
:100A60007DF8012010BD00005349475254524544BF
:100A70003A2052656469726563743A2063616E2737
:100A800074206F70656E3A200000000010B5431CA2
:100A900002E010F8011B71B18107FAD14FF0013269
:100AA00002C88C1A8C4314EAC211F9D0C01A0A0683
:100AB00003D0C01E10BDC01A10BD0A0401D0801E94
:100AC00010BD0902FCD0401E10BD000001491820D5
:100AD000ABBEFEE72600020000210160C0E9011064
:100AE000704710207047034640688C46002818BFA6
:100AF00088423CBF03464068F8D3186818448842CF
:100B000007D00CF1030020F00700001D411A521A13
:100B10000146081D0A60FFF72FBD10B50146C268E7
:100B2000900703D0900607D5886A0AE000F03EF8E7
:100B300001210160881E10BD8B69486818440B694B
:100B4000C01A91F848301BB191F84910401A10BDF5
:100B50001103FCD50028FADD401E10BD70B5054616
:100B60000C460A2000E06D1C00F018F835B128781A
:100B70000028F8D102E0641C00F010F814B12078CD
:100B80000028F8D1BDE870400A2000F007B810B581
:100B900000F010F8BDE81040FFF758BF08B56946EF
:100BA0008DF800000320ABBE08BD00000048704770
:100BB000D801002010B5012805D0002103A0FFF7BF
:100BC000CDFF012010BD09A1F8E7000053494752AD
:100BD000544D454D3A204F7574206F66206865610D
:100BE00070206D656D6F7279000000003A204865D5
:100BF0006170206D656D6F727920636F72727570B0
:100C00007465640000BFFEE7704772B600BFFEE780
:100C1000F0B504460D461E4694F82070206883689F
:100C2000A86800B900E000BF012F01D0022F7CD1DD
:100C300003F0806030B903F0006018B903F0805011
:100C4000002873D0C3F30161022905D9606A40F41A
:100C5000000060620120F0BD012088403060A8687B
:100C600060B9B5F800C0E86840EA4C5C206800F55F
:100C7000C07000EB0110C0F800C00FE0D5E901C062
:100C800040EACC00D5F80CC040EA0C00D4F800C013
:100C90000CF5C07C0CEB011CCCF80000D5F810C0A2
:100CA000206800F5C07000EB0110C0F804C0287D7A
:100CB00001280ED1206800F5C07000EB01104068DB
:100CC00040F4807C206800F5C07000EB0110C0F893
:100CD00004C0D079000692F806C040EA0C4092F8B1
:100CE00005C040EA0C2C10794CEA000C206800F595
:100CF000C07000EB0110C0F80CC0D078000692F86C
:100D000002C040EA0C4092F801C040EA0C2092F880
:100D100000C040EA0C00D4F800C00CF5C07C0CEB1D
:100D2000011CCCF80800206801E016E00FE000F597
:100D3000C07000EB0110006840F0010C206800F565
:100D4000C07000EB0110C0F800C0002083E7606AAB
:100D500040F40010606201207DE7606A40F480206A
:100D60006062012077E7000010B5044601A0FFF79C
:100D700037FA10BD0D0A43414EE587BAE994990D43
:100D80000A00000070B5044694F82050012D01D0EF
:100D9000022D7DD151B92068C06800F0030080B9F0
:100DA000606A40F400106062012070BD2068006934
:100DB00000F0030028B9606A40F40010606201206E
:100DC000F3E7206800F5D87000EB0110006800F030
:100DD00004009060906840B9206800F5D87000EB7E
:100DE00001100068400D106007E0206800F5D87021
:100DF00000EB01100068C0085060206800F5D87052
:100E000000EB0110006800F00200D060206800F5DF
:100E1000D87000EB0110406800F00F0010612068EE
:100E200000F5D87000EB0110406800F47F40000A24
:100E30009061206800F5D87000EB01104068000C4C
:100E40005061206800F5D87000EB011080681870C0
:100E5000206800F5D87000EB0110806800F47F4036
:100E6000000A5870206800F5D87000EB0110806807
:100E700000F47F00000C9870206800F5D87000EB3B
:100E800001108068000ED870206800F5D87000E06E
:100E90002FE000EB0110C0681871206800F5D870D1
:100EA00000EB0110C06800F47F40000A5871206810
:100EB00000F5D87000EB0110C06800F47F00000C52
:100EC0009871206800F5D87000EB0110C068000E22
:100ED000D87131B92068C06840F020002668F06001
:100EE00005E02068006940F020002668306100209D
:100EF0005BE7606A40F480206062012055E72DE9DD
:100F0000F05F04460025206846692068D0F8049008
:100F1000206887682068D0F80CA02068D0F810B04E
:100F20002068D0F8188006F00100002855D007F09E
:100F30000100C0B101202168886007F0020018B1EB
:100F4000204600F033FA0EE007F0040010B145F43B
:100F5000006508E007F0080010B145F4805502E094
:100F6000204600F022FA07F48070C8B14FF4807078
:100F70002168886007F4007018B1204600F018FA64
:100F80000EE007F4806010B145F4005508E007F466
:100F9000006010B145F4804502E0204600F007FAF9
:100FA00007F48030C8B14FF480302168886007F4BE
:100FB000003018B1204600F0FDF90EE007F4802063
:100FC00010B145F4004508E007F4002010B145F4E5
:100FD000803502E0204600F0ECF906F0080038B158
:100FE0000AF0100020B145F4007510202168C86097
:100FF00006F0040040B10AF0080028B1082021687A
:10100000C860204600F0A8F906F0020038B1206858
:10101000C06800F0030010B1204600F09FF906F010
:10102000400038B10BF0100020B145F4806510206D
:101030002168086106F0200040B10BF0080028B1DB
:10104000082021680861204600F0ACF906F0100085
:1010500038B12068006900F0030010B1204600F0AC
:10106000A2F906F4003040B109F0100028B11020B8
:1010700021684860204600F097F906F4803040B1BE
:1010800009F0080028B1082021684860204600F0D7
:1010900092F906F4004088B309F0040078B306F42E
:1010A000807020B108F0010008B145F0010506F498
:1010B000007020B108F0020008B145F0020506F406
:1010C000806020B108F0040008B145F0040506F482
:1010D0000060A0B108F0700088B108F070004028EE
:1010E00017D006DC10280BD020280CD0302819D1BE
:1010F0000CE0502810D0602814D110E01DE019E059
:1011000045F008050FE045F010050CE045F020051E
:1011100009E045F0400506E045F0800503E045F4B0
:10112000807500E000BF00BF2068806920F070007B
:10113000216888610420216848602DB1606A2843D5
:1011400060622046FFF710FEBDE8F09F70B50446D0
:101150000CB9012070BD94F8200010B9204600F0B1
:10116000AFF82068006840F001002168086000F0D6
:10117000B9FA05460DE000F0B5FA401B0A2808D977
:10118000606A40F400306062052084F8200001208D
:10119000E0E72068406800F001000028EBD02068FC
:1011A000006820F002002168086000F09BFA054604
:1011B0000DE000F097FA401B0A2808D9606A40F455
:1011C00000306062052084F820000120C2E720681A
:1011D000406800F002000028EBD1207E012806D1F3
:1011E0002068006840F080002168086005E0206801
:1011F000006820F0800021680860607E012806D128
:101200002068006840F040002168086005E0206820
:10121000006820F0400021680860A07E012806D107
:101220002068006840F020002168086005E0206820
:10123000006820F0200021680860E07E012806D1C7
:101240002068006820F010002168086005E0206830
:10125000006840F0100021680860207F012806D156
:101260002068006840F008002168086005E02068F8
:10127000006820F0080021680860607F012806D11E
:101280002068006840F004002168086005E02068DC
:10129000006820F0040021680860D4E902010843D6
:1012A00021690843616908436168491E0843216850
:1012B000C86100206062012084F82000002049E716
:1012C00010B586B00446002002900390049005906B
:1012D0001E492068884236D100BF1D48C06940F0D1
:1012E00000701B49C8610846C06900F00070019099
:1012F00000BF00BF00BF0846806940F0040088615D
:101300000846806900F00400019000BF00BFC814C7
:10131000029000200390049002A90E4800F04CF8BF
:101320004FF480500290022003900320059002A900
:10133000084800F041F800221146142000F058FA45
:10134000142000F045FA06B010BD00000064004013
:1013500000100240000801407047000010B504462C
:101360000D4B0E4A00212046FFF70CFD0B4840684C
:1013700042F2332188420BD108488068042807D103
:1013800006480069082803D101200549086002E0E9
:1013900000200349086010BD6400002048000020C0
:1013A00000000020704770477047704770477047D3
:1013B00070477047704770472DE9F8470346002291
:1013C00094466EE14FF0010808FA02F4D1F800806B
:1013D00008EA0400A0427DD1DFF8DCA2D1F8048045
:1013E000A8EB0A09D0453AD014DCB8F1030F50D06D
:1013F00009DCB8F1000F31D0B8F1010F1CD0B8F101
:10140000020F49D120E0B8F1110F18D0B8F1120F36
:1014100042D11EE0B9F5881F25D006DCB9F5803F22
:1014200020D0B9F5801F37D11AE0B9F5001F18D0C8
:10143000B9F5041F30D117E0D1F80CC02DE0D1F878
:101440000C8008F1040C28E0D1F80C8008F1080C9D
:1014500023E0D1F80C8008F10C0C1EE000BF00BFA7
:1014600000BF00BF00BF00BFD1F80880B8F1000F77
:1014700002D14FF0040C0BE0D1F80880B8F1010F55
:1014800003D14FF0080C1C6102E04FF0080C5C61C6
:1014900003E04FF0000C00E000BF00BFFF2801D8C0
:1014A000984601E003F104084646FF2802D84FEAB7
:1014B000820803E0A2F108084FEA88084746D6F8F8
:1014C00000804FF00F0909FA07F928EA09080CFA19
:1014D00007F900E088E048EA0908C6F80080D1F87A
:1014E000048008F08058B8F1805F7DD100BFDFF83C
:1014F000CC81D8F8188048F00108DFF8C091C9F80D
:101500001880C846D8F8188008F00108CDF8008087
:1015100000BF00BF4FEAB9384FEA920958F8295086
:101520004FEA82784FEA18794FF00F0808FA09F865
:1015300025EA0805DFF88881434502D14FF000080D
:1015400016E0DFF88081434502D14FF001080FE03B
:10155000DFF87481434502D14FF0020808E0DFF85C
:101560006C81434502D14FF0030801E04FF00408BD
:101570004FEA82794FEA197908FA09F848EA05052D
:10158000DFF84C814FEA920948F82950D1F80480DD
:1015900008F48038B8F5803F0AD1DFF83881D8F8F0
:1015A000008048EA0008DFF82C91C9F8008009E0C3
:1015B000DFF82081D8F8008028EA0008DFF81491CD
:1015C000C9F80080D1F8048008F40038B8F5003F6D
:1015D00010D1DFF8008108F10408D8F8008048EA4B
:1015E0000008DFF8F09000E05AE009F10409C9F8BA
:1015F00000800DE0DFF8DC8008F10408D8F80080F6
:1016000028EA0008DFF8CC9009F10409C9F8008045
:10161000D1F8048008F48018B8F5801F0ED1DFF8E7
:10162000B48008F10808D8F8008048EA0008DFF81C
:10163000A49009F10809C9F800800DE0DFF8948052
:1016400008F10808D8F8008028EA0008DFF884903C
:1016500009F10809C9F80080D1F8048008F40018DD
:10166000B8F5001F0ED1DFF86C8008F10C08D8F82F
:10167000008048EA0008DFF85C9009F10C09C9F81D
:1016800000800DE0DFF84C8008F10C08D8F80080ED
:1016900028EA0008DFF83C9009F10C09C9F800803D
:1016A000521CD1F8008028FA02F8B8F1000F7FF43C
:1016B00089AEBDE8F887000000001110001002405C
:1016C00000080140000C01400010014000140140DE
:1016D00008000140000401400AB1016101E00B046F
:1016E0000361704701480068704700001400002043
:1016F00003480068034909780844014908607047B5
:10170000140000201C00002010B50848006840F0BC
:10171000100006490860032000F0A8F80F2000F030
:1017200007F800F02BF8002010BD00000020024058
:1017300070B504460E4800784FF47A71B1FBF0F0B2
:101740000C490968B1FBF0F5284600F00BFC08B124
:10175000012070BD102C07D200222146501E00F03F
:1017600047F80548046001E00120F2E70020F0E7B7
:101770001C000020200000201800002008B500BF39
:101780001148806940F001000F498861084680696E
:1017900000F00100009000BF00BF00BF0846C06914
:1017A00040F08050C8610846C06900F08050009049
:1017B00000BF00BF00BF0549486820F0E06040F06E
:1017C0000070486000BF08BD0010024000000140EA
:1017D00001460846002809DB00F01F0301229A4059
:1017E00043099B0003F1E023C3F8002100BF7047C9
:1017F0002DE9F05F80460D461646002700F052FEA8
:10180000074639462A46334601F00700C0F1070A69
:10181000BAF1040F02D94FF0040A01E0C0F1070A3F
:10182000D14600F1040ABAF1070F02D24FF0000AC4
:1018300001E0A0F1030AD4464FF0010A0AFA09FABE
:10184000AAF1010A0AEA020A0AFA0CFA4FF0010B9D
:101850000BFA0CFBABF1010B0BEA030B4AEA0B048E
:101860002146404600F026FEBDE8F09F00BF00F094
:101870000702064B19684FF6FF031940044B0B4350
:1018800043EA0221014B196000BF70470CED00E0F4
:101890000000FA0570B504460D460CB9012070BD74
:1018A0005A48006800F00700A8420ED25748006866
:1018B00020F007002843554908600846006800F0FA
:1018C0000700A84201D00120E9E7207800F00200DB
:1018D00002281DD1207800F00400042805D14C48CE
:1018E000406840F4E0604A494860207800F0080011
:1018F000082805D14648406840F460504449486093
:101900004348406820F0F000A1680843404948601F
:10191000207800F0010078B36068012806D13C48C7
:10192000006800F4003090B90120B8E76068022830
:1019300006D13748006800F0007040B90120AEE7DA
:101940003348006800F0020008B90120A7E73048DA
:10195000406820F00300616808432D494860FFF7A4
:10196000C1FE064609E0FFF7BDFE801B41F288314B
:10197000884202D9032092E707E02548406800F03A
:101980000C006168B0EB810FEDD12048006800F0D9
:101990000700A8420ED91D48006820F00700284320
:1019A0001A4908600846006800F00700A84201D004
:1019B000012074E7207800F00400042807D11448BF
:1019C000406820F4E060E1680843114948602078ED
:1019D00000F00800082808D10D48406820F4605045
:1019E000216940EAC1000A49486000F03FF808490F
:1019F0004968C1F30311074A515CC84006490860B1
:101A000006480068FFF794FE002048E700200240E7
:101A1000001002409C250008200000201800002033
:101A200001480068704700002000002000B5FFF763
:101A3000F7FF04494968C1F30221034A515CC840D9
:101A400000BD000000100240AC25000800B5FFF703
:101A5000E7FF04494968C1F3C221034A515CC84009
:101A600000BD000000100240AC250008F0B585B0B4
:101A70000FF26C0C9CE8E01001A8A0E8E0101CA597
:101A80002D68009500210022002300240020194D1C
:101A9000696801F00C05F5B1042D02D0082D19D1AB
:101AA00001E0154819E001ADC1F38346AC5D01F4D6
:101AB000803555B10F4D6D68C5F340451DF80520C3
:101AC0000D4D6543B5FBF2F302E00C4D04FB05F34D
:101AD000184602E000BF084800BF00BF05B0F0BDD7
:101AE00002030405060708090A0B0C0D0E0F10105F
:101AF000010200000010024000127A0000093D00BF
:101B0000F8B504460CB90120F8BD207800F00100BA
:101B1000002878D0F848406800F00C0004280CD069
:101B2000F548406800F00C00082811D1F2484068E0
:101B300000F48030B0F5803F0AD1EF48006800F42F
:101B4000003000285FD0606800285CD10120DBE70E
:101B500000BF6068B0F5803F06D1E748006840F4F8
:101B60008030E549086028E0606858B9E2480068BC
:101B700020F48030E04908600846006820F48020A6
:101B800008601AE06068B0F5A02F0BD1DA48006851
:101B900040F48020D84908600846006840F480304E
:101BA00008600AE0D448006820F48030D249086018
:101BB0000846006820F48020086000BF606888B193
:101BC000FFF790FD054606E0FFF78CFD401B6428FB
:101BD00001D9032098E7C848006800F400300028C5
:101BE000F2D010E0FFF77EFD054606E0FFF77AFD34
:101BF000401B642801D9032086E7BF48006800F431
:101C000000300028F2D1207800F00200022857D1DD
:101C1000B948406800F00C0050B1B748406800F087
:101C20000C00082818D1B448406800F4803098B9F6
:101C3000B148006800F0020020B12069012801D0FD
:101C4000012061E7AC48006820F0F800616940EAD3
:101C5000C100A949086033E02069E8B10120A74923
:101C60000860FFF73FFD054606E0FFF73BFD401B20
:101C7000022801D9032047E79F48006800F00200CE
:101C80000028F2D09C48006820F0F800616940EA22
:101C9000C1009949086013E0002098490860FFF7E7
:101CA00021FD054606E0FFF71DFD401B022801D976
:101CB000032029E79048006800F002000028F2D1D4
:101CC000207800F0080008282DD1A069B8B10120C3
:101CD0008B490860FFF706FD054606E0FFF702FDA9
:101CE000401B022801D903200EE78348406A00F018
:101CF00002000028F2D0012000F0C8FA13E0002012
:101D00007F490860FFF7EEFC054606E0FFF7EAFCB6
:101D1000401B022801D90320F6E67748406A00F00C
:101D200002000028F2D1207800F00400042873D1CA
:101D300000277148C06900F0805070B900BF6E483C
:101D4000C06940F080506C49C8610846C06900F025
:101D50008050009000BF00BF01276A48006800F46F
:101D60008070B0B96748006840F4807065490860C9
:101D7000FFF7B8FC054606E0FFF7B4FC401B6428FB
:101D800001D90320C0E65F48006800F48070002895
:101D9000F2D000BFE068012806D15748006A40F041
:101DA00001005549086227E0E06858B95248006AC6
:101DB00020F00100504908620846006A20F0040043
:101DC000086219E0E06805280BD14B48006A40F032
:101DD0000400494908620846006A40F001000862B0
:101DE0000AE04548006A20F00100434908620846BD
:101DF000006A20F00400086200BFE068A0B1FFF7AD
:101E000071FC054609E0FFF76DFC401B41F288318B
:101E1000884202D9032077E622E03748006A00F0C2
:101E200002000028EFD012E0FFF75CFC054608E056
:101E3000FFF758FC401B41F28831884201D903204A
:101E400062E62D48006A00F002000028F0D1012F60
:101E500005D12948C06920F080502749C86100BFDA
:101E6000E069C8B32448406800F00C00082860D03E
:101E7000E069022848D1002020490866FFF732FCBB
:101E8000054606E0FFF72EFC401B022801D903207F
:101E90003AE61948006800F000700028F2D1206A84
:101EA000B0F5803F07D11448406820F40030A168A5
:101EB000084311494860D4E9080108430E494968BC
:101EC00021F4741108430C49486001200B4908664D
:101ED000FFF708FC054607E03DE0FFF703FC401B69
:101EE000022801D903200FE60348006800F00070C3
:101EF0000028F2D02FE00000001002400000424213
:101F00008004424200700040002014490866FFF738
:101F1000E9FB054606E0FFF7E5FB401B022801D977
:101F20000320F1E50E48006800F000700028F2D1AF
:101F300011E0E069012800D1E6E50948466806F4A9
:101F40008031206A814204D106F47011606A8142B6
:101F500001D00120D8E50020D6E500000000424273
:101F60000010024070B504462546681EB0F1807F1F
:101F700001D301200FE0681E4FF0E02148610F21DE
:101F80004FF0FF3000F096FA00204FF0E02188611A
:101F900007200861002070BD10B504460CB901206F
:101FA00010BDA06900B100E000BF94F83D0028B961
:101FB000002084F83C00204600F028F8242084F813
:101FC0003D002068C06820F400502168C8602046A9
:101FD00000F0AAF92068006920F4904021680861A7
:101FE0002068406920F02A00216848612068C068A4
:101FF00040F400502168C86000202064202084F84C
:102000003D0084F83E000020CAE7000010B586B00D
:102010000446002002900390049005901A4920681D
:1020200088422ED100BF1948806940F4804017498A
:1020300088610846806900F48040019000BF00BFBD
:1020400000BF0846806940F0040088610846806946
:1020500000F00400019000BF00BF4815029002206C
:1020600003900320059002A90948FFF7A5F94FF452
:102070008060029000200390049002A90448FFF7BA
:102080009BF906B010BD000000380140001002406E
:10209000000801402DE9F84F04460E4617469946C0
:1020A0004FF0000A94F83D0020285AD106B117B924
:1020B0000120BDE8F88F00BF94F83C00012801D151
:1020C0000220F6E7012084F83C0000BF00202064D5
:1020D000212084F83D00FFF705FB8246A784E784B2
:1020E000A068B0F5805F04D1206910B90025B04622
:1020F00002E035464FF0000800BF002084F83C00A5
:1021000000BF1BE05346002280212046CDF80090FE
:1021100000F088F908B10320CBE745B9B8F8000012
:10212000C0F308002168486008F1020803E028783D
:10213000216848606D1CE08C401EE084E08C002823
:10214000E0D15346002240212046CDF8009000F017
:1021500069F908B10320ACE7202084F83D00002095
:10216000A7E70220A5E700BFFEE7000010B5104872
:1021700010490860062048604FF080410D4881609A
:102180000021C1604FF4102101614FF4C001416191
:10219000002101760121417681760021C176017707
:1021A0004177FEF7D3FF08B1FEF72FFD10BD000009
:1021B000006400407000002000B585B00020019050
:1021C00002900390049000BF1D48806940F02000F9
:1021D0001B4988610846806900F02000009000BF1C
:1021E00000BF00BF0846806940F0080088610846CB
:1021F000806900F00800009000BF00BF00BF0846E3
:10220000806940F0040088610846806900F004009D
:10221000009000BF00BF002289140A48FFF75CFA53
:102220004FF4805001900120029000200390022082
:10223000049001A90348FFF7BFF805B000BD0000F6
:1022400000100240000C014010B50B480B4908601B
:102250004FF4E1304860002108488160C1600161AD
:102260000C21416100218161C161FFF795FE08B138
:10227000FEF7CBFC10BD00000038014098000020A4
:1022800000BFFEE700BFFEE77047000008B5084941
:102290000968C9084FF47A72B1FBF2F14143009129
:1022A00000BF00BF00994A1E00920029F9D108BD65
:1022B00020000020704710B5FFF71AFA10BD00B5D6
:1022C0008FB0282105A8FDF7F4FF14216846FDF71B
:1022D000F0FF0120059000040690002007900120E7
:1022E000099002200C90C1030D914FF4E0110E9162
:1022F00005A8FFF705FC08B1FEF787FC0F2000904A
:1023000002200190002002904FF480600390002092
:10231000049002216846FFF7BDFA08B1FEF775FC8C
:102320000FB000BD7047000070B504462168096910
:1023300021F44051E2681143226811612269A168C9
:102340001143626941EA02052168C96841F20C62E1
:10235000914329432268D1602168496921F4407181
:10236000A2691143226851612D4A2168914202D12C
:10237000FFF76CFB01E0FFF759FB00EBC00101EB3D
:10238000001162689200B1FBF2F100EBC00202EBB7
:10239000001263689B00B2FBF3F26423B2FBF3F21A
:1023A00002EBC20303EB0212A1EB8201322202EB29
:1023B00001116422B1FBF2F101F0F00100EBC00267
:1023C00002EB001263689B00B2FBF3F26423B2FBE2
:1023D000F3F201EB021200EBC00101EB00116368A4
:1023E0009B00B1FBF3F100EBC00303EB0013666845
:1023F000B600B3FBF6F36426B3FBF6F303EBC306B8
:1024000006EB0313A1EB8301322303EB01116423D9
:10241000B1FBF3F101F00F0111442268916070BD2E
:10242000003801402DE9F04104460D461746984614
:10243000069E21E0701CF8B12EB1FFF753F9A0EB16
:102440000800B04218D92068C06820F4D070216814
:10245000C8602068406920F00100216848612020A0
:1024600084F83D0084F83E0000BF002084F83C0062
:1024700000BF0320BDE8F081206800682840A84222
:1024800001D1012000E00020B842D3D00020F1E7C4
:1024900010B50248FEF733FD10BD000070000020AB
:1024A00000BFFEE702480068C0F30220704700004A
:1024B0000CED00E010B5002804DB0A07130E054AF6
:1024C000135406E00A07140E034A00F00F031B1F03
:1024D000D45410BD00E400E018ED00E038B5044627
:1024E0000D46E0B200900223012269460248FFF740
:1024F000D1FD204638BD000098000020FFF704F908
:10250000FFF7DDFEFFF758FEFFF730FEFFF79CFEFA
:102510000CA0FDF765FE0F4B0F4A10491048FEF75F
:1025200077FB0DE00F48006850B100200D490860AE
:1025300009490DA0FDF754FE114912A0FDF750FE08
:10254000F0E7000043414E204C4F4F50205445537C
:10255000540D0A001000002004000020300000206C
:1025600070000020000000205472616E736D697469
:10257000206D6573736167653A25730D0A0000006D
:102580006400002052656365697665206D6573732C
:102590006167653A25730D0A000000000000000025
:1025A0000000000001020304060708090000000003
:1025B000010203043A7474003A7474003A747400AB
:1025C000E02500080000002030000000280100087D
:1025D0001026000830000020080800004401000810
:1025E0000000000043414E204C4F4F5000000000BF
:1025F00000000000000000001000000001000000CA
:102600000024F400000000000000000000000000B2
:04000005080000ED02
:00000001FF
