:020000040800F2
:10000000480C0020C9010008E50F0008850E000813
:10001000E10F0008CF020008B31200080000000042
:100020000000000000000000000000004112000875
:10003000D302000800000000E91100084312000884
:10004000E3010008E3010008E3010008E301000800
:10005000E3010008E3010008E3010008E3010008F0
:10006000E3010008E3010008E3010008E3010008E0
:10007000E3010008E3010008E3010008E3010008D0
:10008000E3010008E3010008E3010008E3010008C0
:10009000E3010008E3010008E3010008E3010008B0
:1000A000E3010008E3010008E3010008E3010008A0
:1000B000E3010008E3010008E3010008E301000890
:1000C000E3010008E3010008E3010008E301000880
:1000D000E3010008E3010008E3010008E301000870
:1000E000E3010008E3010008E301000800F002F862
:1000F00000F05AF80AA090E8000C82448344AAF168
:100100000107DA4501D100F04FF8AFF2090EBAE865
:100110000F0013F0010F18BFFB1A43F0010318473B
:10012000E4130000041400000A444FF0000C10F81F
:10013000013B13F0070408BF10F8014B1D1108BF65
:1001400010F8015B641E05D010F8016B641E01F805
:10015000016BF9D113F0080F1EBF10F8014BAD1C55
:100160000C1B09D16D1E58BF01F801CBFAD505E073
:1001700014F8016B01F8016B6D1EF9D59142D6D3CD
:10018000704700000023002400250026103A28BFF5
:1001900078C1FBD8520728BF30C148BF0B607047F9
:1001A0001FB51FBD10B510BD00F058F81146FFF780
:1001B000F7FF01F0FFF800F076F803B4FFF7F2FF65
:1001C00003BC00F07DF8000009488047094800475B
:1001D000FEE7FEE7FEE7FEE7FEE7FEE7FEE7FEE7F7
:1001E000FEE7FEE704480549054A064B7047000054
:1001F000B1120008ED00000848060020480C00205D
:1002000048080020480800204FF0000200B51346BF
:1002100094469646203922BFA0E80C50A0E80C5026
:10022000B1F12001BFF4F7AF090728BFA0E80C50D7
:1002300048BF0CC05DF804EB890028BF40F8042BD0
:1002400008BF704748BF20F8022B11F0804F18BF3D
:1002500000F8012B7047704770477047754600F0F3
:100260002BF8AE4605006946534620F00700854648
:1002700018B020B5FFF7B6FFBDE820404FF00006EC
:100280004FF000074FF000084FF0000B21F007017E
:10029000AC46ACE8C009ACE8C009ACE8C009ACE8C1
:1002A000C0098D46704710B50446AFF30080204664
:1002B000BDE81040FFF781BF00487047E40500200B
:1002C00001491820ABBEFEE726000200704700BFC0
:1002D000FEE77047002101E000BF491C8142FBD3CB
:1002E000704772B600BFFEE770B5044600F0A6F98D
:1002F00006462546681C10B104480078054400BF36
:1003000000F09CF9801BA842FAD370BDDC050020E8
:100310002DE9F8470346002294466EE14FF00108AC
:1003200008FA02F4D1F8008008EA0400A0427DD166
:10033000DFF8DCA2D1F80480A8EB0A09D0453AD056
:1003400014DCB8F1030F50D009DCB8F1000F31D044
:10035000B8F1010F1CD0B8F1020F49D120E0B8F17B
:10036000110F18D0B8F1120F42D11EE0B9F5881F55
:1003700025D006DCB9F5803F20D0B9F5801F37D1F4
:100380001AE0B9F5001F18D0B9F5041F30D117E0F5
:10039000D1F80CC02DE0D1F80C8008F1040C28E055
:1003A000D1F80C8008F1080C23E0D1F80C8008F19A
:1003B0000C0C1EE000BF00BF00BF00BF00BF00BFAD
:1003C000D1F80880B8F1000F02D14FF0040C0BE017
:1003D000D1F80880B8F1010F03D14FF0080C1C616F
:1003E00002E04FF0080C5C6103E04FF0000C00E00D
:1003F00000BF00BFFF2801D8984601E003F10408C0
:100400004646FF2802D84FEA820803E0A2F1080816
:100410004FEA88084746D6F800804FF00F0909FADE
:1004200007F928EA09080CFA07F900E088E048EA29
:100430000908C6F80080D1F8048008F08058B8F1A7
:10044000805F7DD100BFDFF8CC81D8F8188048F0FC
:100450000108DFF8C091C9F81880C846D8F818809C
:1004600008F00108CDF8008000BF00BF4FEAB9389E
:100470004FEA920958F829504FEA82784FEA1879E2
:100480004FF00F0808FA09F825EA0805DFF8888117
:10049000434502D14FF0000816E0DFF88081434564
:1004A00002D14FF001080FE0DFF87481434502D11B
:1004B0004FF0020808E0DFF86C81434502D14FF0AD
:1004C000030801E04FF004084FEA82794FEA1979F6
:1004D00008FA09F848EA0505DFF84C814FEA920965
:1004E00048F82950D1F8048008F48038B8F5803FE6
:1004F0000AD1DFF83881D8F8008048EA0008DFF830
:100500002C91C9F8008009E0DFF82081D8F800803C
:1005100028EA0008DFF81491C9F80080D1F80480B7
:1005200008F40038B8F5003F10D1DFF8008108F179
:100530000408D8F8008048EA0008DFF8F09000E0EE
:100540005AE009F10409C9F800800DE0DFF8DC8009
:1005500008F10408D8F8008028EA0008DFF8CC90F9
:1005600009F10409C9F80080D1F8048008F4801862
:10057000B8F5801F0ED1DFF8B48008F10808D8F86C
:10058000008048EA0008DFF8A49009F10809C9F8DA
:1005900000800DE0DFF8948008F10808D8F80080AA
:1005A00028EA0008DFF8849009F10809C9F80080FA
:1005B000D1F8048008F40018B8F5001F0ED1DFF858
:1005C0006C8008F10C08D8F8008048EA0008DFF8D1
:1005D0005C9009F10C09C9F800800DE0DFF84C804F
:1005E00008F10C08D8F8008028EA0008DFF83C90F1
:1005F00009F10C09C9F80080521CD1F8008028FAD2
:1006000002F8B8F1000F7FF489AEBDE8F88700006A
:10061000000011100010024000080140000C0140D1
:100620000010014000140140080001400004014096
:100630000AB1016101E00B040361704701480068E1
:1006400070470000D405002003480068034909787A
:100650000844014908607047D4050020DC050020EB
:1006600010B50848006840F01000064908600320F3
:1006700000F098F80F2000F007F800F02BF80020A9
:1006800010BD00000020024070B504460E480078FE
:100690004FF47A71B1FBF0F00C490968B1FBF0F549
:1006A000284600F0D5FB08B1012070BD102C07D200
:1006B00000222146501E00F037F80548046001E092
:1006C0000120F2E70020F0E7DC050020E005002033
:1006D000D805002008B500BF1148806940F001002E
:1006E0000F4988610846806900F00100009000BF52
:1006F00000BF00BF0846C06940F08050C86108468E
:10070000C06900F08050009000BF00BF00BF0549E5
:10071000486820F0E06040F00070486000BF08BD0D
:1007200000100240000001402DE9F05F80460D46B8
:100730001646002700F022FE074639462A46334671
:1007400001F00700C0F1070ABAF1040F02D94FF017
:10075000040A01E0C0F1070AD14600F1040ABAF127
:10076000070F02D24FF0000A01E0A0F1030AD446BD
:100770004FF0010A0AFA09FAAAF1010A0AEA020A82
:100780000AFA0CFA4FF0010B0BFA0CFBABF1010B60
:100790000BEA030B4AEA0B042146404600F0F6FD43
:1007A000BDE8F09F00BF00F00702064B19684FF646
:1007B000FF031940044B0B4343EA0221014B19602C
:1007C00000BF70470CED00E00000FA0570B504466C
:1007D0000D460CB9012070BD5A48006800F00700B2
:1007E000A8420ED25748006820F007002843554918
:1007F00008600846006800F00700A84201D0012008
:10080000E9E7207800F0020002281DD1207800F0EE
:100810000400042805D14C48406840F4E0604A498F
:100820004860207800F00800082805D14648406854
:1008300040F46050444948604348406820F0F0006C
:10084000A168084340494860207800F0010078B36F
:100850006068012806D13C48006800F4003090B977
:100860000120B8E76068022806D13748006800F028
:10087000007040B90120AEE73348006800F0020084
:1008800008B90120A7E73048406820F003006168FC
:1008900008432D494860FFF7D1FE064609E0FFF7FF
:1008A000CDFE801B41F28831884202D9032092E7B5
:1008B00007E02548406800F00C006168B0EB810F4C
:1008C000EDD12048006800F00700A8420ED91D486D
:1008D000006820F0070028431A49086008460068AD
:1008E00000F00700A84201D0012074E7207800F052
:1008F0000400042807D11448406820F4E060E1684F
:10090000084311494860207800F00800082808D101
:100910000D48406820F46050216940EAC1000A494E
:10092000486000F019F808494968C1F30311074A03
:10093000515CC8400649086006480068FFF7A4FEFD
:10094000002048E70020024000100240EC1400089C
:10095000E0050020D8050020F0B585B00FF26C0C42
:100960009CE8E01001A8A0E8E0101CA52D68009507
:1009700000210022002300240020194D696801F0A5
:100980000C05F5B1042D02D0082D19D101E0154850
:1009900019E001ADC1F38346AC5D01F4803555B17A
:1009A0000F4D6D68C5F340451DF805200D4D65439D
:1009B000B5FBF2F302E00C4D04FB05F3184602E030
:1009C00000BF084800BF00BF05B0F0BD020304052A
:1009D000060708090A0B0C0D0E0F1010010200008B
:1009E0000010024000127A0000093D00F8B50446EC
:1009F0000CB90120F8BD207800F00100002878D063
:100A0000F848406800F00C0004280CD0F548406815
:100A100000F00C00082811D1F248406800F4803042
:100A2000B0F5803F0AD1EF48006800F4003000289C
:100A30005FD0606800285CD10120DBE700BF606800
:100A4000B0F5803F06D1E748006840F48030E549C2
:100A5000086028E0606858B9E248006820F48030F7
:100A6000E04908600846006820F4802008601AE029
:100A70006068B0F5A02F0BD1DA48006840F4802000
:100A8000D84908600846006840F4803008600AE0F1
:100A9000D448006820F48030D249086008460068D5
:100AA00020F48020086000BF606888B1FFF7C6FDB1
:100AB000054606E0FFF7C2FD401B642801D903206C
:100AC00098E7C848006800F400300028F2D010E031
:100AD000FFF7B4FD054606E0FFF7B0FD401B6428B4
:100AE00001D9032086E7BF48006800F400300028E1
:100AF000F2D1207800F00200022857D1B9484068AE
:100B000000F00C0050B1B748406800F00C00082815
:100B100018D1B448406800F4803098B9B1480068F2
:100B200000F0020020B12069012801D0012061E716
:100B3000AC48006820F0F800616940EAC100A949AA
:100B4000086033E02069E8B10120A7490860FFF799
:100B500075FD054606E0FFF771FD401B022801D92F
:100B6000032047E79F48006800F002000028F2D009
:100B70009C48006820F0F800616940EAC10099498A
:100B8000086013E0002098490860FFF757FD05460C
:100B900006E0FFF753FD401B022801D9032029E797
:100BA0009048006800F002000028F2D1207800F0A0
:100BB000080008282DD1A069B8B101208B49086030
:100BC000FFF73CFD054606E0FFF738FD401B022815
:100BD00001D903200EE78348406A00F00200002894
:100BE000F2D0012000F002FB13E000207F490860F2
:100BF000FFF724FD054606E0FFF720FD401B022815
:100C000001D90320F6E67748406A00F00200002888
:100C1000F2D1207800F00400042873D10027714835
:100C2000C06900F0805070B900BF6E48C06940F0E4
:100C300080506C49C8610846C06900F0805000903F
:100C400000BF00BF01276A48006800F48070B0B997
:100C50006748006840F4807065490860FFF7EEFC63
:100C6000054606E0FFF7EAFC401B642801D9032093
:100C7000C0E65F48006800F480700028F2D000BF32
:100C8000E068012806D15748006A40F00100554944
:100C9000086227E0E06858B95248006A20F0010075
:100CA000504908620846006A20F00400086219E012
:100CB000E06805280BD14B48006A40F00400494920
:100CC00008620846006A40F0010008620AE04548F0
:100CD000006A20F00100434908620846006A20F0DB
:100CE0000400086200BFE068A0B1FFF7A7FC05465A
:100CF00009E0FFF7A3FC401B41F28831884202D98A
:100D0000032077E622E03748006A00F0020000285E
:100D1000EFD012E0FFF792FC054608E0FFF78EFCEB
:100D2000401B41F28831884201D9032062E62D48F8
:100D3000006A00F002000028F0D1012F05D12948F7
:100D4000C06920F080502749C86100BFE069C8B37E
:100D50002448406800F00C00082860D0E0690228B0
:100D600048D1002020490866FFF768FC054606E0E8
:100D7000FFF764FC401B022801D903203AE619481A
:100D8000006800F000700028F2D1206AB0F5803FC2
:100D900007D11448406820F40030A1680843114985
:100DA0004860D4E9080108430E49496821F47411E8
:100DB00008430C49486001200B490866FFF73EFCD8
:100DC000054607E03DE0FFF739FC401B022801D94A
:100DD00003200FE60348006800F000700028F2D0FE
:100DE0002FE0000000100240000042428004424216
:100DF00000700040002014490866FFF71FFC0546FC
:100E000006E0FFF71BFC401B022801D90320F1E597
:100E10000E48006800F000700028F2D111E0E0698F
:100E2000012800D1E6E50948466806F48031206AC9
:100E3000814204D106F47011606A814201D0012020
:100E4000D8E50020D6E50000000042420010024034
:100E500070B504462546681EB0F1807F01D301209D
:100E60000FE0681E4FF0E02148610F214FF0FF3086
:100E700000F08CFA00204FF0E02188610720086123
:100E8000002070BD00BFFEE710B500F0C3F90122DD
:100E900040210B48FFF7CCFB0120FFF71BFA012292
:100EA00080210748FFF7C4FB0120FFF713FA002257
:100EB00080210348FFF7BCFB0120FFF70BFA10BDB0
:100EC000000C014010B500F0A5F9012240210B48AB
:100ED000FFF7AEFB0120FFF7FDF900228021074854
:100EE000FFF7A6FB0120FFF7F5F901228021034857
:100EF000FFF79EFB0120FFF7EDF910BD000C01404C
:100F000010B500BF00F0D6FA0028FBD010BD0000DD
:100F100000B585B00020019002900390049000BFBE
:100F20002C48806940F010002A4988610846806991
:100F300000F01000009000BF00BF00BF08468069AD
:100F400040F0200088610846806900F02000009091
:100F500000BF00BF00BF0846806940F00400886100
:100F60000846806900F00400009000BF00BF00BF89
:100F70000846806940F0080088610846806900F0F2
:100F80000800009000BF00BF00224FF4005112483B
:100F9000FFF74EFB0022C0211048FFF749FB4FF43A
:100FA0000050019001200290002003900220049044
:100FB00001A90948FFF7ACF9C02001900120029077
:100FC000002003900320049001A90448FFF7A0F932
:100FD00005B000BD0010024000100140000C0140AF
:100FE00000BFFEE700BFFEE770B5002418E004F183
:100FF000B000002100F0ECF80021084600F0E8F80D
:101000000021102000F0E4F8002505E00121002077
:1010100000F0DEF8681CC5B2802DF7DB601CC4B29E
:10102000082CE4DB70BD10B500218D2000F0D0F855
:101030000021142000F0CCF80021AF2000F0C8F807
:1010400010BD10B5C820FFF745F90021AE2000F013
:10105000BFF80021402000F0BBF80021B02000F0D4
:10106000B7F80021C82000F0B3F80021812000F07B
:10107000AFF80021FF2000F0ABF80021A12000F024
:10108000A7F80021A62000F0A3F80021A82000F076
:101090009FF800211F2000F09BF80021D32000F0D2
:1010A00097F80021084600F093F80021D52000F0C1
:1010B0008FF80021F02000F08BF80021D92000F0FB
:1010C00087F80021222000F083F80021DA2000F0C8
:1010D0007FF80021022000F07BF80021DB2000F0E7
:1010E00077F80021492000F073F800218D2000F0EE
:1010F0006FF80021142000F06BF80021AF2000F001
:1011000067F8FFF771FF10BD70B5002418E004F117
:10111000B000002100F05CF80021084600F058F80B
:101120000021102000F054F8002505E001210846B8
:1011300000F04EF8681CC5B2802DF7DB601CC4B20D
:10114000082CE4DB70BD70B504460D4605F1B00017
:10115000002100F03DF8102141EA1410002100F0B8
:1011600037F804F00F00002100F032F870BD0000E5
:101170002DE9F05F83460F46904699460A9C00256C
:101180001CE07819C1B25846FFF7DDFF002611E0D8
:10119000E11704EB5171C91001FB085101EB810209
:1011A00002EB4111094A1144885D012100F010F859
:1011B000701CC6B24E45EBDB681CC5B2E11704EBF0
:1011C0005171B5EBE10FDCDBBDE8F09F400500207D
:1011D00070B504460D461DB1E0B200F0B9F802E06A
:1011E000E0B200F09FF870BD7047000008B50849F4
:1011F0000968C9084FF47A72B1FBF2F141430091DA
:1012000000BF00BF00994A1E00920029F9D108BD15
:10121000E00500201FB5002000900190029003908F
:101220008020009001200190002002900220039075
:1012300069460248FFF76CF81FBD0000000C014032
:10124000704710B5FFF700FA10BD00B58FB0282128
:1012500005A8FEF7D9FF14216846FEF7D5FF012047
:1012600005900004069000200790012009900220BC
:101270000C90C1030D914FF4E0110E9105A8FFF7FA
:10128000B5FB08B1FFF72DF80F2000900220019068
:10129000002002904FF4806003900020049002210F
:1012A0006846FFF793FA08B1FFF71BF80FB000BDCF
:1012B000704700BFFEE700002DE9F04105462C46CF
:1012C000002240211648FFF7B3F9002623E0274605
:1012D00007F08007802F05D1012280211048FFF7F9
:1012E000A7F904E0002280210D48FFF7A1F960066C
:1012F000040E012240210A48FFF79AF90520FEF763
:10130000E9FF002240210648FFF792F90120FEF78D
:10131000E1FF701CC6B2082ED9DBBDE8F0810000E9
:10132000000C014010B50446FFF7AEFD7820FFF732
:10133000C3FFFFF7E5FD0020FFF7BEFFFFF7E0FD6D
:101340002046FFF7B9FFFFF7DBFDFFF7BBFD10BD40
:1013500010B50446FFF798FD7820FFF7ADFFFFF7C3
:10136000CFFD4020FFF7A8FFFFF7CAFD2046FFF79B
:10137000A3FFFFF7C5FDFFF7A5FD10BD02480068FC
:10138000C0F30220704700000CED00E010B500280B
:1013900004DB0A07130E054A135406E00A07140E6D
:1013A000034A00F00F031B1FD45410BD00E400E0FB
:1013B00018ED00E008B5FFF753F9FFF746FFFFF718
:1013C000A7FDFFF73EFEFFF72EFEFFF79DFE402034
:1013D00003460022114600901046FFF7C9FE402048
:1013E0000346012200210090FFF7C2FEFFF7FCFD3B
:1013F000102003460022114600901046FFF7B8FE69
:1014000010200346012200210090FFF7B1FE1020BA
:1014100003460222002100902020FFF7A9FE1020A1
:1014200003460322002100903020FFF7A1FE102088
:1014300003460422002100904020FFF799FE10206F
:1014400003460522002100905020FFF791FE102056
:1014500003460622002100906020FFF789FE10203D
:1014600003460722002100907020FFF781FE102024
:1014700003460822022100900020FFF779FE102089
:101480000346092202210090FFF772FEC820FEF7F2
:101490002BFFFFF7A9FD20202523002211460090F5
:1014A0001046FFF765FEC820FEF71EFFFFF79CFD04
:1014B00000BFFEE710B5012280210B48FFF7B8F806
:1014C0000120FEF707FF012240210748FFF7B0F88F
:1014D0000120FEF7FFFE0124002240210248FFF711
:1014E000A7F8204610BD0000000C014000000000DD
:1014F00000000000010203040607080900000000C4
:10150000010203042415000800000020E405000087
:1015100028010008C0170008E40500206406000048
:1015200084010008011E000938F8F8F8F0F0E0E046
:10153000E03AFF01022C011AC0741AF8748AC04004
:10154000411B307089031EC0801D80E0F8FE304DC5
:101550007F1F0F0374894031180903070F3F7FFE77
:10156000FEFC5E0910491C80C0F03CAD7F3F0F07B8
:10157000AEB940513D01030F3F1584FEF8E0580815
:1015800030383C3E1F0F0774C1091040498A1A1FAA
:101590000103180F075C6060E00109154001232D6D
:1015A0000103030F65199701878808F0F0F0E0C088
:1015B000C080011BC0E01301111A3FF15CFEFE0C5C
:1015C000011AFE0E1AFF0E31290A9CFFFF010129A4
:1015D0001001123927B90D490E490B9A60010919FA
:1015E000405A0301F940E92A0915405AC0018935DA
:1015F0003A800A9B191801091340877E7F7F3F3F7D
:101600001F1A0F011307071C80E0F82CFC7F1F0333
:101610006A011F500E80C0E0F0F8FC7E3F1F0F07EC
:1016200003012C6060E001199C2AE0401F04FCFCCF
:10163000FCFEFE0539061274101004D4D55F7FEF4E
:10164000BFFFFD7D1F376363C04A10014BFEFE08DC
:1016500039765A810174FFFFFE3DFCFEFC800111CA
:1016600049071959591011200EF0F0969E9C90F0E0
:10167000F0989C9EF6F01D10131714011BFFFF0538
:10168000141717103A20014CA0FEFE0919B1180ECC
:10169000C060703C1F07070F3C7060C0C0C2195C7F
:1016A000100B98B8B820FEFE242CBCB810101F7F79
:1016B0007F60607EFFFFE0733F7EEF87F9201008B8
:1016C0000808E8F8B8BABEBEB8B8F8E808081FFEBF
:1016D000FE027B7B4B011EFBFB82FEFE60295B1042
:1016E0000AFCFCE464646466E6C6201020303F9F78
:1016F000D8F8BF8FC7DF7C787ECFC31E040404FCFC
:10170000FC051E44FCFCCCC0C01809C0F03F0F0112
:1017100040C0C0BD3CC0FF3F401EE0FCFCB4F40133
:101720001812B4FCFCFC0C0FFFFF07FFFF1F3F3F2C
:10173000B0BFBFE71CE10101A4113F1088848303FF
:1017400001011C030303BE1E0F0F1F5FDF201817CC
:101750007FBFBF3E3E0101090D3FBFFE7FCDC707E2
:101760007EF2183A3818A817080C0C040C08400B25
:101770001C0FFF7FCBFE3F351F031A043F11120CD5
:1017800019531154706020243032F62A321C411053
:1017900013E0F0FAF8C0C0E0FEFEFFFCF0E0C08409
:1017A00038F08018096838F0F0F8FC3FC41440089D
:1017B000FFFFFAF0C0F8F032102947111324F400AB
:04000005080000ED02
:00000001FF
