:020000040800F2
:1000000000090020A1010008E5220008DF21000806
:10001000E1220008F50C000811290008000000008A
:100020000000000000000000000000001523000890
:10003000350D000800000000E92200081723000821
:10004000BB010008BB010008BB010008BB010008A0
:10005000BB010008BB010008BB010008BB01000890
:10006000BB010008BB010008BB010008BB01000880
:10007000BB010008BB010008BB010008F90C000827
:10008000BB010008BB010008BB010008BB01000860
:10009000BB010008BB010008BB010008BB01000850
:1000A000BB010008BB010008BB010008BB01000840
:1000B000BB010008BB010008BB010008BB01000830
:1000C000BB010008BB010008BB010008BB01000820
:1000D000BB01000821280008BB010008BB01000883
:1000E000BB010008BB010008BB01000800F002F8DA
:1000F00000F047F80AA090E8000C82448344AAF17B
:100100000107DA4501D100F03CF8AFF2090EBAE878
:100110000F0013F0010F18BFFB1A43F0010318473B
:10012000AC280000CC280000103A24BF78C878C161
:10013000FAD8520724BF30C830C144BF04680C60ED
:10014000704700000023002400250026103A28BF35
:1001500078C1FBD8520728BF30C148BF0B60704739
:10016000642900F07D80002070471FB59DE80300E2
:1001700000F092FB00F084F91FBD10B500F0E9F922
:1001800010BD00F04CFA1146FFF7EFFF02F0EEFB56
:1001900000F050FB03B4FFF7F0FF03BC00F00EFDCE
:1001A0000948804709480047FEE7FEE7FEE7FEE70B
:1001B000FEE7FEE7FEE7FEE7FEE7FEE70448054947
:1001C000054A064B7047000085230008ED00000833
:1001D0000003002000090020000500200005002089
:1001E0000FB4044910B503AA029800F01BF910BC23
:1001F0005DF814FBF80100202DE9F0410E4604469D
:10020000002020622046E168884730B3252805D0C9
:10021000D4E901219047206A401CF2E7E1682046BA
:1002200000278847050018D0A5F14100192802D8F9
:1002300020354FF400673246294620462760FFF7F5
:100240008FFF40B1012804D0F61D26F007060836BE
:10025000D8E7361DD6E72846DAE7206ABDE8F08100
:100260002DE9F0410646002410687529314616A58F
:1002700010D0AFF30080002802DA404213A507E057
:1002800031688A0701D512A502E0490704D511A5F6
:10029000012401E0AFF3008000210A2206F12407C7
:1002A00009E0B0FBF2FCB0FBF2F302FB1C003030C3
:1002B00078541846491C0028F3D123462A46304674
:1002C000BDE8F04100F054B8000000002D0000002F
:1002D0002B000000200000004FF000020429C0F0B5
:1002E000128010F0030C00F01B80CCF1040CBCF168
:1002F000020F18BF00F8012BA8BF20F8022BA1EBBA
:100300000C0100F00DB85FEAC17C24BF00F8012B9E
:1003100000F8012B48BF00F8012B70474FF0000296
:1003200000B5134694469646203922BFA0E80C50EB
:10033000A0E80C50B1F12001BFF4F7AF090728BFC6
:10034000A0E80C5048BF0CC05DF804EB890028BF42
:1003500040F8042B08BF704748BF20F8022B11F06B
:10036000804F18BF00F8012B7047704770477047E7
:100370002DE9F0470D4699469246044600F12408BF
:100380000168880604D5E06921F01001216000E0D1
:100390000120A84201DD471B00E00027A1697A196E
:1003A00002EB0900081AA0612078C00602D420469A
:1003B000AFF30080002608E0D4E901211AF8060016
:1003C0009047206A401C761C20624E45F4DB207862
:1003D000C0060AD52046AFF3008006E0D4E901212B
:1003E00030209047206A401C2062381EA7F1010788
:1003F000F4DC07E0D4E9012118F805009047206AF1
:10040000401C2062281EA5F10105F3DC2046AFF355
:1004100000802078000602D50220BDE8F087012088
:10042000FBE70000074B70B50D467B4400F011F868
:100430000446284600F020F810B14FF0FF3070BDA0
:10044000204670BD1F25000001694A1C0261087822
:10045000704700B58FB0CDE9013100210591054904
:100460007944CDE9031011466846FFF7C5FE0FB089
:1004700000BD0000E5FFFFFF007B00F0800070473B
:1004800010B542485421FFF749FF41485421FFF776
:1004900045FF40485421FFF741FF3F493B483C4A54
:1004A0003F4B08603D490A603A491960531C036597
:1004B000481C1065012008653B48344A39A178443E
:1004C00000F01CF920B9384878440A3800F0BBF92C
:1004D00037482F4A35A1784400F010F920B9344844
:1004E00078440A3800F0AFF932482A4A2FA17844FC
:1004F00000F004F920B92F4878440A3800F0A3F935
:1005000040232248DC000021224600F0D4F820B12C
:1005100025487844543800F096F91D482246402377
:10052000002100F0C8F820B121487844543800F088
:100530008AF9184822461023002100F0BCF8002850
:1005400006D01C487844BDE81040563800F07BB90E
:1005500010BD104870B5006D20F001040B4800F08C
:1005600043F90B4800F040F90A4800F03DF909E072
:10057000206D20F00105204600F036F9204600F0FD
:1005800073F82C46002CF3D170BD0000A4010020AC
:10059000F80100204C020020100000201400002070
:1005A0001800002072000000FE2400007700000008
:1005B000EA240000D62400000EB5CDE9000100F0C9
:1005C000DDFA029069460120ABBE0EBD08B5694652
:1005D00000900220ABBE08BD1FB58DE8070069463C
:1005E0000520ABBE04B010BD1FB58DE80F006946F5
:1005F0000620ABBEF6E708B5694600900920ABBE01
:1006000008BD1CB5CDE9000169460A20ABBE1CBD82
:10061000704708B5694600900C20ABBE08BD754612
:1006200000F018F9AE4605006946534620F0070071
:10063000854618B020B5FFF7C1FDBDE820404FF05A
:1006400000064FF000074FF000084FF0000B21F0BC
:100650000701AC46ACE8C009ACE8C009ACE8C00989
:10066000ACE8C0098D46704770B50446051F00F020
:10067000F7F80068002C14BF446870BD002C18BF48
:10068000AC423CBF20466468F8D301680A18AA420D
:1006900018BF456003D12A680546114401602868E7
:1006A0004119A1421CBF6C6070BD6168696021681E
:1006B0000844286070BD70B5C468A50713D06502F2
:1006C00011D4B2F5807F09D0B2F5007F06D0B2F523
:1006D000806F08D1012300F1240106E05D1E6FF058
:1006E0007F46B54201D3012070BD0161C361416005
:1006F00024F470611143C160002070BD2DE9F04108
:100700000C4607461646104600F06EF82078611C2D
:1007100061280AD0722802D077283CD102E0012556
:10072000002405E00225042402E0082448F2020522
:1007300011F8010B2B2806D0622809D011F8010C02
:1007400074280AD00BE045F0030544F00204EFE7FB
:1007500045F0040544F00104EAE744F0100438468B
:100760002146FFF729FF411C15D00021316171603E
:100770004FF40071F560F1617061200704D53046D7
:100780000222002100F0E6F8306D40F001003065F3
:100790003046BDE8F0810020FBE72DE9F0410D4631
:1007A0000646104C206DC10704D0410804D020F04B
:1007B0000104F7E722460EE0542000F09CF8070001
:1007C0000ED0206D47F001010843542120653846C2
:1007D000FFF7A4FD3A4629463046BDE8F0418DE7D3
:1007E0000020D6E7A40100202DE9F04704464FF091
:1007F00000094FF0FF37C568D4E90486A80707D081
:10080000204600F057F93046FFF7E0FE002802DAF4
:100810003846BDE8F087280502D54046FFF724FF9B
:100820004C212046FFF77AFD206D20F00100206565
:100830004846EEE710B50446AFF300802046BDE819
:100840001040FFF7A7BC10B500F07EF9BDE81040DE
:1008500000F074B900487047A00200207047000003
:1008600000487047A80200207047704770477047E3
:1008700038B504460A4600206946AFF300800028D8
:1008800008BF38BD02460099204600F0A4F90120B7
:1008900038BD012000F0F3B9F8B5AFF3008005468C
:1008A00000200C46102000BF0646A819A0420DD912
:1008B000324669460020AFF30080070008BF00F011
:1008C000DEF90098A04218BF0546C419FFF7C8FF1B
:1008D00005600746F01D20F007004619284600F085
:1008E00073F9B44208BFF8BDA21B31463868BDE8B1
:1008F000F84000F070B970B50646FFF7B1FF056823
:1009000006F10B0020F00704B4429CBF002070BD2C
:100910002B466A68BAB11068A04210D304F10801EE
:1009200088423CBF5068586007D351681019416035
:100930001168091B016058601460101D70BD1346DA
:100940005268002AE7D121462846FFF791FF002888
:10095000DED170BD2DE9F041044616460D464769CB
:10096000007B80072ED03846FFF745FE50BB3EB3D4
:10097000012E02D0022E25D104E0204600F045F9D8
:1009800005441DE03846FFF744FEE168002841F0C9
:100990001001E16005DA204600F058F80120BDE8BA
:1009A000F081C9030BD56268E16A914200D8114613
:1009B000A26911442269891A814200DD0846054472
:1009C000002D01DA0220EAE7E16A6068E26881420C
:1009D00006D29103E06203D522F4003141F0100207
:1009E000A6690027AE4213DCE16A814201D90B46B9
:1009F00000E0034603EB060C2369ACEB030CAC45AB
:100A000006DD814201D98C4600E084469C4505D133
:100A1000A760276042F02000A5620DE0AD1BE669EB
:100A2000AE1B8142A66000D90846C01A281A206071
:100A30005819606022F0200003490840E06000205F
:100A400084F84870ABE70000BFCFD7FFC16821F43E
:100A5000001141F08001C160002181600160704798
:100A60002DE9F047814614460E464FF0FF383248D4
:100A7000D5685769054209D03846A169FFF7C1FD1D
:100A8000002811DB2C48C0430540E5602B46324668
:100A900049463846FFF7A0FDA16920F00042B21A8E
:100AA00011440028A16103D02046FFF7CFFF404644
:100AB000BDE8F08770B504460569C06A6168884280
:100AC00000D80846E16821F42011E160C90312D57D
:100AD000A84208D02246411B2846FFF7C1FF10B1AB
:100AE0004FF0FF3070BD0020E562C4E90150E068BE
:100AF00020F48030E060002070BD10B50446C0686E
:100B000020F02000E060A16AA06988420DD0204654
:100B1000FFF7D0FFE06820F4405040F01000E060A4
:100B2000A06AA0612069E062606044F24001E06870
:100B30008843E06010BD000010000200002801D0D2
:100B400000F03CB87047000010B5014602A000F06C
:100B50007DF8012010BD00005349475254524544CE
:100B60003A2052656469726563743A2063616E2746
:100B700074206F70656E3A200000000010B5431CB1
:100B800002E010F8011B71B18107FAD14FF0013278
:100B900002C88C1A8C4314EAC211F9D0C01A0A0692
:100BA00003D0C01E10BDC01A10BD0A0401D0801EA3
:100BB00010BD0902FCD0401E10BD000001491820E4
:100BC000ABBEFEE72600020000210160C0E9011073
:100BD000704710207047034640688C46002818BFB5
:100BE00088423CBF03464068F8D3186818448842DE
:100BF00007D00CF1030020F00700001D411A521A23
:100C00000146081D0A60FFF72FBD10B50146C268F6
:100C1000900703D0900607D5886A0AE000F03EF8F6
:100C200001210160881E10BD8B69486818440B695A
:100C3000C01A91F848301BB191F84910401A10BD04
:100C40001103FCD50028FADD401E10BD70B5054625
:100C50000C460A2000E06D1C00F018F835B1287829
:100C60000028F8D102E0641C00F010F814B12078DC
:100C70000028F8D1BDE870400A2000F007B810B590
:100C800000F010F8BDE81040FFF758BF08B56946FE
:100C90008DF800000320ABBE08BD0000004870477F
:100CA000A002002010B5012805D0002103A0FFF705
:100CB000CDFF012010BD09A1F8E7000053494752BC
:100CC000544D454D3A204F7574206F66206865611C
:100CD00070206D656D6F7279000000003A204865E4
:100CE0006170206D656D6F727920636F72727570BF
:100CF0007465640000BFFEE710B5024800F0A2F87A
:100D000010BD00006001002030B590F84050012473
:100D1000AC40C56B6C60046863604468102C04D1FF
:100D20000468A2600468E16003E00468A1600468EC
:100D3000E26030BD704772B600BFFEE70146002298
:100D400091F82100022808D00420886300BF002009
:100D500081F8200000BF012070470868006820F07B
:100D60000E000B6818600868006820F001000B682E
:100D7000186091F8403001209840CB6B58600120FA
:100D800081F8210000BF002081F8200000BF10463C
:100D9000E2E7000070B50446002594F8210002281F
:100DA00003D00420A063012548E02068006820F0FB
:100DB0000E00216808602068006820F001002168AA
:100DC00008601F492068884201D1012026E01C49A3
:100DD00014312068884201D110201FE018492831C1
:100DE0002068884201D1801518E015493C312068FF
:100DF000884201D1801411E01149503120688842A5
:100E000002D14FF4803009E00D49643120688842F6
:100E100002D14FF4801001E04FF08070084908398A
:100E20004860012084F8210000BF002084F82000E1
:100E300000BF606B10B12046616B8847284670BDCB
:100E40000800024070B50446E06B0568206806683B
:100E500094F84010042088402840002846D006F02E
:100E60000400002842D02068006800F0200028B963
:100E70002068006820F00400216808605749206855
:100E8000884201D1042027E0544914312068884267
:100E900001D1402020E0514928312068884201D109
:100EA000001519E04D493C312068884202D14FF4C9
:100EB000804011E0494950312068884202D14FF406
:100EC000802009E0454964312068884202D14FF40E
:100ED000800001E04FF08060404908394860E06AD6
:100EE00000287AD02046E16A884776E094F84010DE
:100EF000022088402840A0B306F0020088B3206892
:100F0000006800F0200040B92068006820F00A0066
:100F100021680860012084F8210030492068884257
:100F200001D1022028E02D4914312068884201D1E6
:100F3000202021E0294928312068884201D140152C
:100F40001AE026493C312068884202D14FF4005013
:100F500012E0224950312068884203D14FF400301A
:100F60000AE017E01D4964312068884202D14FF43D
:100F7000001001E04FF0007018490839486000BFC8
:100F8000002084F8200000BFA06A30B32046A16A88
:100F9000884722E094F84010082088402840E0B1BB
:100FA00006F00800C8B12068006820F00E00216833
:100FB000086094F8401001208840E16B48600120EF
:100FC000A06384F8210000BF002084F8200000BF47
:100FD000206B10B12046216B884770BD080002408D
:100FE0000146002209B901207047164B0868C01A53
:100FF0001423B0FBF3F08000086412480838C8637B
:10100000022081F821000868026843F6F0708243EC
:10101000D1E901031843CB6818430B6918434B69A6
:1010200018438B691843CB69184302430868026070
:1010300000208863012081F82100002081F8200031
:1010400000BFD1E7080002402DE9F04104460D46FB
:1010500016461F464FF0000800BF94F820000128F4
:1010600002D10220BDE8F081012084F8200000BFF9
:1010700094F8210001282CD1022084F821000020BE
:10108000A0632068006820F00100216808603B46EA
:10109000324629462046FFF737FEE06A30B1206825
:1010A000006840F00E00216808600BE020680068CE
:1010B00020F00400216808602068006840F00A0001
:1010C000216808602068006840F00100216808601D
:1010D00006E000BF002084F8200000BF4FF00208A7
:1010E0004046BFE72DE9F8470346002294466EE1EB
:1010F0004FF0010808FA02F4D1F8008008EA040071
:10110000A0427DD1DFF8DCA2D1F80480A8EB0A0967
:10111000D0453AD014DCB8F1030F50D009DCB8F157
:10112000000F31D0B8F1010F1CD0B8F1020F49D136
:1011300020E0B8F1110F18D0B8F1120F42D11EE023
:10114000B9F5881F25D006DCB9F5803F20D0B9F568
:10115000801F37D11AE0B9F5001F18D0B9F5041F68
:1011600030D117E0D1F80CC02DE0D1F80C8008F197
:10117000040C28E0D1F80C8008F1080C23E0D1F829
:101180000C8008F10C0C1EE000BF00BF00BF00BFC8
:1011900000BF00BFD1F80880B8F1000F02D14FF0B6
:1011A000040C0BE0D1F80880B8F1010F03D14FF027
:1011B000080C1C6102E04FF0080C5C6103E04FF08A
:1011C000000C00E000BF00BFFF2801D8984601E0F6
:1011D00003F104084646FF2802D84FEA820803E0DC
:1011E000A2F108084FEA88084746D6F800804FF079
:1011F0000F0909FA07F928EA09080CFA07F900E0CB
:1012000088E048EA0908C6F80080D1F8048008F0B0
:101210008058B8F1805F7DD100BFDFF8CC81D8F86D
:10122000188048F00108DFF8C091C9F81880C84656
:10123000D8F8188008F00108CDF8008000BF00BF82
:101240004FEAB9384FEA920958F829504FEA8278A4
:101250004FEA18794FF00F0808FA09F825EA08054F
:10126000DFF88881434502D14FF0000816E0DFF82F
:101270008081434502D14FF001080FE0DFF874810F
:10128000434502D14FF0020808E0DFF86C81434586
:1012900002D14FF0030801E04FF004084FEA8279D1
:1012A0004FEA197908FA09F848EA0505DFF84C8190
:1012B0004FEA920948F82950D1F8048008F48038A0
:1012C000B8F5803F0AD1DFF83881D8F8008048EAC5
:1012D0000008DFF82C91C9F8008009E0DFF82081D0
:1012E000D8F8008028EA0008DFF81491C9F80080D7
:1012F000D1F8048008F40038B8F5003F10D1DFF8C9
:10130000008108F10408D8F8008048EA0008DFF8F6
:10131000F09000E05AE009F10409C9F800800DE0FE
:10132000DFF8DC8008F10408D8F8008028EA00081B
:10133000DFF8CC9009F10409C9F80080D1F80480E5
:1013400008F48018B8F5801F0ED1DFF8B48008F1DA
:101350000808D8F8008048EA0008DFF8A49009F1EE
:101360000809C9F800800DE0DFF8948008F108084A
:10137000D8F8008028EA0008DFF8849009F108090D
:10138000C9F80080D1F8048008F40018B8F5001FEF
:101390000ED1DFF86C8008F10C08D8F8008048EA1C
:1013A0000008DFF85C9009F10C09C9F800800DE035
:1013B000DFF84C8008F10C08D8F8008028EA000813
:1013C000DFF83C9009F10C09C9F80080521CD1F8F3
:1013D000008028FA02F8B8F1000F7FF489AEBDE86A
:1013E000F8870000000011100010024000080140C2
:1013F000000C0140001001400014014008000140B1
:10140000000401400AB1016101E00B04036170476F
:101410000148006870470000000000200348006891
:10142000034909780844014908607047000000201A
:101430000800002010B50848006840F01000064978
:101440000860032000F0A8F80F2000F007F800F073
:101450002BF8002010BD00000020024070B50446AB
:101460000E4800784FF47A71B1FBF0F00C4909682E
:10147000B1FBF0F5284600F00BFC08B1012070BD6F
:10148000102C07D200222146501E00F047F80548D4
:10149000046001E00120F2E70020F0E708000020EE
:1014A0000C0000200400002008B500BF114880692E
:1014B00040F001000F4988610846806900F0010092
:1014C000009000BF00BF00BF0846C06940F08050D8
:1014D000C8610846C06900F08050009000BF00BF9E
:1014E00000BF0549486820F0E06040F000704860A7
:1014F00000BF08BD00100240000001400146084640
:10150000002809DB00F01F0301229A4043099B00D9
:1015100003F1E023C3F8002100BF70472DE9F05F1D
:1015200080460D461646002701F0F4F90746394675
:101530002A46334601F00700C0F1070ABAF1040F4A
:1015400002D94FF0040A01E0C0F1070AD14600F1C8
:10155000040ABAF1070F02D24FF0000A01E0A0F12D
:10156000030AD4464FF0010A0AFA09FAAAF1010A5D
:101570000AEA020A0AFA0CFA4FF0010B0BFA0CFB0A
:10158000ABF1010B0BEA030B4AEA0B042146404680
:1015900001F0C8F9BDE8F09F00BF00F00702064B5C
:1015A00019684FF6FF031940044B0B4343EA02212D
:1015B000014B196000BF70470CED00E00000FA0518
:1015C00070B504460D460CB9012070BD5A4800683C
:1015D00000F00700A8420ED25748006820F007002C
:1015E0002843554908600846006800F00700A842F3
:1015F00001D00120E9E7207800F0020002281DD187
:10160000207800F00400042805D14C48406840F4DC
:10161000E0604A494860207800F00800082805D1B9
:101620004648406840F46050444948604348406838
:1016300020F0F000A168084340494860207800F09D
:10164000010078B36068012806D13C48006800F4C6
:10165000003090B90120B8E76068022806D1374809
:10166000006800F0007040B90120AEE73348006820
:1016700000F0020008B90120A7E73048406820F0D8
:101680000300616808432D494860FFF7C1FE064624
:1016900009E0FFF7BDFE801B41F28831884202D984
:1016A000032092E707E02548406800F00C006168DD
:1016B000B0EB810FEDD12048006800F00700A84290
:1016C0000ED91D48006820F0070028431A49086019
:1016D0000846006800F00700A84201D0012074E726
:1016E000207800F00400042807D11448406820F452
:1016F000E060E168084311494860207800F0080084
:10170000082808D10D48406820F46050216940EA5B
:10171000C1000A49486000F03FF808494968C1F330
:101720000311074A515CC840064908600648006832
:10173000FFF794FE002048E700200240001002401E
:10174000A82900080C0000200400002001480068BF
:10175000704700000C00002000B5FFF7F7FF0449B8
:101760004968C1F30221034A515CC84000BD000032
:1017700000100240B829000800B5FFF7E7FF044950
:101780004968C1F3C221034A515CC84000BD000052
:1017900000100240B8290008F0B585B00FF26C0CBB
:1017A0009CE8E01001A8A0E8E0101CA52D680095B9
:1017B00000210022002300240020194D696801F057
:1017C0000C05F5B1042D02D0082D19D101E0154802
:1017D00019E001ADC1F38346AC5D01F4803555B12C
:1017E0000F4D6D68C5F340451DF805200D4D65434F
:1017F000B5FBF2F302E00C4D04FB05F3184602E0E2
:1018000000BF084800BF00BF05B0F0BD02030405DB
:10181000060708090A0B0C0D0E0F1010010200003C
:101820000010024000127A0000093D00F8B504469D
:101830000CB90120F8BD207800F00100002878D014
:10184000F848406800F00C0004280CD0F5484068C7
:1018500000F00C00082811D1F248406800F48030F4
:10186000B0F5803F0AD1EF48006800F4003000284E
:101870005FD0606800285CD10120DBE700BF6068B2
:10188000B0F5803F06D1E748006840F48030E54974
:10189000086028E0606858B9E248006820F48030A9
:1018A000E04908600846006820F4802008601AE0DB
:1018B0006068B0F5A02F0BD1DA48006840F48020B2
:1018C000D84908600846006840F4803008600AE0A3
:1018D000D448006820F48030D24908600846006887
:1018E00020F48020086000BF606888B1FFF790FD99
:1018F000054606E0FFF78CFD401B642801D9032054
:1019000098E7C848006800F400300028F2D010E0E2
:10191000FFF77EFD054606E0FFF77AFD401B6428D1
:1019200001D9032086E7BF48006800F40030002892
:10193000F2D1207800F00200022857D1B94840685F
:1019400000F00C0050B1B748406800F00C000828C7
:1019500018D1B448406800F4803098B9B1480068A4
:1019600000F0020020B12069012801D0012061E7C8
:10197000AC48006820F0F800616940EAC100A9495C
:10198000086033E02069E8B10120A7490860FFF74B
:101990003FFD054606E0FFF73BFD401B022801D94D
:1019A000032047E79F48006800F002000028F2D0BB
:1019B0009C48006820F0F800616940EAC10099493C
:1019C000086013E0002098490860FFF721FD0546F4
:1019D00006E0FFF71DFD401B022801D9032029E77F
:1019E0009048006800F002000028F2D1207800F052
:1019F000080008282DD1A069B8B101208B490860E2
:101A0000FFF706FD054606E0FFF702FD401B022832
:101A100001D903200EE78348406A00F00200002845
:101A2000F2D0012000F062FC13E000207F49086042
:101A3000FFF7EEFC054606E0FFF7EAFC401B022834
:101A400001D90320F6E67748406A00F0020000283A
:101A5000F2D1207800F00400042873D100277148E7
:101A6000C06900F0805070B900BF6E48C06940F096
:101A700080506C49C8610846C06900F080500090F1
:101A800000BF00BF01276A48006800F48070B0B949
:101A90006748006840F4807065490860FFF7B8FC4B
:101AA000054606E0FFF7B4FC401B642801D903207B
:101AB000C0E65F48006800F480700028F2D000BFE4
:101AC000E068012806D15748006A40F001005549F6
:101AD000086227E0E06858B95248006A20F0010027
:101AE000504908620846006A20F00400086219E0C4
:101AF000E06805280BD14B48006A40F004004949D2
:101B000008620846006A40F0010008620AE04548A1
:101B1000006A20F00100434908620846006A20F08C
:101B20000400086200BFE068A0B1FFF771FC054641
:101B300009E0FFF76DFC401B41F28831884202D971
:101B4000032077E622E03748006A00F00200002810
:101B5000EFD012E0FFF75CFC054608E0FFF758FC09
:101B6000401B41F28831884201D9032062E62D48AA
:101B7000006A00F002000028F0D1012F05D12948A9
:101B8000C06920F080502749C86100BFE069C8B330
:101B90002448406800F00C00082860D0E069022862
:101BA00048D1002020490866FFF732FC054606E0D0
:101BB000FFF72EFC401B022801D903203AE6194802
:101BC000006800F000700028F2D1206AB0F5803F74
:101BD00007D11448406820F40030A1680843114937
:101BE0004860D4E9080108430E49496821F474119A
:101BF00008430C49486001200B490866FFF708FCC0
:101C0000054607E03DE0FFF703FC401B022801D931
:101C100003200FE60348006800F000700028F2D0AF
:101C20002FE00000001002400000424280044242C7
:101C300000700040002014490866FFF7E9FB0546E4
:101C400006E0FFF7E5FB401B022801D90320F1E580
:101C50000E48006800F000700028F2D111E0E06941
:101C6000012800D1E6E50948466806F48031206A7B
:101C7000814204D106F47011606A814201D00120D2
:101C8000D8E50020D6E500000000424200100240E6
:101C900070B504462546681EB0F1807F01D301204F
:101CA0000FE0681E4FF0E02148610F214FF0FF3038
:101CB00000F038FE00204FF0E02188610720086125
:101CC000002070BD704770B504460025206840694B
:101CD000C0F3C01594F83D0021280ED16DB12068E5
:101CE000406920F0800021684861606B10B1606B32
:101CF000FFF724F8204600F0E7FB20684069C0F3B6
:101D0000801594F83E0022280ED16DB120684069FC
:101D100020F0400021684861A06B10B1A06BFFF774
:101D20000DF8204600F0A5FB002070BD70470000B4
:101D30002DE9F84F0446206805682068C6682068C9
:101D400047694FF00009CA4605F00F09B9F1000FC5
:101D50000AD105F0200038B106F0200020B120465D
:101D600000F0BCFBBDE8F88FB9F1000F71D007F0AF
:101D7000010018B906F4907000286AD005F001003F
:101D800030B106F4807018B1206C40F0010020647E
:101D900005F0040030B107F0010018B1206C40F0EC
:101DA0000200206405F0020030B107F0010018B114
:101DB000206C40F00400206405F0080048B106F0F3
:101DC000200010B907F0010018B1206C40F00800A5
:101DD0002064206C68B305F0200028B106F02000D4
:101DE00010B1204600F07AFB20684069C0F3801AE9
:101DF000206C00F0080010B9BAF1000F22D0204684
:101E000000F037FB2068406900F04000B0B1206866
:101E1000406920F0400021684861A06B50B15648ED
:101E2000A16B4863A06BFEF7B5FF10B1A06B416BCF
:101E300088470CE02046FFF779FF08E02046FFF7CF
:101E400075FF04E02046FFF771FF0020206489E75A
:101E5000FFE7206B012878D105F01000002874D02E
:101E600006F01000002870D000BF0020009020680D
:101E70000068009020684068009000BF00BF2068A4
:101E8000406900F04000C0B3A06B006840681FFAD2
:101E900080F8B8F1000F2FD0A08D40452CDDA4F8BC
:101EA0002E80A06B806920281FD02068C06820F495
:101EB00080702168C8602068406920F001002168B6
:101EC00048612068406920F0400021684861202076
:101ED00084F83E00002020632068C06820F01000D5
:101EE0002168C860A06BFEF729FFA08DE28D801AE3
:101EF00081B22046FFF7E6FE34E7FFE7A08DE18DD3
:101F0000401A1FFA80F8E08DE8B1B8F1000F1AD03E
:101F10002068C06820F490702168C860206840691B
:101F200020F0010021684861202084F83E00002054
:101F300020632068C06820F010002168C860414616
:101F40002046FFF7BFFE0DE7FFE705F0800030B148
:101F500006F0800018B1204600F0FCFB02E705F017
:101F6000400030B106F0400018B1204600F09CFA65
:101F7000F8E600BFF6E600008723000810B5044627
:101F80000CB9012010BDA06900B100E000BF94F8B9
:101F90003D0028B9002084F83C00204600F028F8D5
:101FA000242084F83D002068C06820F40050216897
:101FB000C860204600F004FB2068006920F49040CF
:101FC000216808612068406920F02A002168486182
:101FD0002068C06840F400502168C8600020206478
:101FE000202084F83D0084F83E000020CAE700006D
:101FF00010B586B00446002002900390049005902E
:102000002B492068884250D100BF2A48806940F49B
:102010008040284988610846806900F4804001902A
:1020200000BF00BF00BF0846806940F0040088611F
:102030000846806900F00400019000BF00BF481509
:102040000290022003900320059002A91A48FFF78E
:1020500049F84FF480600290002003900120049022
:1020600002A91548FFF73EF81448154908600020FA
:1020700048600021124881608021C1600021016117
:1020800041618161C161FEF7ABFF08B1FEF753FE0C
:1020900000BF0B48A063446200BF00221146252008
:1020A000FFF73CFA2520FFF729FA06B010BD000023
:1020B0000038014000100240000801405800024072
:1020C0006001002070B504460D46164694F83E00A7
:1020D000202816D105B10EB9012070BD00BF94F8BB
:1020E0003C00012801D10220F7E7012084F83C00E0
:1020F00000BF0020206332462946204600F0DEFA69
:10210000EBE70220E9E7704770472DE9F84F0446F6
:102110000E46174699464FF0000A94F83D002028D5
:102120005AD106B117B90120BDE8F88F00BF94F865
:102130003C00012801D10220F6E7012084F83C0090
:1021400000BF00202064212084F83D00FFF760F9E3
:102150008246A784E784A068B0F5805F04D1206937
:1021600010B90025B04602E035464FF0000800BF28
:10217000002084F83C0000BF1BE053460022802171
:102180002046CDF8009000F015FB08B10320CBE706
:1021900045B9B8F80000C0F308002168486008F1AC
:1021A000020803E02878216848606D1CE08C401E1E
:1021B000E084E08C0028E0D15346002240212046F4
:1021C000CDF8009000F0F6FA08B10320ACE720202B
:1021D00084F83D000020A7E70220A5E7704700BF74
:1021E000FEE7000008B500BF0A48406940F0010062
:1021F000084948610846406900F00100009000BFAE
:1022000000BF002211460F20FFF788F90F20FFF7CB
:1022100075F908BD0010024000B585B0002001909E
:1022200002900390049000BF1D48806940F01000A8
:102230001B4988610846806900F01000009000BFCB
:1022400000BF00BF0846806940F020008861084652
:10225000806900F02000009000BF00BF00BF08466A
:10226000806940F0040088610846806900F004003D
:10227000009000BF00BF00224FF400510948FFF753
:10228000C1F84FF40050019001200290002003900B
:102290000220049001A90348FEF724FF05B000BD09
:1022A000001002400010014010B50B480B490860B7
:1022B0004FF4E1304860002108488160C16001614D
:1022C0000C21416100218161C161FFF757FE08B116
:1022D000FEF731FD10BD0000003801401C01002058
:1022E00000BFFEE700BFFEE77047000008B50849E1
:1022F0000968C9084FF47A72B1FBF2F141430091C9
:1023000000BF00BF00994A1E00920029F9D108BD04
:102310000C000020704710B5FFF780F810BD00B525
:102320008FB0282105A8FDF7F9FF14216846FDF7B5
:10233000F5FF012005900004069000200790012081
:10234000099002200C90C1030D914FF4E0110E9101
:1023500005A8FFF76BFA08B1FEF7EDFC0F2000901F
:1023600002200190002002904FF480600390002032
:10237000049002216846FFF723F908B1FEF7DBFC61
:102380000FB000BD704770B505466C6A0020E0854F
:10239000E0842046FFF7CAFC70BD70B506460025F4
:1023A000746A20684069C0F3C01594F83D00212884
:1023B00005D125B10020E084204600F085F8206892
:1023C0004069C0F3801594F83E00222805D125B15C
:1023D0000020E085204600F04CF8206C40F0100012
:1023E00020642046FFF7A2FC70BD70B505466C6AFC
:1023F0002868006800F02000F8B90020E085206817
:10240000C06820F480702168C8602068406920F0AE
:102410000100216848612068406920F0400021687F
:102420004861202084F83E00206B012805D12068F7
:10243000C06820F010002168C860206B012804D11A
:10244000A18D2046FFF73EFC02E02046FFF75BFE31
:1024500070BD70B505466C6A206B012805D1A08D52
:1024600041082046FFF72EFC02E02046FFF74CFE15
:1024700070BD0168C96821F490710268D16001687B
:10248000496921F0010102685161016B012905D1FF
:102490000168C96821F010010268D160202180F82C
:1024A0003E1000210163704710B504462068C068E3
:1024B00020F040002168C860202084F83D002046BC
:1024C000FFF78CFE002010BD0168C96821F0C00133
:1024D0000268D160202180F83D107047F8B50446AD
:1024E00094F83E00222869D1A068B0F5805F0CD135
:1024F000206950B90025A66A20684068C0F308002A
:102500003080A06A801CA06215E0A56A0026A06841
:10251000B0F5805F03D0A06828B9206918B9206899
:102520004068287004E02068406800F07F00287050
:10253000A06A401CA062E08D401E80B2E085A8BB6E
:102540002068C06820F020002168C8602068C0684A
:1025500020F480702168C8602068406920F0010084
:1025600021684861202084F83E00206B01281ED19C
:10257000002020632068C06820F010002168C86037
:102580002068006800F0100010280AD100BF002069
:10259000009020680068009020684068009000BFAC
:1025A00000BFA18D2046FFF78DFB03E004E020462D
:1025B000FFF7A9FD0020F8BD0020FCE70220FAE7A4
:1025C00070B504462168096921F44051E26811435D
:1025D000226811612269A1681143626941EA02051A
:1025E0002168C96841F20C62914329432268D16095
:1025F0002168496921F44071A2691143226851613F
:102600002D4A2168914202D1FFF7B6F801E0FFF7A9
:10261000A3F800EBC00101EB001162689200B1FB6E
:10262000F2F100EBC00202EB001263689B00B2FB08
:10263000F3F26423B2FBF3F202EBC20303EB0212E8
:10264000A1EB8201322202EB01116422B1FBF2F113
:1026500001F0F00100EBC00202EB001263689B0086
:10266000B2FBF3F26423B2FBF3F201EB021200EBD4
:10267000C00101EB001163689B00B1FBF3F100EBBB
:10268000C00303EB00136668B600B3FBF6F36426E1
:10269000B3FBF6F303EBC30606EB0313A1EB8301D5
:1026A000322303EB01116423B1FBF3F101F00F01BD
:1026B00011442268916070BD0038014077B581B047
:1026C000044615460298A062A585002020642220B9
:1026D00084F83E001C48A16B88621C48A16BC8624C
:1026E0001B48A16B08630020A16B486302AE3268EF
:1026F0002368191D2B46A06BFEF7A6FC00BF002027
:10270000009020680068009020684068009000BF3A
:1027100000BF00BF002084F83C0000BF2068C068F4
:1027200040F480702168C8602068406940F0010072
:10273000216848612068406940F040002168486194
:10274000002004B070BD0000EB23000853240008F3
:102750009B230008014691F83D00212828D1886874
:10276000B0F5805F0BD1086948B90A6A1088C0F3D8
:1027700008000B685860086A801C086205E00B6A54
:10278000581C086218780B685860C88C401E80B2CC
:10279000C88458B90868C06820F080000B68D86009
:1027A0000868C06840F040000B68D860002070479F
:1027B0000220FCE72DE9F04104460D4617469846F5
:1027C000069E21E0701CF8B12EB1FEF721FEA0EBB1
:1027D0000800B04218D92068C06820F4D070216881
:1027E000C8602068406920F001002168486120200D
:1027F00084F83D0084F83E0000BF002084F83C00CF
:1028000000BF0320BDE8F081206800682840A8428E
:1028100001D1012000E00020B842D3D00020F1E730
:1028200010B50348FFF784FA014800F03DF810BDE9
:102830001C01002070B505461048FFF744FA104807
:1028400000684068C0F1FF00C4B221460DA0FDF74A
:10285000C7FC4FF40073224611490848FFF755FCA6
:1028600010A0FDF7BDFC21460D48FDF735FD002405
:10287000FF220B490148FFF725FC70BD1C01002019
:10288000600100205265636569766520446174616A
:10289000286C656E677468203D202564293A200005
:1028A0001C0000200D0A000038B504460F480068DF
:1028B0000F49884218D10D4800680068C0F3001025
:1028C00090B100BF002000900848006800680090A8
:1028D000064800684068009000BF00BF05A0FDF7F3
:1028E0007FFC2046FFF7A6FF38BD00001C0100203A
:1028F000003801400D0A55415254312049646C653D
:10290000204951522044657465637465640D0A0062
:1029100000BFFEE702480068C0F3022070470000D5
:102920000CED00E010B5002804DB0A07130E054A81
:10293000135406E00A07140E034A00F00F031B1F8E
:10294000D45410BD00E400E018ED00E038B50446B2
:102950000D46E0B200900223012269460248FFF7CB
:10296000D4FB204638BD00001C010020FEF762FDAC
:10297000FFF7D5FCFFF750FCFFF734FCFFF794FCA2
:1029800007480068C06840F0100005490968C86041
:10299000FF2204490248FFF795FB00BFFEE7000055
:1029A0001C0100201C0000200000000000000000AE
:1029B00001020304060708090000000001020304E5
:1029C0003A7474003A7474003A747400EC29000884
:1029D000000000201C00000028010008082A000850
:1029E0001C000020E4080000440100080000000072
:1029F00010000000010000000024F40000000000AE
:082A00000000000000000000CE
:04000005080000ED02
:00000001FF
