:020000040800F2
:10000000E804002005010008DD170008FB140008C3
:10001000D917000871010008711C000800000000D9
:100020000000000000000000000000000D180008A3
:100030007501000800000000E11700080F18000813
:100040001F0100081F0100081F0100081F01000810
:100050001F0100081F010008770100088101000846
:100060008B010008950100081F0100081F0100080E
:100070001F0100081F0100081F0100081F010008E0
:100080001F0100081F0100081F0100081F010008D0
:100090001F0100081F0100081F0100081F010008C0
:1000A0001F0100081F0100081F0100081F010008B0
:1000B0001F0100081F0100081F0100081F010008A0
:1000C0001F0100081F0100081F0100081F01000890
:1000D0001F0100081F0100081F0100081F01000880
:1000E0001F0100081F0100081F010008DFF810D0E1
:1000F00000F02CF8004800471D1D0008AFF30080F9
:10010000E80400200648804706480047FEE7FEE76F
:10011000FEE7FEE7FEE7FEE7FEE7FEE7FEE7FEE7B7
:100120007D180008ED000008D2B201E000F8012BB4
:10013000491EFBD270470022F6E710B513460A4667
:1001400004461946FFF7F0FF204610BD064C074D48
:1001500006E0E06840F0010394E807009847103497
:10016000AC42F6D3FFF7C6FF741D0008941D0008CB
:1001700000BFFEE7704710B5012000F04FF810BD3A
:1001800010B5022000F04AF810BD10B5042000F0B0
:1001900045F810BD10B5082000F040F810BD72B64B
:1001A00000BFFEE710B50446012C04D0022C0BD092
:1001B000082C1BD111E04FF4FA600E49096848631E
:1001C0000DA001F057FD12E04FF47A70094909685B
:1001D00048630CA001F04EFD09E04FF4966005491C
:1001E000096848630AA001F045FD00E000BF00BFB8
:1001F00010BD0000140000204750494F5F50494E89
:100200005F3000004750494F5F50494E5F3100005A
:100210004750494F5F50494E5F33000010B50446C8
:1002200004480068204020B1024804602046FFF7DF
:10023000B9FF10BD140401402DE9F8470346002220
:1002400094466EE14FF0010808FA02F4D1F80080FC
:1002500008EA0400A0427DD1DFF8DCA2D1F80480D6
:10026000A8EB0A09D0453AD014DCB8F1030F50D0FE
:1002700009DCB8F1000F31D0B8F1010F1CD0B8F192
:10028000020F49D120E0B8F1110F18D0B8F1120FC8
:1002900042D11EE0B9F5881F25D006DCB9F5803FB4
:1002A00020D0B9F5801F37D11AE0B9F5001F18D05A
:1002B000B9F5041F30D117E0D1F80CC02DE0D1F80A
:1002C0000C8008F1040C28E0D1F80C8008F1080C2F
:1002D00023E0D1F80C8008F10C0C1EE000BF00BF39
:1002E00000BF00BF00BF00BFD1F80880B8F1000F09
:1002F00002D14FF0040C0BE0D1F80880B8F1010FE7
:1003000003D14FF0080C1C6102E04FF0080C5C6157
:1003100003E04FF0000C00E000BF00BFFF2801D851
:10032000984601E003F104084646FF2802D84FEA48
:10033000820803E0A2F108084FEA88084746D6F889
:1003400000804FF00F0909FA07F928EA09080CFAAA
:1003500007F900E088E048EA0908C6F80080D1F80B
:10036000048008F08058B8F1805F7DD100BFDFF8CD
:10037000CC81D8F8188048F00108DFF8C091C9F89E
:100380001880C846D8F8188008F00108CDF8008019
:1003900000BF00BF4FEAB9384FEA920958F8295018
:1003A0004FEA82784FEA18794FF00F0808FA09F8F7
:1003B00025EA0805DFF88881434502D14FF000089F
:1003C00016E0DFF88081434502D14FF001080FE0CD
:1003D000DFF87481434502D14FF0020808E0DFF8EE
:1003E0006C81434502D14FF0030801E04FF004084F
:1003F0004FEA82794FEA197908FA09F848EA0505BF
:10040000DFF84C814FEA920948F82950D1F804806E
:1004100008F48038B8F5803F0AD1DFF83881D8F881
:10042000008048EA0008DFF82C91C9F8008009E054
:10043000DFF82081D8F8008028EA0008DFF814915E
:10044000C9F80080D1F8048008F40038B8F5003FFE
:1004500010D1DFF8008108F10408D8F8008048EADC
:100460000008DFF8F09000E05AE009F10409C9F84B
:1004700000800DE0DFF8DC8008F10408D8F8008087
:1004800028EA0008DFF8CC9009F10409C9F80080D7
:10049000D1F8048008F48018B8F5801F0ED1DFF879
:1004A000B48008F10808D8F8008048EA0008DFF8AE
:1004B000A49009F10809C9F800800DE0DFF89480E4
:1004C00008F10808D8F8008028EA0008DFF88490CE
:1004D00009F10809C9F80080D1F8048008F400186F
:1004E000B8F5001F0ED1DFF86C8008F10C08D8F8C1
:1004F000008048EA0008DFF85C9009F10C09C9F8AF
:1005000000800DE0DFF84C8008F10C08D8F800807E
:1005100028EA0008DFF83C9009F10C09C9F80080CE
:10052000521CD1F8008028FA02F8B8F1000F7FF4CD
:1005300089AEBDE8F88700000000111000100240ED
:1005400000080140000C014000100140001401406F
:1005500008000140000401400AB1016101E00B0400
:1005600003617047014800687047000000000020E8
:100570000348006803490978084401490860704746
:10058000000000200800002010B50848006840F076
:10059000100006490860032000F0A8F80F2000F0C2
:1005A00007F800F02BF8002010BD000000200240EA
:1005B00070B504460E4800784FF47A71B1FBF0F044
:1005C0000C490968B1FBF0F5284600F00BFC08B1B6
:1005D000012070BD102C07D200222146501E00F0D1
:1005E00047F80548046001E00120F2E70020F0E749
:1005F000080000200C0000200400002008B500BF07
:100600001148806940F001000F49886108468069FF
:1006100000F00100009000BF00BF00BF0846C069A5
:1006200040F08050C8610846C06900F080500090DA
:1006300000BF00BF00BF0549486820F0E06040F0FF
:100640000070486000BF08BD00100240000001407B
:1006500001460846002809DB00F01F0301229A40EA
:1006600043099B0003F1E023C3F8002100BF70475A
:100670002DE9F05F80460D461646002701F002FB8B
:10068000074639462A46334601F00700C0F1070AFB
:10069000BAF1040F02D94FF0040A01E0C0F1070AD1
:1006A000D14600F1040ABAF1070F02D24FF0000A56
:1006B00001E0A0F1030AD4464FF0010A0AFA09FA50
:1006C000AAF1010A0AEA020A0AFA0CFA4FF0010B2F
:1006D0000BFA0CFBABF1010B0BEA030B4AEA0B0420
:1006E0002146404601F0D6FABDE8F09F00BF00F079
:1006F0000702064B19684FF6FF031940044B0B43E2
:1007000043EA0221014B196000BF70470CED00E085
:100710000000FA0570B504460D460CB9012070BD05
:100720005A48006800F00700A8420ED257480068F7
:1007300020F007002843554908600846006800F08B
:100740000700A84201D00120E9E7207800F002006C
:1007500002281DD1207800F00400042805D14C485F
:10076000406840F4E0604A494860207800F00800A2
:10077000082805D14648406840F460504449486024
:100780004348406820F0F000A168084340494860B1
:10079000207800F0010078B36068012806D13C4859
:1007A000006800F4003090B90120B8E760680228C2
:1007B00006D13748006800F0007040B90120AEE76C
:1007C0003348006800F0020008B90120A7E730486C
:1007D000406820F00300616808432D494860FFF736
:1007E000C1FE064609E0FFF7BDFE801B41F28831DD
:1007F000884202D9032092E707E02548406800F0CC
:100800000C006168B0EB810FEDD12048006800F06A
:100810000700A8420ED91D48006820F007002843B1
:100820001A4908600846006800F00700A84201D095
:10083000012074E7207800F00400042807D1144850
:10084000406820F4E060E16808431149486020787E
:1008500000F00800082808D10D48406820F46050D6
:10086000216940EAC1000A49486000F03FF80849A0
:100870004968C1F30311074A515CC8400649086042
:1008800006480068FFF794FE002048E70020024079
:10089000001002405C1D00080C0000200400002035
:1008A00001480068704700000C00002000B5FFF709
:1008B000F7FF04494968C1F30221034A515CC8406B
:1008C00000BD0000001002406C1D000800B5FFF7DD
:1008D000E7FF04494968C1F3C221034A515CC8409B
:1008E00000BD0000001002406C1D0008F0B585B08E
:1008F0000FF26C0C9CE8E01001A8A0E8E0101CA529
:100900002D68009500210022002300240020194DAD
:10091000696801F00C05F5B1042D02D0082D19D13C
:1009200001E0154819E001ADC1F38346AC5D01F467
:10093000803555B10F4D6D68C5F340451DF8052054
:100940000D4D6543B5FBF2F302E00C4D04FB05F3DE
:10095000184602E000BF084800BF00BF05B0F0BD68
:1009600002030405060708090A0B0C0D0E0F1010F0
:10097000010200000010024000127A0000093D0050
:10098000F8B504460CB90120F8BD207800F001004C
:10099000002878D0F848406800F00C0004280CD0FB
:1009A000F548406800F00C00082811D1F248406872
:1009B00000F48030B0F5803F0AD1EF48006800F4C1
:1009C000003000285FD0606800285CD10120DBE7A0
:1009D00000BF6068B0F5803F06D1E748006840F48A
:1009E0008030E549086028E0606858B9E24800684E
:1009F00020F48030E04908600846006820F4802038
:100A000008601AE06068B0F5A02F0BD1DA480068E2
:100A100040F48020D84908600846006840F48030DF
:100A200008600AE0D448006820F48030D2490860A9
:100A30000846006820F48020086000BF606888B124
:100A4000FFF790FD054606E0FFF78CFD401B64288C
:100A500001D9032098E7C848006800F40030002856
:100A6000F2D010E0FFF77EFD054606E0FFF77AFDC5
:100A7000401B642801D9032086E7BF48006800F4C2
:100A800000300028F2D1207800F00200022857D16F
:100A9000B948406800F00C0050B1B748406800F019
:100AA0000C00082818D1B448406800F4803098B988
:100AB000B148006800F0020020B12069012801D08F
:100AC000012061E7AC48006820F0F800616940EA65
:100AD000C100A949086033E02069E8B10120A749B5
:100AE0000860FFF73FFD054606E0FFF73BFD401BB2
:100AF000022801D9032047E79F48006800F0020060
:100B00000028F2D09C48006820F0F800616940EAB3
:100B1000C1009949086013E0002098490860FFF778
:100B200021FD054606E0FFF71DFD401B022801D907
:100B3000032029E79048006800F002000028F2D165
:100B4000207800F0080008282DD1A069B8B1012054
:100B50008B490860FFF706FD054606E0FFF702FD3A
:100B6000401B022801D903200EE78348406A00F0A9
:100B700002000028F2D0012000F034FE13E0002033
:100B80007F490860FFF7EEFC054606E0FFF7EAFC48
:100B9000401B022801D90320F6E67748406A00F09E
:100BA00002000028F2D1207800F00400042873D15C
:100BB00000277148C06900F0805070B900BF6E48CE
:100BC000C06940F080506C49C8610846C06900F0B7
:100BD0008050009000BF00BF01276A48006800F401
:100BE0008070B0B96748006840F48070654908605B
:100BF000FFF7B8FC054606E0FFF7B4FC401B64288D
:100C000001D90320C0E65F48006800F48070002826
:100C1000F2D000BFE068012806D15748006A40F0D2
:100C200001005549086227E0E06858B95248006A57
:100C300020F00100504908620846006A20F00400D4
:100C4000086219E0E06805280BD14B48006A40F0C3
:100C50000400494908620846006A40F00100086241
:100C60000AE04548006A20F001004349086208464E
:100C7000006A20F00400086200BFE068A0B1FFF73E
:100C800071FC054609E0FFF76DFC401B41F288311D
:100C9000884202D9032077E622E03748006A00F054
:100CA00002000028EFD012E0FFF75CFC054608E0E8
:100CB000FFF758FC401B41F28831884201D90320DC
:100CC00062E62D48006A00F002000028F0D1012FF2
:100CD00005D12948C06920F080502749C86100BF6C
:100CE000E069C8B32448406800F00C00082860D0D0
:100CF000E069022848D1002020490866FFF732FC4D
:100D0000054606E0FFF72EFC401B022801D9032010
:100D10003AE61948006800F000700028F2D1206A15
:100D2000B0F5803F07D11448406820F40030A16836
:100D3000084311494860D4E9080108430E4949684D
:100D400021F4741108430C49486001200B490866DE
:100D5000FFF708FC054607E03DE0FFF703FC401BFA
:100D6000022801D903200FE60348006800F0007054
:100D70000028F2D02FE000000010024000004242A4
:100D80008004424200700040002014490866FFF7CA
:100D9000E9FB054606E0FFF7E5FB401B022801D909
:100DA0000320F1E50E48006800F000700028F2D141
:100DB00011E0E069012800D1E6E50948466806F43B
:100DC0008031206A814204D106F47011606A814248
:100DD00001D00120D8E50020D6E500000000424205
:100DE0000010024070B504462546681EB0F1807FB1
:100DF00001D301200FE0681E4FF0E02148610F2170
:100E00004FF0FF3000F046FF00204FF0E0218861F6
:100E100007200861002070BD30B502460B4600BFB8
:100E200092F83C00012801D1022030BD012082F857
:100E30003C0000BF022082F83D0010684468106842
:100E4000816824F070041868044310684460104DF1
:100E50001068A8420BD01068B0F1804F07D00D4D3C
:100E60001068A84203D00C4D1068A84205D121F0AB
:100E700080015868014310688160012082F83D00BC
:100E800000BF002082F83C0000BF00BFCDE700009B
:100E9000002C0140000400400008004010B504464A
:100EA0000CB9012010BD94F83D0028B9002084F849
:100EB0003C00204600F026F8022084F83D00211D69
:100EC000206800F0DDFC012084F8460000BF84F8B3
:100ED0003E0001213F200155402001554120015590
:100EE00000BF00BF012084F8420043200155442088
:100EF00001554520015500BF012084F83D00002028
:100F0000D0E7000008B50168B1F1804F0DD100BFF6
:100F10000F49C96941F001010D4AD1611146C96902
:100F200001F00101009100BF11E00A4A01689142FD
:100F30000DD100BF0649C96941F00401044AD161DD
:100F40001146C96901F00401009100BF00BF08BD4E
:100F500000100240000800402DE9F04104460D4613
:100F600000BF94F83C00012802D10220BDE8F081C6
:100F7000012084F83C0000BF022084F83D00206876
:100F8000866826F0770626F47F4620688660286803
:100F9000502833D00CDC202850D004DC00284BD063
:100FA000102851D149E0302849D040284CD139E0AF
:100FB00060282DD0702807D0B0F5805F03D0B0F541
:100FC000005F41D10DE040E0D5E902136A68206876
:100FD00000F0A1FC2068866846F0770620688660ED
:100FE00033E0D5E902136A68206800F094FC2068B9
:100FF000806840F480402168886026E0EA6869687B
:10100000206800F059FD5021206800F08FFC1CE0A2
:10101000EA686968206800F062FD6021206800F0DD
:1010200085FC12E0EA686968206800F045FD40210F
:10103000206800F07BFC08E000BF00BF00BF29680B
:10104000206800F073FC00E000BF00BF012084F8BE
:101050003D0000BF002084F83C0000BF00BF85E7D2
:1010600010B586B0044600200290039004900590CD
:101070002068B0F1804F17D100BF1A48806940F056
:101080000400184988610846806900F00400019056
:1010900000BF00BF0F20029002200390059002A91C
:1010A0001148FFF7C9F81AE010492068884216D1A4
:1010B00000BF0C48806940F008000A498861084672
:1010C000806900F00800019000BF00BF4815029041
:1010D00002200390059002A90548FFF7ADF806B07D
:1010E00010BD000000100240000801400008004050
:1010F000000C014070B504460D46164600BF94F83A
:101100003C00012801D1022070BD012084F83C0080
:1011100000BF36B1042E1BD0082E31D00C2E5ED16C
:1011200045E02946206800F00BFC2068806940F00B
:101130000800216888612068806920F00400216827
:10114000886120688069296908432168886147E0CF
:101150002946206800F024FC2068806940F4006083
:10116000216888612068806920F480602168886136
:1011700020688069296940EA0120216888612FE0A0
:101180002946206800F040FC2068C06940F0080053
:101190002168C8612068C06920F004002168C86126
:1011A0002068C069296908432168C86118E0294698
:1011B000206800F05DFC2068C06940F40060216890
:1011C000C8612068C06920F480602168C861206817
:1011D000C069296940EA01202168C86100E000BFB8
:1011E00000BF00BF002084F83C0000BF00BF8BE7B9
:1011F00010B504460CB9012010BD94F83D0028B983
:10120000002084F83C00204600F025F8022084F8F5
:101210003D00211D206800F033FB012084F84600CA
:1012200000BF84F83E0001213F20015540200155B8
:101230004120015500BF00BF012084F84200432037
:101240000155442001554520015500BF012084F877
:101250003D000020D0E7704770B504460D4615B933
:1012600094F83E000BE0042D02D13F20005D06E023
:10127000082D02D14020005D01E04120005D0128E1
:1012800001D0012070BD1DB9022084F83E000EE09F
:10129000042D03D102213F20015508E0082D03D180
:1012A00002214020015502E0022141200155012286
:1012B0002946206800F01EFB19492068884201D1A8
:1012C000012000E0002028B12068406C40F400407C
:1012D000216848641249206888420BD02068B0F128
:1012E000804F07D00F492068884203D00E492068FC
:1012F00088420CD12068806800F00706062E0CD0CA
:101300002068006840F001002168086005E020685E
:10131000006840F00100216808600020B2E700008A
:10132000002C0140000400400008004010B50446B5
:101330000CB9012010BDA06900B100E000BF94F815
:101340003D0028B9002084F83C00204600F028F831
:10135000242084F83D002068C06820F400502168F3
:10136000C860204600F0D0FB2068006920F490405F
:10137000216808612068406920F02A0021684861DE
:101380002068C06840F400502168C86000202064D4
:10139000202084F83D0084F83E000020CAE70000C9
:1013A00010B586B00446002002900390049005908A
:1013B0001A49206888422ED100BF1948806940F43C
:1013C0008040174988610846806900F48040019098
:1013D00000BF00BF00BF0846806940F0040088617C
:1013E0000846806900F00400019000BF00BF481566
:1013F0000290022003900320059002A90948FEF7FD
:101400001BFF4FF48060029000200390049002A91B
:101410000448FEF711FF06B010BD0000003801407F
:1014200000100240000801402DE9F84F04460E4626
:10143000174699464FF0000A94F83D0020285AD1EB
:1014400006B117B90120BDE8F88F00BF94F83C0041
:10145000012801D10220F6E7012084F83C0000BFFA
:1014600000202064212084F83D00FFF77BF88246AD
:10147000A784E784A068B0F5805F04D1206910B923
:101480000025B04602E035464FF0000800BF0020BE
:1014900084F83C0000BF1BE0534600228021204618
:1014A000CDF8009000F0AEFB08B10320CBE745B9C2
:1014B000B8F80000C0F308002168486008F102088D
:1014C00003E02878216848606D1CE08C401EE084B1
:1014D000E08C0028E0D15346002240212046CDF880
:1014E000009000F08FFB08B10320ACE7202084F8C7
:1014F0003D000020A7E70220A5E700BFFEE70000AF
:1015000000B585B00020019002900390049000BFC8
:101510004248806940F0100040498861084680696F
:1015200000F01000009000BF00BF00BF08468069B7
:1015300040F0200088610846806900F0200000909B
:1015400000BF00BF00BF0846806940F0040088610A
:101550000846806900F00400009000BF00BF00BF93
:101560000846806940F0080088610846806900F0FC
:101570000800009000BF00BF00224FF4005128482F
:10158000FEF7EAFF00224FF480512648FEF7E4FF01
:101590004FF400500190012002900020039002209F
:1015A000049001A91E48FEF747FE0F2001901E4837
:1015B00002900120039001A91A48FEF73DFE4FF466
:1015C000805001900120029000200390022004909E
:1015D00001A91448FEF730FE002201210620FFF782
:1015E00047F80620FFF734F8002201210720FFF713
:1015F0003FF80720FFF72CF8002201210820FFF711
:1016000037F80820FFF724F8002201210920FFF70E
:101610002FF80920FFF71CF805B000BD00100240AC
:1016200000100140000C01400000211000B58DB0F9
:10163000002009900A900B900C90079008901C21B4
:101640006846FEF778FD4FF080402B490860472040
:10165000486000212848816044F61F61C160002174
:1016600001618161FFF71AFC08B1FEF798FD4FF4A4
:101670008050099009A92048FFF76EFC08B1FEF7D9
:101680008EFD1D48FFF7B4FD08B1FEF788FD002070
:101690000790089007A91848FFF7BEFB08B1FEF7AE
:1016A0007EFD6020009000200190029004900022B6
:1016B00069461148FFF71EFD08B1FEF770FD0422D0
:1016C00069460D48FFF716FD08B1FEF768FD0822D0
:1016D00069460948FFF70EFD08B1FEF760FD0C22D0
:1016E00069460548FFF706FD08B1FEF758FD0248B8
:1016F000FFF7B6FC0DB000BD1400002000B58DB0A2
:10170000002009900A900B900C90079008901C21E3
:101710006846FEF710FD20482049086040F2CF20BF
:10172000486000211D48816040F2CF71C1600021F6
:1017300001618161FFF7B2FB08B1FEF730FD4FF4A4
:101740008050099009A91548FFF706FC08B1FEF77B
:1017500026FD1248FFF74CFD08B1FEF720FD0020E2
:101760000790089007A90D48FFF756FB08B1FEF750
:1017700016FD6020009000200190029004900C2241
:1017800069460648FFF7B6FC08B1FEF708FD0348B6
:10179000FFF766FC0DB000BD000800405C000020B3
:1017A00010B50B480B4908604FF4E1304860002148
:1017B00008488160C16001610C21416100218161A3
:1017C000C161FFF7B3FD08B1FEF7E9FC10BD0000F1
:1017D00000380140A400002000BFFEE700BFFEE784
:1017E0007047000008B508490968C9084FF47A72C3
:1017F000B1FBF2F14143009100BF00BF00994A1EC6
:1018000000920029F9D108BD0C000020704710B5E6
:10181000FEF7AEFE10BD00B58FB0282105A8FEF77B
:101820008AFC14216846FEF786FC0120059000041E
:101830000690002007900120099002200C90C1031F
:101840000D914FF4E0110E9105A8FFF799F808B13A
:10185000FEF7A5FC0F2000900220019000200290CE
:101860004FF4806003900020049002216846FEF748
:1018700051FF08B1FEF793FC0FB000BD70470000A8
:1018800010B50268184B984208D0B0F1804F05D0CF
:10189000164B984202D0164B984203D122F07002A8
:1018A0004B681A43104B984208D0B0F1804F05D0D6
:1018B0000E4B984202D00E4B984203D122F4407254
:1018C000CB681A4322F080034C6943EA04020260A9
:1018D0008B68C3620B688362034B984201D10B692A
:1018E00003630123436110BD002C0140000400404C
:1018F0000008004030B501F01F05012404FA05F38B
:10190000046A9C430462046A01F01F0502FA05F5AB
:101910002C43046230BD30B50C46816821F47F4110
:1019200042EA032525432943816030BD0A46816888
:1019300021F0700142F007031943816070470000F5
:1019400030B5056A25F001050562026A43688469BD
:1019500024F0700424F003040D682C4322F00202EA
:101960008D682A430D4DA84206D100BF22F008021F
:10197000CD682A4322F00402084DA84207D123F47F
:10198000807323F400734D692B438D692B434360AF
:1019900084614D684563026230BD0000002C014047
:1019A00030B5056A25F010050562026A436884694E
:1019B00024F4E04424F440740D6844EA052422F041
:1019C00020028D6842EA05120E4DA84207D100BFE1
:1019D00022F08002CD6842EA051222F04002094D51
:1019E000A84209D123F4806323F400634D6943EADC
:1019F00085038D6943EA8503436084614D6885638F
:101A0000026230BD002C014030B5056A25F48075B6
:101A10000562026A4368C46924F0700424F0030478
:101A20000D682C4322F400728D6842EA05220F4DA6
:101A3000A84207D100BF22F40062CD6842EA052225
:101A400022F48062094DA84209D123F4805323F483
:101A500000534D6943EA05138D6943EA051343605A
:101A6000C4614D68C563026230BD0000002C0140B6
:101A700030B5056A25F480550562036A4468C26979
:101A800022F4E04222F440720D6842EA052223F477
:101A900000538D6843EA0533064DA84204D124F46F
:101AA00080444D6944EA85144460C2614D68056410
:101AB000036230BD002C014030B50B461446026A6B
:101AC000056A25F001050562816921F0F00141EA0E
:101AD000041122F00A021A438161026230BD30B55E
:101AE0000B461446056A25F0100505628169026AF5
:101AF00021F4704141EA043122F0A00242EA0312CB
:101B00008161026230BD000070B504462168096938
:101B100021F44051E2681143226811612269A168F1
:101B20001143626941EA02052168C96841F20C6209
:101B3000914329432268D1602168496921F44071A9
:101B4000A2691143226851612D4A2168914202D154
:101B5000FEF7BCFE01E0FEF7A9FE00EBC00101EBC1
:101B6000001162689200B1FBF2F100EBC00202EBDF
:101B7000001263689B00B2FBF3F26423B2FBF3F242
:101B800002EBC20303EB0212A1EB8201322202EB51
:101B900001116422B1FBF2F101F0F00100EBC0028F
:101BA00002EB001263689B00B2FBF3F26423B2FB0A
:101BB000F3F201EB021200EBC00101EB00116368CC
:101BC0009B00B1FBF3F100EBC00303EB001366686D
:101BD000B600B3FBF6F36426B3FBF6F303EBC306E0
:101BE00006EB0313A1EB8301322303EB0111642302
:101BF000B1FBF3F101F00F0111442268916070BD57
:101C0000003801402DE9F04104460D46174698463C
:101C1000069E21E0701CF8B12EB1FEF7A3FCA0EBEC
:101C20000800B04218D92068C06820F4D07021683C
:101C3000C8602068406920F00100216848612020C8
:101C400084F83D0084F83E0000BF002084F83C008A
:101C500000BF0320BDE8F081206800682840A8424A
:101C600001D1012000E00020B842D3D00020F1E7EC
:101C700000BFFEE7014A024900F02FB8FD1C000832
:101C80001000002002480068C0F3022070470000E6
:101C90000CED00E010B5002804DB0A07130E054A1E
:101CA000135406E00A07140E034A00F00F031B1F2B
:101CB000D45410BD00E400E018ED00E002E008C8D4
:101CC000121F08C1002AFAD170477047002001E0B6
:101CD00001C1121F002AFBD170472DE9F0411646C1
:101CE0000F460446002503E03946B047641C6D1CCE
:101CF00020780028F8D12846BDE8F08138B50446A0
:101D00000D46E0B200900223012269460248FFF727
:101D10008BFB204638BD0000A4000020FEF734FCF9
:101D2000FFF779FDFFF7ECFBFFF780FCFFF7E6FC20
:101D3000FFF736FD06A0FFF79DFF4FF4FA60064956
:101D40000968486300210448FFF786FA00BFFEE7F0
:101D500068656C6C6F00000014000020000000003B
:101D6000000000000102030406070809000000004B
:101D700001020304941D000800000020140000006C
:101D8000BC1C0008A81D000814000020D40400009A
:101D9000CC1C000800000000100000000100000042
:081DA0000024F4000000000023
:04000005080000ED02
:00000001FF
