:020000040800F2
:100000004806002005010008EF190008D71600086F
:10001000ED19000879030008B91D00080000000070
:10002000000000000000000000000000F3190008BC
:100030007B03000800000000F1190008F519000812
:100040001F0100081F0100081F0100081F01000810
:100050001F0100081F0100081F0100081F01000800
:100060001F0100081F0100081F0100081F010008F0
:100070001F0100081F0100081F0100081F010008E0
:100080001F0100081F0100081F0100081F010008D0
:100090001F0100081F0100081F0100081F010008C0
:1000A0001F0100081F0100081F0100081F010008B0
:1000B0001F0100081F010008591A00081F0100084D
:1000C0001F0100081F0100081F0100081F01000890
:1000D0001F0100081F0100081F0100081F01000880
:1000E0001F0100081F0100081F010008DFF810D0E1
:1000F00000F030F900480047F91F0008AFF3008016
:10010000480600200648804706480047FEE7FEE70D
:10011000FEE7FEE7FEE7FEE7FEE7FEE7FEE7FEE7B7
:10012000571A0008ED000008D2B201E000F8012BD8
:10013000491EFBD270470022F6E710B513460A4667
:1001400004461946FFF7F0FF204610BDF0B480EAE0
:100150000102D40F4200B2EB410F02D20246084620
:1001600011464A0042D0C30DDDB2C1F3C752AD1AE9
:10017000202D35DAC1F3160141F4000204B15242D8
:10018000C5F1200602FA06F12A411044B3EBD05F14
:1001900023D0C4B1012DA0EBC35009DCF0BC4FF05B
:1001A000004202EAC352DBB200F5000000F0A3B83F
:1001B000400000F1807000EBC350A0F1807040EA75
:1001C000D170490009E0490841EAC071A0EBC35071
:1001D00000F50000400800EBC350F0BC00F082B80E
:1001E0006142012202EB4101001BF6E7F0BC7047BF
:1001F00081F00041AAE780F00040A7E780EA010211
:1002000010B502F00043400022D04A001FD0010E7A
:1002100001EB1261C0F35600C2F3560240F4000035
:1002200042F40002A0FB022000047F39140400D035
:10023000401C50EA124001D44000491EC2B20C06D4
:1002400004EBD010401C4008802A02D003E00020BC
:1002500010BD20F00100002900DA0020184310BD75
:10026000C10F80EAE0700844CA079623002100F01D
:1002700042B800F0004220F00040C10DC0F316006B
:1002800040F400007F2901DA00207047962903DC42
:10029000C1F19601C84001E096398840002AF4D0A7
:1002A00040427047002801DBC0F10040002901DB1B
:1002B000C1F100418842704730B50B46014600202D
:1002C0002022012409E021FA02F59D4205D303FA18
:1002D00002F5491B04FA02F52844151EA2F1010299
:1002E000F1DC30BD0029A8BF7047401C490008BFA1
:1002F00020F00100704710B4B0FA80FC00FA0CF056
:1003000050EA010404BF10BC704749B1CCF120048D
:1003100021FA04F411FA0CF118BF0121214308431A
:10032000A3EB0C01CB1D4FEA00614FEA102042BF46
:10033000002010BC704700EBC35010440029A4BF3C
:1003400010BC7047401C490008BF20F0010010BCE1
:1003500070470000064C074D06E0E06840F00103DE
:1003600094E8070098471034AC42F6D3FFF7C2FE7A
:10037000FC2200081C230008FEE7704772B6FEE767
:100380002DE9F84FDFF8B891002409F1040A0AF1C9
:10039000040B23460F270BF1040EC9E00125A540ED
:1003A0002A40AA427DD1674ED1F804C0ACEB0608C2
:1003B000B44532D014DCBCF1030F3AD009DCBCF1F7
:1003C000000F2AD0BCF1010F1CD0BCF1020F31D1BB
:1003D0001DE0BCF1110F17D0BCF1120F2AD119E0AA
:1003E000B8F5881F19D006DCB8F5803F15D0B8F5F0
:1003F000801F1FD111E0B8F5001F0ED0B8F5041F03
:1004000018D10AE0CB6815E0CB681B1D12E0CB6861
:1004100008330FE0CB680C330CE08B682BB1012B59
:100420004FF0080303D0456104E0042302E00561B6
:1004300000E00023FF2A01D8064601E000F104068F
:100440004FEA840501D9A5F12005D6F8008007FA06
:1004500005FC28EA0C0803FA05F548EA0508C6F881
:1004600000804D68ED0062D5374DAE6946F001065B
:10047000AE61AD6924F0030605F001050095334D2A
:1004800006EB050CDCF80850A607360F07FA06F84D
:1004900025EA0805DFF8B880404503D14FF0000891
:1004A00017E044E0DFF8AC80404502D14FF001088E
:1004B0000FE0DFF8A480404502D14FF0020808E0C9
:1004C000DFF89880404502D14FF0030801E04FF07B
:1004D000040808FA06F848EA0508CCF808804D68D0
:1004E000D9F80060ED034D4601D5164300E0964370
:1004F0002E604D68DAF80060AD03554601D516430D
:1005000000E096432E604D68DBF80060ED025D462A
:1005100001D5164300E096432E604D68DEF800607A
:10052000AD02754601D5164300E096432E60641C6B
:100530000D682A46E5407FF431AFBDE8F88F000032
:1005400000040140000011100010024000000140B2
:1005500000080140000C014000100140001401405F
:100560008068084000D0012070470AB101617047DF
:100570000904FBE701488068704700001000002074
:1005800070B5040025D094F83D00002520B984F80A
:100590003C50204600F0B8F8242084F83D00206844
:1005A000016821F0010101602068016841F4004107
:1005B00001602068016821F40041016000F00AFA3E
:1005C0004D4A6168914201D84C4900E04C4988424B
:1005D00001D2012070BD4B492368B0FBF1F15E6888
:1005E00026F03F060E435E606368934206D94FF4DF
:1005F000967359434FF47A73B1FBF3F12368491CA6
:100600001E6A26F03F06314319626168914210D894
:100610004900401EB0FBF1F2521CC2F30B02042A47
:1006200001D2042022E0B0FBF1F0401CC0F30B002B
:100630001CE0A268F2B301EBC10303EB0116431EF9
:10064000B3FBF6F35B1C43F480431B0549D092B324
:1006500001EBC10202EB0111401EB0FBF1F0401CA6
:10066000C0F30B0040F4804040F400402168CA69A8
:100670004CF6FF739A431043C861D4E90710014355
:100680002068026822F0C00211430160D4E903012E
:1006900001432068826848F2FF339A431143816026
:1006A000D4E9050108432168CA6822F0FF0210431B
:1006B000C86001E00EE016E02068016841F0010129
:1006C00001602564202084F83D00256384F83E50B5
:1006D000002070BD01EB4106431EB3FBF6F35B1C2B
:1006E000B3E70120C2E701EB4101401EB0FBF1F08E
:1006F000401CC0F30B00B7E7A086010080841E00F9
:1007000000093D0040420F0010B586B00021009165
:1007100001910291039100681349884222D1134C40
:10072000A06940F00800A061A069694600F00800D7
:1007300004904FF440700090122001900320039029
:100740000B48FFF71DFE0B48416841F0E06141F0A6
:1007500002014160E06940F40010E061E06900F4EA
:100760000010049006B010BD00540040001002407C
:10077000000C0140000001400248816802781144E9
:100780008160704710000020074810B5016841F0F3
:1007900010010160032000F075F80F2000F006F84A
:1007A00000F024F8002010BD0020024070B50D4D6F
:1007B00004464FF47A712878B1FBF0F00A490968D1
:1007C000B1FBF0F000F0ECFA48B9102C07D200228F
:1007D0002146501E00F036F800206C6070BD0120EC
:1007E00070BD0000100000201C0000200C4808B55F
:1007F000816941F001018161816901F0010100918C
:10080000C16941F08051C161C06900F08050009021
:100810000448416821F0E06141F00071416008BD89
:100820000010024000000140002809DB00F01F0218
:10083000012191404009800000F1E020C0F8001142
:1008400070470000F0B40E4B1B680C46C3F3022344
:10085000C3F10705042D00D90425191D072901D26C
:10086000002300E0DB1E012606FA05F1491E2140A7
:1008700099409E40761E16403143F0BC01F0AEBA5E
:100880000CED00E0064900F0070208684FF6FF0390
:10089000184040EA0220034A1043086070470000F5
:1008A0000CED00E00000FA052DE9F0470F460500C9
:1008B00061D0434E306800F00700B84209D230687A
:1008C00020F0070038433060306800F00700B8427D
:1008D00051D128683B4C810712D5400703D5606889
:1008E00040F4E06060602878000703D5606840F459
:1008F000605060606068A96820F0F00008436060A4
:100900002878C00728D06868012810D021680228FC
:1009100010D0890700292EDA616821F00301014314
:100920006160FFF727FE804641F288390DE02168BB
:100930008903EFE78901EDE7FFF71CFEA0EB080153
:10094000494502D90320BDE8F0876068696800F076
:100950000C00B0EB810FEFD1306800F00700B84217
:100960000BD9306820F0070038433060306800F061
:100970000700B84201D00120E5E72878400705D5F7
:100980006068E96820F4E060084360602878000748
:1009900006D56068296920F4605040EAC1006060B3
:1009A00000F038F86168084AC1F30311515CC8408F
:1009B0000649086006480068FFF7F8FE0020C2E715
:1009C0000020024000100240E42200081C00002029
:1009D000140000200448054900684968044AC1F32E
:1009E0000221515CC84070471C00002000100240EA
:1009F000F42200080448054900684968044AC1F324
:100A0000C221515CC84070471C0000200010024009
:100A1000F422000812A185B00FC98DE80F0014A0C0
:100A2000144A006804905168134801F00C03042B29
:100A300010D0082B0ED1C1F38343C9031DF8030066
:100A40000AD5516804AAC1F34041515C0A4A504397
:100A5000B0FBF1F005B0704708494843FAE70000E1
:100A600002030405060708090A0B0C0D0E0F1010EF
:100A7000010200000010024000127A0000093D004F
:100A80002DE9F84F040070D02078C04DC00749D040
:100A90006868C0F38100012807D06868C0F381004E
:100AA000022809D16868C00306D52868800339D5B3
:100AB00060680028E7D035E06068B0F5803F0BD073
:100AC00010B1B0F5A02F11D0286820F48030286034
:100AD000286820F4802002E0286840F480302860F4
:100AE000606890B1FFF746FD06460AE0286840F4CA
:100AF00080202860F0E700BFFFF73CFD801B6428E2
:100B000073D828688003F7D50CE0FFF733FD06465D
:100B100005E000BFFFF72EFD801B6428F0D8286891
:100B20008003F7D420789A4E80074FF001094FF0E8
:100B3000000839D5686810F00C0F07D06868C0F35A
:100B40008100022809D16868C00306D4286880079C
:100B500014D52069012808D110E02069B0B1C6F889
:100B60000090FFF707FD074605E00AE1FFF702FDE9
:100B7000C01B0228C4D828688007F7D52868616997
:100B800020F0F80040EAC10028600DE0C6F80080BF
:100B9000FFF7F0FC074604E0FFF7ECFCC01B02285F
:100BA00023D828688007F7D4207800072CD5794807
:100BB000A169D9B1C0F80090FFF7DCFC074604E05A
:100BC000FFF7D8FCC01B02280FD8686A8007F7D54A
:100BD00071484FF4FA510068B0FBF1F0009000BF8B
:100BE0000098411E0091FAD20EE080E0C0F800802B
:100BF000FFF7C0FC074604E0FFF7BCFCC01B02285F
:100C000075D8686A8007F7D42078400760D5E8690E
:100C10000027C00008D4E86940F08050E861E86926
:100C2000012700F0805000905C480168C90513D48A
:100C30000168834641F480710160FFF79BFC8246A6
:100C400006E000BFFFF796FCA0EB0A0064284ED830
:100C5000DBF80000C005F5D5E06801280AD008B12E
:100C6000052813D0286A20F001002862286A20F0A5
:100C7000040002E0286A40F001002862E06841F2C6
:100C8000883B98B1FFF776FC82460BE0286A40F07B
:100C900004002862EEE700BFFFF76CFCA0EB0A013E
:100CA00059455AD8286A8007F6D50CE0FFF762FC50
:100CB000824605E0FFF75EFCA0EB0A0159454CD8DF
:100CC000286A8007F6D41FB1E86920F08050E861F7
:100CD000E06988B36968C1F38101022944D0022820
:100CE000C6F8608004D0FFF745FC044638E034E0E5
:100CF000FFF740FC074604E0FFF73CFCC01B02285E
:100D00002BD828688001F7D4206AB0F5803F05D140
:100D10006868A16820F4003008436860D4E90801DD
:100D20000843696821F4741108436860C6F860904C
:100D3000FFF720FC044606E025E000BFFFF71AFCA1
:100D4000001B022809D828688001F7D51BE000BFE6
:100D5000FFF710FC001B022802D90320BDE8F88F22
:100D600028688001F4D40EE00128F7D06868226A70
:100D700000F48031914204D1616A00F4701088421D
:100D800001D00120EAE70020E8E70000001002405F
:100D900000004242800442421C00002000700040DB
:100DA00010B5401EB0F1807F01D3012010BD4FF07F
:100DB000E02460610F21601701F010F80020A061AD
:100DC00007202061002010BD7047704770B590F873
:100DD0003C20012A26D0012480F83C40022280F8E1
:100DE0003D2003685A689D6822F070060A68324305
:100DF0005A600D4B02689A4208D0B2F1804F05D07C
:100E00000A4B9A4202D00A4B9A4204D1496825F013
:100E100080031943916080F83D40002180F83C1028
:100E2000084670BD022070BD002C01400004004047
:100E30000008004010B5040003D094F83D0010B144
:100E400007E0012010BD002084F83C00204600F09F
:100E50001FF8022084F83D00211D206800F002FEEA
:100E6000012084F8460084F83E0084F83F0084F8AE
:100E7000400084F8410084F8420084F8430084F87C
:100E8000440084F8450084F83D00002010BD0000B7
:100E900008B501681048B1F1804F14D00F4A914253
:100EA00019D1C16941F00401C161C069002200F09B
:100EB0000400009011461E20FFF7C4FCBDE8084066
:100EC0001E20FFF7B1BCC16941F00101C161C069D9
:100ED00000F00100009008BD001002400008004032
:100EE00090F83D10012901D001207047022180F8BF
:100EF0003D100168CA6842F00102CA6000680B49EF
:100F0000884208D0B0F1804F05D00949884202D00C
:100F10000849884204D1816801F00701062903D0FD
:100F2000016841F00101016000207047002C014080
:100F3000000400400008004070B5044690F83C00F2
:100F4000012817D0012584F83C50022084F83D0088
:100F50002068826822F0770222F47F42826008686B
:100F6000502830D00DDC20284DD005DC98B3102857
:100F70003BD148E0022070BD302844D0402834D115
:100F800039E0602828D0702806D0B0F5805F2CD0DA
:100F9000B0F5005F29D10AE0CB68D1E901212068D2
:100FA00000F0A3FD2068816841F0770109E0CB687B
:100FB000D1E90121206800F098FD2068816841F4A2
:100FC0008041816011E0CA684968206800F042FEF3
:100FD0005021206807E016E0CA684968206800F0E0
:100FE0004AFE6021206800F08AFD84F83D50002010
:100FF00084F83C0070BDCA684968206800F02AFE89
:1010000040212068EFE7226801461046EBE72DE912
:10101000F0410D46040003D094F83D0018B108E0FB
:101020000120BDE8F081002084F83C00204600F05B
:1010300041F8022084F83D002068816844F20702EC
:1010400091438160211D206800F00CFD22689068AA
:101050009169166A2B68AF69034340F203308143FC
:1010600041EA0721A868EF6908434FF6FC4188432D
:10107000E96840EA0720014328692F6A000140EA35
:101080000730084369686D6926F0220646EA0515AF
:10109000294393602268906154F8460B0162012055
:1010A00004F81F09E0752076E0762077A07500200F
:1010B000B7E7000000B585B00021009101910291D1
:1010C0000391194B0268194919489A4212D18A6949
:1010D00042F400628A618A6902F4006204928A69B9
:1010E00042F004028A61896901F0040104914FF41D
:1010F000407113E00F4B9A4214D1CA6942F00202C8
:10110000CA61CA6902F0020204928A6942F00402CA
:101110008A61896901F004010491C0210091694646
:10112000FFF72EF905B000BD002C01400010024071
:10113000000801400004004070B590F83E6004468D
:1011400090F83F5090F8423090F84320022021B1AF
:1011500004290ED0012E1BD114E0012E18D1012B31
:1011600016D184F83E0084F8420001220021206854
:1011700020E0012D0CD1012A0AD184F83F0084F827
:10118000430014E0012D03D1012B01D1012A01D02C
:10119000012070BD84F83E0084F83F0084F84200CE
:1011A00084F8430001220021206800F091FC012214
:1011B0000421206800F08CFC2068016841F00101E6
:1011C0000160002070BD704770B504460068016979
:1011D0004FF00005C943890715D4C168C943890781
:1011E00011D4E91E01610120207720688069800701
:1011F000204602D0FFF7E7FF04E000F0BDF82046EC
:1012000000F04CF9257720680169C943490717D4D4
:10121000C168C943490713D46FF00401016102207A
:1012200020772068806910F4407F204602D0FFF7C5
:10123000CAFF04E000F0A0F8204600F02FF925775F
:1012400020680169C943090716D4C168C943090761
:1012500012D46FF008010161042020772068C06972
:101260008007204602D0FFF7AEFF04E000F084F8CC
:10127000204600F013F9257720680169C943C906A3
:1012800017D4C168C943C90613D46FF010010161B6
:10129000082020772068C06910F4407F204602D0E3
:1012A000FFF791FF04E000F067F8204600F0F6F841
:1012B000257720680169C943C90708D1C168C943B6
:1012C000C90704D1891E0161204600F037F9206862
:1012D0000169C943090609D4C168C943090605D48F
:1012E0006FF0800101612046FFF76EFD2068016903
:1012F000C943490609D4C168C943490605D46FF0FA
:1013000040010161204600F01AF920680169C943D3
:1013100089060BD4C168C943890607D46FF0200140
:1013200001612046BDE87040FFF74FBD70BD000071
:1013300000B585B0002100910191029103910068F0
:10134000B0F1804F11D10A48816941F004018161F7
:101350008069694600F0040004900F20009002208C
:10136000019003900348FFF70BF805B000BD0000A3
:101370000010024000080140704770B5044690F824
:101380003C000D4601280AD0012084F83C0042B1FF
:10139000042A18D0082A2AD00C2A4DD139E002207C
:1013A00070BD206800F0B4FB2068816941F008013D
:1013B00081612068816921F004018161206881696F
:1013C0002A69114311E0206800F0CAFB2068816996
:1013D00041F4006181612068816921F4806181614B
:1013E000206881692A6941EA0221816124E020683C
:1013F00000F0E2FB2068C16941F00801C16120688A
:10140000C16921F00401C1612068C1692A691143E1
:1014100011E0206800F0FCFB2068C16941F4006124
:10142000C1612068C16921F48061C1612068C1691E
:101430002A6941EA0221C161002084F83C0070BDA4
:1014400010B5040003D094F83D0010B107E001206E
:1014500010BD002084F83C00204600F01EF8022059
:1014600084F83D00211D206800F0FCFA012084F87A
:10147000460084F83E0084F83F0084F8400084F879
:10148000410084F8420084F8430084F8440084F862
:10149000450084F83D00002010BD704770470000F3
:1014A00010B50446022249B104290ED0082913D0F0
:1014B00094F84100012816D0012010BD94F83E0098
:1014C0000128F9D184F83E200FE094F83F0001286C
:1014D000F2D184F83F2008E094F840000128EBD1D5
:1014E00084F8402001E084F841200122206800F0C7
:1014F000EFFA0F492068884203D1426C42F400425F
:1015000042642068884208D0B0F1804F05D0094974
:10151000884202D00849884204D1816801F007015D
:10152000062903D0016841F001010160002010BDCF
:10153000002C014000040040000800407047704744
:1015400070B5040004D094F83D00002510B106E009
:10155000012070BD84F83C50204600F023F8242080
:1015600084F83D002068C16821F40051C160204624
:1015700000F094FB2068016921F49041016120682A
:10158000416921F02A0141612068C16841F400519C
:10159000C1602564202084F83D0084F83E000020CE
:1015A00070BD000030B585B0002400940194029411
:1015B00003940068174988422AD11748816941F489
:1015C00080418161816901F480410491816941F028
:1015D000080181618069114D00F0080004904020ED
:1015E0000090022001900320039069462846FEF7F0
:1015F000C7FE8020CDE90004694628460294FEF724
:10160000BFFE0748416841F0E06141F004014160DC
:1016100005B030BD0038014000100240000C014010
:10162000000001402DE9F843044690F83D001F46B4
:1016300016460D4620284CD1C5B1BEB194F83C00E9
:10164000012846D0012084F83C004FF00008C4F87F
:101650004080212084F83D00FEF78CFFA68481465F
:10166000E684A068B0F5805F03D004E00120BDE807
:10167000F883206928B12E465FF0000584F83C808D
:101680000EE00026FAE78021204600F063FBA0B9B7
:10169000AEB116F8010B21684860E08C401EE08472
:1016A000E08C4B464FF0000200970028EBD14FF042
:1016B0004001204600F04EFB30B10320D7E735F85B
:1016C000020BC0F30800E6E7202084F83D0000206C
:1016D000CDE70220CBE7FEE770B586B000242148B5
:1016E0000094019402940394816941F01001816196
:1016F000816901F010010491816941F0200181614B
:10170000816901F020010491816941F00401816146
:10171000816901F004010491816941F0080181614E
:101720008069114E00F008004FF40055049000222B
:1017300029463046FEF719FF01200095CDE9010446
:101740000220039069463046FEF71AFE4FF44050DF
:10175000CDE90004694605480294FEF711FE06B083
:1017600070BD00000010024000100140000C01405C
:101770000D4810B50B4901600C49416000214FF440
:1017800080428160C0E9031241618161C1610162EF
:10179000FEF7F6FE002803D0BDE81040FEF7EEBDD0
:1017A00010BD0000005400408C000020A086010005
:1017B00010B58CB024216846FEF7BDFC0024164805
:1017C000099414490A94C0E900144FF6FF71C0E966
:1017D00002410461446184610120CDE90004CDE946
:1017E00002040494CDE90540079469460A48089428
:1017F000FFF70DFC08B1FEF7C1FD099409A90648E1
:101800000A94FFF7E3FA002801D0FEF7B7FD0CB009
:1018100010BD0000002C0140E000002010B58EB08B
:1018200000240794089409940A940B941C21684698
:101830000C94FEF780FC2B484FF08041016047215B
:10184000C0E9011440F6B731C0E903148461FFF721
:10185000F1FA08B1FEF792FD4FF48050079007A906
:101860002048FFF769FB08B1FEF788FD1D48FFF728
:10187000E7FD08B1FEF782FD0B940BA919480C9403
:10188000FFF7A4FA08B1FEF779FD6020009040F25E
:10189000E730CDE901040022694612480494FFF7BD
:1018A0006CFD08B1FEF76AFD042269460D480194FB
:1018B000FFF763FD08B1FEF761FD0822694609489C
:1018C000FFF75BFD08B1FEF759FD0C22694605489C
:1018D000FFF753FD08B1FEF751FD0248FFF728FD61
:1018E0000EB010BD2801002010B58CB02421684630
:1018F000FEF721FC00241548099413490A94C0E915
:1019000000144FF6FF71C0E90241046184610120B7
:10191000CDE90004CDE902040494CDE90540079423
:1019200069460A480894FFF772FB08B1FEF726FDE6
:10193000099409A905480A94FFF748FA002801D03C
:10194000FEF71CFD0CB010BD00040040700100202B
:1019500010B586B0002416480094019402940394B4
:10196000049412490594C0E900144FF6FF71C0E9D0
:10197000024104618461FFF75DFA08B1FEF7FEFCE5
:101980004FF48050009069460948FFF7D5FA08B136
:10199000FEF7F4FC049404A905480594FFF716FA31
:1019A000002801D0FEF7EAFC06B010BD0008004098
:1019B000B80100200C4810B50A4901604FF4E1312C
:1019C0004160002181600C22C160C0E90412816184
:1019D000C161FFF7B5FD002803D0BDE81040FEF758
:1019E000CDBC10BD0038014000020020FEE7FEE73C
:1019F00070477047FEF7C0BE30B58FB028216846EB
:101A0000FEF799FB14210AA8FEF795FB01210804B3
:101A1000CDE900100024029402250491CDE907507D
:101A20004FF4E01009906846FFF72AF808B172B643
:101A3000FEE70F20CDE90A054FF48060CDE90C40A8
:101A400002210AA80E94FEF72FFF002801D072B6DB
:101A5000FEE70FB030BD70470148FFF7B5BB00008F
:101A6000B8010020F0B50268164B174C174D4FF027
:101A70008047984205D0B84203D0A04201D0A84286
:101A800003D122F070064A683243984205D0B8422A
:101A900003D0A04201D0A84203D122F44074CA6806
:101AA00022434C6922F08002224302608A68C262AB
:101AB0000A688262984201D109690163012141618A
:101AC000F0BD0000002C0140000400400008004070
:101AD00010B501F01F030121046A99408C43046290
:101AE000016A9A401143016210BD10B5846842EA50
:101AF000032224F47F440A432243826010BD82689B
:101B000022F070020A4342F0070181607047000032
:101B100030B5026A22F001020262026A43688469F7
:101B200024F073050C682C4322F002058A682A43CE
:101B30000A4DA8420BD122F00805CA6823F440736D
:101B40002A434D6922F004021D438B692B434360F5
:101B5000846149684163026230BD0000002C01408D
:101B600030B5026A22F010020262026A4368846998
:101B70000D6824F4E64444EA05248D6822F020022E
:101B800042EA05120B4DA8420ED1CD6822F0800228
:101B900042EA05124D6923F4406343EA85038D69E7
:101BA00022F0400243EA850343608461496881630F
:101BB000026230BD002C014030B5026A22F480720E
:101BC0000262036A4268C46923F4007324F0730557
:101BD0000C682C438D6843EA05230C4DA8420ED1B6
:101BE000CD6823F4006343EA05234D6922F4405293
:101BF00042EA05128D6923F4806342EA05124260CD
:101C0000C4614968C163036230BD0000002C01401B
:101C100030B5026A22F480520262046A4268C369E3
:101C20000D6823F4E64343EA05238D6824F4005449
:101C300044EA0534064DA84204D14D6922F480429D
:101C400042EA85124260C36149680164046230BDA2
:101C5000002C014010B5036A046A24F001040462F8
:101C6000846924F0F00444EA021423F00A020A43CF
:101C70008461026210BD10B5036A23F01003036291
:101C80008369046A23F4704343EA023224F0A00318
:101C900043EA01118261016210BD000070B5044683
:101CA00000680169E26821F4405111430161216932
:101CB000A0680843616908432168CA6841F20C635F
:101CC0009A430243CA6020684169A26921F44071C5
:101CD000114341611E492068884202D1FEF78AFE05
:101CE00001E0FEF777FE00EBC00101EB0012606837
:101CF00064218000B2FBF0F3B3FBF1F36FF0180640
:101D00007343B2FBF0F5B2FBF0F605EB830532232B
:101D100003EB0515B5FBF1F5B6FBF1F605F0F005A3
:101D200005EB0615B2FBF0F6B2FBF0F0B0FBF1F0FC
:101D30006FF01802504306EB800003EB0010B0FB7D
:101D4000F1F0216800F00F002844886070BD0000A9
:101D5000003801402DE9F041984617460E460446EA
:101D6000069D1DE0681C1BD02DB1FEF703FCA0EB07
:101D70000800A84214D92068C16821F4D071C1605C
:101D80002068416921F001014161202084F83D0073
:101D900084F83E00002084F83C000320BDE8F08178
:101DA0002068006836EA000004D00020B842D9D08C
:101DB0000020F3E70120F9E7FEE700000FB4054B30
:101DC00010B503A9044A029800F028F810BC5DF889
:101DD00014FB0000711F0008200000200907090EF5
:101DE000002804DB00F1E02080F80014704700F0C8
:101DF0000F0000F1E02080F8141D704702E008C8D1
:101E0000121F08C1002AFAD170477047002001E074
:101E100001C1121F002AFBD1704700002DE9FF4FBE
:101E200089B09B460446002506E025280BD05A467B
:101E30000B999047641C6D1C20780028F5D10DB0DB
:101E40002846BDE8F08F0027B8460122474900E048
:101E5000074314F8013F203B02FA03F00842F7D190
:101E600020782E2819D114F8010F47F004072A28EA
:101E70000ED06FF02F022078A0F1300109290CD884
:101E800008EB880102EB410100EB0108641CF2E75A
:101E90000A98641C50F8048B0A9020780028CED051
:101EA000642808D0692806D075281ED05A460B9998
:101EB00090476D1C58E00A994FF00A0901C90A9130
:101EC000002802DA40422D2102E0390504D52B21F9
:101ED0008DF82010012103E0F90704D02021F7E755
:101EE0008A4608AE0DE00021FAE70A994FF00A0988
:101EF00001C90A91F7E74946FEF7DEF9303106F8E5
:101F0000011D0028F7D1ADEB060000F1200978078C
:101F100001D44FF00108C84502DDA8EB090000E03C
:101F200000208046002706E008A85A46C05D0B99AD
:101F300090476D1C7F1C5745F6DB04E030205A4665
:101F40000B9990476D1CB8F10001A8F10108F5DC70
:101F500005E016F8010B5A460B9990476D1CB9F134
:101F60000001A9F10109F4DC641C65E709280100FE
:101F700038B504468DF80000022301226946024864
:101F8000FFF750FB204638BD00020020144810B572
:101F90000368586A134C144900B220600868406A0C
:101FA000002200B260605A6209684A62FEF758F97E
:101FB00002460E490E4800F0BDF880F00040FEF7E2
:101FC00058F9A0602068FEF74BF902460848094915
:101FD000343000F0AFF8FEF74CF9E06010BD0000BF
:101FE000E00000200000002070010020000020C15F
:101FF00024000020000020411CB5FEF7C5FBFFF7C0
:10200000FBFCFFF769FBFFF7B3FBFFF7D1FBFFF723
:1020100005FCFFF769FCFFF79BFCFFF7CBFC2E4CA0
:102020002E4D00942B462E4A2E492F48019400F045
:10203000D5F82D482B4600941A462C49343001948B
:1020400000F0CCF83C212A48FFF776F83C212948DB
:10205000FFF772F82848FEF743FF00212748FFF7F3
:102060001FFA04212548FFF71BFA08212348FFF730
:1020700017FA0C212148FFF713FA214C214D4FF498
:102080008056671431462046FEF76AFA18B100F010
:10209000F5F800F0A9F839462046FEF761FA18B1C4
:1020A00000F0BAF800F0A0F831462046FEF758FAE2
:1020B00040B939462046FEF753FA18B9FFF766FFD4
:1020C00000F092F810A02968FFF778FE14A0696864
:1020D000FFF774FED6E700000000FA44CDCC4C3F79
:1020E0009A99193F000048432400002000007043E3
:1020F000E000002070010020B8010020280100202D
:10210000000C0140000000204D6F746F7253706529
:10211000656472696E6768743A25640D0A00000090
:102120004D6F746F7253706565646C6566743A25A3
:10213000640D0A002DE9F04104460846C4E9050291
:10214000E56911462562FEF753F80646E06131461F
:102150002068FEF753F8606231466068FEF74EF87B
:10216000A16AFDF7F3FF0746A06229463046FEF755
:102170003FF8A168FEF742F8E062E068394680F077
:102180000040FEF78FF803D8E06880F0004107E0D8
:10219000E168A06AFEF786F801D8E16800E0A16A6C
:1021A000A162606AFDF7D2FFE16AFDF7CFFF014649
:1021B0002063206980F00040FEF774F803D820699E
:1021C00080F0004007E02169206BFEF76BF801D832
:1021D000206900E0206B2063BDE8F08130B5DDE9C7
:1021E000034580E83E0030BD094B0A499A680868FB
:1021F000002A01DD426301E052428263D868002870
:1022000002DD09680864704709684042C863704786
:102210000000002028010020144810B50368586A07
:10222000134C144900B220600868406A002200B2D2
:1022300060605A6209684A62FEF712F8024600219D
:102240000D48FFF777FF80F00040FEF712F8A0601E
:102250002068FEF705F8024607484FF08141343008
:10226000FFF768FFFEF705F8E06010BDE000002012
:10227000000000207001002024000020144810B548
:102280000368586A134C144900B220600868406A19
:10229000002200B260605A6209684A62FDF7E0FFFE
:1022A00002460E490E48FFF745FF80F00040FDF75B
:1022B000E0FFA0602068FDF7D3FF02460848002138
:1022C0003430FFF737FFFDF7D4FFE06010BD0000AA
:1022D000E00000200000002070010020000080C00D
:1022E00024000020000000000000000001020304A0
:1022F0000607080900000000010203041C2300086F
:102300000000002024000000FC1D000840230008FD
:1023100024000020240600000C1E0008000000001D
:1023200000000000000000000000000001000000AC
:1023300010000000000000000024F4000000000075
:04000005080000ED02
:00000001FF
